{
  "_format": "hh-sol-artifact-1",
  "contractName": "FilecoinDataWeaver",
  "sourceName": "contracts/FilecoinDataWeaver.sol",
  "abi": [
    {
      "inputs": [],
      "stateMutability": "nonpayable",
      "type": "constructor"
    },
    {
      "anonymous": false,
      "inputs": [
        {
          "indexed": true,
          "internalType": "address",
          "name": "owner",
          "type": "address"
        },
        {
          "indexed": true,
          "internalType": "address",
          "name": "approved",
          "type": "address"
        },
        {
          "indexed": true,
          "internalType": "uint256",
          "name": "tokenId",
          "type": "uint256"
        }
      ],
      "name": "Approval",
      "type": "event"
    },
    {
      "anonymous": false,
      "inputs": [
        {
          "indexed": true,
          "internalType": "address",
          "name": "owner",
          "type": "address"
        },
        {
          "indexed": true,
          "internalType": "address",
          "name": "operator",
          "type": "address"
        },
        {
          "indexed": false,
          "internalType": "bool",
          "name": "approved",
          "type": "bool"
        }
      ],
      "name": "ApprovalForAll",
      "type": "event"
    },
    {
      "anonymous": false,
      "inputs": [
        {
          "indexed": true,
          "internalType": "address",
          "name": "player",
          "type": "address"
        },
        {
          "indexed": true,
          "internalType": "uint256",
          "name": "tokenId",
          "type": "uint256"
        },
        {
          "indexed": false,
          "internalType": "string",
          "name": "dataHash",
          "type": "string"
        },
        {
          "indexed": false,
          "internalType": "uint256",
          "name": "dataSize",
          "type": "uint256"
        }
      ],
      "name": "DataArchived",
      "type": "event"
    },
    {
      "anonymous": false,
      "inputs": [
        {
          "indexed": true,
          "internalType": "address",
          "name": "player",
          "type": "address"
        },
        {
          "indexed": true,
          "internalType": "uint256",
          "name": "tokenId",
          "type": "uint256"
        },
        {
          "indexed": false,
          "internalType": "string",
          "name": "dataHash",
          "type": "string"
        },
        {
          "indexed": false,
          "internalType": "uint256",
          "name": "retrievalTime",
          "type": "uint256"
        }
      ],
      "name": "DataRetrieved",
      "type": "event"
    },
    {
      "anonymous": false,
      "inputs": [
        {
          "indexed": true,
          "internalType": "address",
          "name": "player",
          "type": "address"
        },
        {
          "indexed": true,
          "internalType": "uint256",
          "name": "tokenId",
          "type": "uint256"
        },
        {
          "indexed": false,
          "internalType": "string",
          "name": "name",
          "type": "string"
        }
      ],
      "name": "DataWeaverMinted",
      "type": "event"
    },
    {
      "anonymous": false,
      "inputs": [
        {
          "indexed": true,
          "internalType": "address",
          "name": "previousOwner",
          "type": "address"
        },
        {
          "indexed": true,
          "internalType": "address",
          "name": "newOwner",
          "type": "address"
        }
      ],
      "name": "OwnershipTransferred",
      "type": "event"
    },
    {
      "anonymous": false,
      "inputs": [
        {
          "indexed": true,
          "internalType": "address",
          "name": "player",
          "type": "address"
        },
        {
          "indexed": true,
          "internalType": "uint256",
          "name": "tokenId",
          "type": "uint256"
        },
        {
          "indexed": false,
          "internalType": "string",
          "name": "contractName",
          "type": "string"
        },
        {
          "indexed": false,
          "internalType": "uint256",
          "name": "storageCapacity",
          "type": "uint256"
        }
      ],
      "name": "StorageContractCreated",
      "type": "event"
    },
    {
      "anonymous": false,
      "inputs": [
        {
          "indexed": true,
          "internalType": "address",
          "name": "player",
          "type": "address"
        },
        {
          "indexed": true,
          "internalType": "uint256",
          "name": "tokenId",
          "type": "uint256"
        },
        {
          "indexed": false,
          "internalType": "uint256",
          "name": "newScore",
          "type": "uint256"
        }
      ],
      "name": "StorageScoreUpdated",
      "type": "event"
    },
    {
      "anonymous": false,
      "inputs": [
        {
          "indexed": true,
          "internalType": "address",
          "name": "from",
          "type": "address"
        },
        {
          "indexed": true,
          "internalType": "address",
          "name": "to",
          "type": "address"
        },
        {
          "indexed": true,
          "internalType": "uint256",
          "name": "tokenId",
          "type": "uint256"
        }
      ],
      "name": "Transfer",
      "type": "event"
    },
    {
      "inputs": [
        {
          "internalType": "address",
          "name": "to",
          "type": "address"
        },
        {
          "internalType": "uint256",
          "name": "tokenId",
          "type": "uint256"
        }
      ],
      "name": "approve",
      "outputs": [],
      "stateMutability": "nonpayable",
      "type": "function"
    },
    {
      "inputs": [
        {
          "internalType": "string",
          "name": "dataHash",
          "type": "string"
        },
        {
          "internalType": "uint256",
          "name": "dataSize",
          "type": "uint256"
        }
      ],
      "name": "archiveData",
      "outputs": [],
      "stateMutability": "nonpayable",
      "type": "function"
    },
    {
      "inputs": [
        {
          "internalType": "address",
          "name": "owner",
          "type": "address"
        }
      ],
      "name": "balanceOf",
      "outputs": [
        {
          "internalType": "uint256",
          "name": "",
          "type": "uint256"
        }
      ],
      "stateMutability": "view",
      "type": "function"
    },
    {
      "inputs": [
        {
          "internalType": "string",
          "name": "contractName",
          "type": "string"
        },
        {
          "internalType": "uint256",
          "name": "storageCapacity",
          "type": "uint256"
        }
      ],
      "name": "createStorageContract",
      "outputs": [],
      "stateMutability": "nonpayable",
      "type": "function"
    },
    {
      "inputs": [
        {
          "internalType": "uint256",
          "name": "tokenId",
          "type": "uint256"
        }
      ],
      "name": "deactivateDataWeaver",
      "outputs": [],
      "stateMutability": "nonpayable",
      "type": "function"
    },
    {
      "inputs": [
        {
          "internalType": "uint256",
          "name": "tokenId",
          "type": "uint256"
        }
      ],
      "name": "getApproved",
      "outputs": [
        {
          "internalType": "address",
          "name": "",
          "type": "address"
        }
      ],
      "stateMutability": "view",
      "type": "function"
    },
    {
      "inputs": [
        {
          "internalType": "uint256",
          "name": "tokenId",
          "type": "uint256"
        }
      ],
      "name": "getDataWeaverData",
      "outputs": [
        {
          "components": [
            {
              "internalType": "string",
              "name": "name",
              "type": "string"
            },
            {
              "internalType": "string",
              "name": "title",
              "type": "string"
            },
            {
              "internalType": "string",
              "name": "realm",
              "type": "string"
            },
            {
              "internalType": "string",
              "name": "rarity",
              "type": "string"
            },
            {
              "internalType": "uint256",
              "name": "mintedAt",
              "type": "uint256"
            },
            {
              "internalType": "bool",
              "name": "isActive",
              "type": "bool"
            },
            {
              "internalType": "uint256",
              "name": "dataArchived",
              "type": "uint256"
            },
            {
              "internalType": "uint256",
              "name": "storageContracts",
              "type": "uint256"
            },
            {
              "internalType": "uint256",
              "name": "retrievalRequests",
              "type": "uint256"
            },
            {
              "internalType": "uint256",
              "name": "storageScore",
              "type": "uint256"
            }
          ],
          "internalType": "struct FilecoinDataWeaver.DataWeaverData",
          "name": "",
          "type": "tuple"
        }
      ],
      "stateMutability": "view",
      "type": "function"
    },
    {
      "inputs": [
        {
          "internalType": "address",
          "name": "player",
          "type": "address"
        }
      ],
      "name": "getPlayerDataWeaver",
      "outputs": [
        {
          "internalType": "uint256",
          "name": "",
          "type": "uint256"
        }
      ],
      "stateMutability": "view",
      "type": "function"
    },
    {
      "inputs": [
        {
          "internalType": "address",
          "name": "player",
          "type": "address"
        }
      ],
      "name": "hasDataWeaver",
      "outputs": [
        {
          "internalType": "bool",
          "name": "",
          "type": "bool"
        }
      ],
      "stateMutability": "view",
      "type": "function"
    },
    {
      "inputs": [
        {
          "internalType": "address",
          "name": "owner",
          "type": "address"
        },
        {
          "internalType": "address",
          "name": "operator",
          "type": "address"
        }
      ],
      "name": "isApprovedForAll",
      "outputs": [
        {
          "internalType": "bool",
          "name": "",
          "type": "bool"
        }
      ],
      "stateMutability": "view",
      "type": "function"
    },
    {
      "inputs": [
        {
          "internalType": "address",
          "name": "player",
          "type": "address"
        },
        {
          "internalType": "string",
          "name": "name",
          "type": "string"
        },
        {
          "internalType": "string",
          "name": "title",
          "type": "string"
        }
      ],
      "name": "mintDataWeaver",
      "outputs": [],
      "stateMutability": "nonpayable",
      "type": "function"
    },
    {
      "inputs": [],
      "name": "name",
      "outputs": [
        {
          "internalType": "string",
          "name": "",
          "type": "string"
        }
      ],
      "stateMutability": "view",
      "type": "function"
    },
    {
      "inputs": [],
      "name": "owner",
      "outputs": [
        {
          "internalType": "address",
          "name": "",
          "type": "address"
        }
      ],
      "stateMutability": "view",
      "type": "function"
    },
    {
      "inputs": [
        {
          "internalType": "uint256",
          "name": "tokenId",
          "type": "uint256"
        }
      ],
      "name": "ownerOf",
      "outputs": [
        {
          "internalType": "address",
          "name": "",
          "type": "address"
        }
      ],
      "stateMutability": "view",
      "type": "function"
    },
    {
      "inputs": [],
      "name": "renounceOwnership",
      "outputs": [],
      "stateMutability": "nonpayable",
      "type": "function"
    },
    {
      "inputs": [
        {
          "internalType": "string",
          "name": "dataHash",
          "type": "string"
        },
        {
          "internalType": "uint256",
          "name": "retrievalTime",
          "type": "uint256"
        }
      ],
      "name": "retrieveData",
      "outputs": [],
      "stateMutability": "nonpayable",
      "type": "function"
    },
    {
      "inputs": [
        {
          "internalType": "address",
          "name": "from",
          "type": "address"
        },
        {
          "internalType": "address",
          "name": "to",
          "type": "address"
        },
        {
          "internalType": "uint256",
          "name": "tokenId",
          "type": "uint256"
        }
      ],
      "name": "safeTransferFrom",
      "outputs": [],
      "stateMutability": "nonpayable",
      "type": "function"
    },
    {
      "inputs": [
        {
          "internalType": "address",
          "name": "from",
          "type": "address"
        },
        {
          "internalType": "address",
          "name": "to",
          "type": "address"
        },
        {
          "internalType": "uint256",
          "name": "tokenId",
          "type": "uint256"
        },
        {
          "internalType": "bytes",
          "name": "data",
          "type": "bytes"
        }
      ],
      "name": "safeTransferFrom",
      "outputs": [],
      "stateMutability": "nonpayable",
      "type": "function"
    },
    {
      "inputs": [
        {
          "internalType": "address",
          "name": "operator",
          "type": "address"
        },
        {
          "internalType": "bool",
          "name": "approved",
          "type": "bool"
        }
      ],
      "name": "setApprovalForAll",
      "outputs": [],
      "stateMutability": "nonpayable",
      "type": "function"
    },
    {
      "inputs": [
        {
          "internalType": "string",
          "name": "baseURI",
          "type": "string"
        }
      ],
      "name": "setBaseURI",
      "outputs": [],
      "stateMutability": "nonpayable",
      "type": "function"
    },
    {
      "inputs": [
        {
          "internalType": "bytes4",
          "name": "interfaceId",
          "type": "bytes4"
        }
      ],
      "name": "supportsInterface",
      "outputs": [
        {
          "internalType": "bool",
          "name": "",
          "type": "bool"
        }
      ],
      "stateMutability": "view",
      "type": "function"
    },
    {
      "inputs": [],
      "name": "symbol",
      "outputs": [
        {
          "internalType": "string",
          "name": "",
          "type": "string"
        }
      ],
      "stateMutability": "view",
      "type": "function"
    },
    {
      "inputs": [
        {
          "internalType": "uint256",
          "name": "tokenId",
          "type": "uint256"
        }
      ],
      "name": "tokenURI",
      "outputs": [
        {
          "internalType": "string",
          "name": "",
          "type": "string"
        }
      ],
      "stateMutability": "view",
      "type": "function"
    },
    {
      "inputs": [],
      "name": "totalSupply",
      "outputs": [
        {
          "internalType": "uint256",
          "name": "",
          "type": "uint256"
        }
      ],
      "stateMutability": "view",
      "type": "function"
    },
    {
      "inputs": [
        {
          "internalType": "address",
          "name": "from",
          "type": "address"
        },
        {
          "internalType": "address",
          "name": "to",
          "type": "address"
        },
        {
          "internalType": "uint256",
          "name": "tokenId",
          "type": "uint256"
        }
      ],
      "name": "transferFrom",
      "outputs": [],
      "stateMutability": "nonpayable",
      "type": "function"
    },
    {
      "inputs": [
        {
          "internalType": "address",
          "name": "newOwner",
          "type": "address"
        }
      ],
      "name": "transferOwnership",
      "outputs": [],
      "stateMutability": "nonpayable",
      "type": "function"
    }
  ],
  "bytecode": "0x60806040523480156200001157600080fd5b506040518060400160405280601481526020017f46696c65636f696e204461746120576561766572000000000000000000000000815250604051806040016040528060068152602001652ba2a0ab22a960d11b8152508160009081620000789190620001ee565b506001620000878282620001ee565b505050620000a46200009e620000f360201b60201c565b620000f7565b600160075560408051808201909152601581527f68747470733a2f2f697066732e696f2f697066732f00000000000000000000006020820152600c90620000ec9082620001ee565b50620002ba565b3390565b600680546001600160a01b038381166001600160a01b0319831681179093556040519116919082907f8be0079c531659141344cd1fd0a4f28419497f9722a3daafe3b4186f6b6457e090600090a35050565b634e487b7160e01b600052604160045260246000fd5b600181811c908216806200017457607f821691505b6020821081036200019557634e487b7160e01b600052602260045260246000fd5b50919050565b601f821115620001e957600081815260208120601f850160051c81016020861015620001c45750805b601f850160051c820191505b81811015620001e557828155600101620001d0565b5050505b505050565b81516001600160401b038111156200020a576200020a62000149565b62000222816200021b84546200015f565b846200019b565b602080601f8311600181146200025a5760008415620002415750858301515b600019600386901b1c1916600185901b178555620001e5565b600085815260208120601f198616915b828110156200028b578886015182559484019460019091019084016200026a565b5085821015620002aa5787850151600019600388901b60f8161c191681555b5050505050600190811b01905550565b61256980620002ca6000396000f3fe608060405234801561001057600080fd5b506004361061018e5760003560e01c80637aaa93c6116100de578063b88d4fde11610097578063e656fd0d11610071578063e656fd0d1461035e578063e985e9c51461038a578063f2fde38b1461039d578063faddf3de146103b057600080fd5b8063b88d4fde14610318578063c87b56dd1461032b578063d341850b1461033e57600080fd5b80637aaa93c6146102b3578063835212cd146102c65780638da5cb5b146102d957806390ca6e59146102ea57806395d89b41146102fd578063a22cb4651461030557600080fd5b806323b872dd1161014b57806355f804b31161012557806355f804b3146102725780636352211e1461028557806370a0823114610298578063715018a6146102ab57600080fd5b806323b872dd1461023957806329d9cf9b1461024c57806342842e0e1461025f57600080fd5b806301ffc9a71461019357806306fdde03146101bb578063081812fc146101d05780630892458f146101fb578063095ea7b31461021057806318160ddd14610223575b600080fd5b6101a66101a1366004611cff565b6103c3565b60405190151581526020015b60405180910390f35b6101c3610415565b6040516101b29190611d6c565b6101e36101de366004611d7f565b6104a7565b6040516001600160a01b0390911681526020016101b2565b61020e610209366004611e60565b6104ce565b005b61020e61021e366004611ed4565b610769565b61022b610879565b6040519081526020016101b2565b61020e610247366004611efe565b610889565b61020e61025a366004611f3a565b6108ba565b61020e61026d366004611efe565b610a53565b61020e610280366004611f7f565b610a6e565b6101e3610293366004611d7f565b610a86565b61022b6102a6366004611fb4565b610ae6565b61020e610b6c565b61020e6102c1366004611f3a565b610b80565b61020e6102d4366004611f3a565b610cb5565b6006546001600160a01b03166101e3565b61022b6102f8366004611fb4565b610ddb565b6101c3610e2f565b61020e610313366004611fcf565b610e3e565b61020e61032636600461200b565b610e49565b6101c3610339366004611d7f565b610e81565b61035161034c366004611d7f565b610ee8565b6040516101b29190612087565b6101a661036c366004611fb4565b6001600160a01b03166000908152600b602052604090205460ff1690565b6101a6610398366004612159565b611244565b61020e6103ab366004611fb4565b611272565b61020e6103be366004611d7f565b6112eb565b60006001600160e01b031982166380ac58cd60e01b14806103f457506001600160e01b03198216635b5e139f60e01b145b8061040f57506301ffc9a760e01b6001600160e01b03198316145b92915050565b6060600080546104249061218c565b80601f01602080910402602001604051908101604052809291908181526020018280546104509061218c565b801561049d5780601f106104725761010080835404028352916020019161049d565b820191906000526020600020905b81548152906001019060200180831161048057829003601f168201915b5050505050905090565b60006104b282611369565b506000908152600460205260409020546001600160a01b031690565b6104d66113c8565b6104de611422565b6001600160a01b0383166000908152600b602052604090205460ff161561054c5760405162461bcd60e51b815260206004820152601e60248201527f506c6179657220616c726561647920686173204461746120576561766572000060448201526064015b60405180910390fd5b6001600160a01b03831661059b5760405162461bcd60e51b8152602060048201526016602482015275496e76616c696420706c61796572206164647265737360501b6044820152606401610543565b6105a9600880546001019055565b60006105b460085490565b604080516101408101825285815260208082018690528251808401845260088152672334b632b1b7b4b760c11b81830152828401528251808401845260048152634570696360e01b818301526060830152426080830152600160a0830152600060c0830181905260e08301819052610100830181905260646101208401528481526009909152919091208151929350909181906106519082612214565b50602082015160018201906106669082612214565b506040820151600282019061067b9082612214565b50606082015160038201906106909082612214565b506080820151600482015560a082015160058201805491151560ff1992831617905560c0830151600683015560e083015160078301556101008301516008830155610120909201516009909101556001600160a01b0385166000908152600a60209081526040808320859055600b909152902080549091166001179055610717848261147b565b80846001600160a01b03167f32226c81588ae002ef42a293178e0e5d46ab6856be2094c9e993eb5647ea54d2856040516107519190611d6c565b60405180910390a3506107646001600755565b505050565b600061077482610a86565b9050806001600160a01b0316836001600160a01b0316036107e15760405162461bcd60e51b815260206004820152602160248201527f4552433732313a20617070726f76616c20746f2063757272656e74206f776e656044820152603960f91b6064820152608401610543565b336001600160a01b03821614806107fd57506107fd8133611244565b61086f5760405162461bcd60e51b815260206004820152603d60248201527f4552433732313a20617070726f76652063616c6c6572206973206e6f7420746f60448201527f6b656e206f776e6572206f7220617070726f76656420666f7220616c6c0000006064820152608401610543565b6107648383611495565b600061088460085490565b905090565b6108933382611503565b6108af5760405162461bcd60e51b8152600401610543906122d4565b610764838383611562565b336000908152600b602052604090205460ff166108e95760405162461bcd60e51b815260040161054390612321565b600081116109495760405162461bcd60e51b815260206004820152602760248201527f53746f72616765206361706163697479206d75737420626520677265617465726044820152660207468616e20360cc1b6064820152608401610543565b336000908152600a60209081526040808320548084526009909252909120600581015460ff1661098b5760405162461bcd60e51b815260040161054390612356565b60078101805490600061099d836123a3565b909155506109af9050612710846123bc565b8160090160008282546109c291906123de565b9091555050604051829033907fbafd4a27c4ab27532b6d7d3b86266e3fec75bb2d8c9c5d9ef331b747f98b785f906109fd90889088906123f1565b60405180910390a381336001600160a01b03167f0507a23bbbfe614332af12c8ae87c7ffd3d576dd0dfe3321b9a008781a1645738360090154604051610a4591815260200190565b60405180910390a350505050565b61076483838360405180602001604052806000815250610e49565b610a766113c8565b600c610a828282612214565b5050565b6000818152600260205260408120546001600160a01b03168061040f5760405162461bcd60e51b8152602060048201526018602482015277115490cdcc8c4e881a5b9d985b1a59081d1bdad95b88125160421b6044820152606401610543565b60006001600160a01b038216610b505760405162461bcd60e51b815260206004820152602960248201527f4552433732313a2061646472657373207a65726f206973206e6f7420612076616044820152683634b21037bbb732b960b91b6064820152608401610543565b506001600160a01b031660009081526003602052604090205490565b610b746113c8565b610b7e60006116d3565b565b336000908152600b602052604090205460ff16610baf5760405162461bcd60e51b815260040161054390612321565b60008111610bff5760405162461bcd60e51b815260206004820181905260248201527f446174612073697a65206d7573742062652067726561746572207468616e20306044820152606401610543565b336000908152600a60209081526040808320548084526009909252909120600581015460ff16610c415760405162461bcd60e51b815260040161054390612356565b82816006016000828254610c5591906123de565b90915550610c6790506103e8846123bc565b816009016000828254610c7a91906123de565b9091555050604051829033907ff2717554dbda16a2e80c8114818acc797d928d9fd8437d5719bbf5eca502f5bb906109fd90889088906123f1565b336000908152600b602052604090205460ff16610ce45760405162461bcd60e51b815260040161054390612321565b336000908152600a60209081526040808320548084526009909252909120600581015460ff16610d265760405162461bcd60e51b815260040161054390612356565b600881018054906000610d38836123a3565b91905055506005831015610d66576064816009016000828254610d5b91906123de565b90915550610d9f9050565b601e831015610d84576032816009016000828254610d5b91906123de565b600a816009016000828254610d9991906123de565b90915550505b81336001600160a01b03167f7eaa1a95312fbd4efa9ab30b4ad8f372eb37ac4089819e62813f2f1ab2655d2c86866040516109fd9291906123f1565b6001600160a01b0381166000908152600b602052604081205460ff16610e135760405162461bcd60e51b815260040161054390612321565b506001600160a01b03166000908152600a602052604090205490565b6060600180546104249061218c565b610a82338383611725565b610e533383611503565b610e6f5760405162461bcd60e51b8152600401610543906122d4565b610e7b848484846117f3565b50505050565b6060610e8c82611369565b6000610e96611826565b90506000815111610eb65760405180602001604052806000815250610ee1565b80610ec084611835565b604051602001610ed1929190612413565b6040516020818303038152906040525b9392505050565b610f406040518061014001604052806060815260200160608152602001606081526020016060815260200160008152602001600015158152602001600081526020016000815260200160008152602001600081525090565b6000828152600260205260409020546001600160a01b0316610f9b5760405162461bcd60e51b8152602060048201526014602482015273151bdad95b88191bd95cc81b9bdd08195e1a5cdd60621b6044820152606401610543565b6000828152600960205260409081902081516101408101909252805482908290610fc49061218c565b80601f0160208091040260200160405190810160405280929190818152602001828054610ff09061218c565b801561103d5780601f106110125761010080835404028352916020019161103d565b820191906000526020600020905b81548152906001019060200180831161102057829003601f168201915b505050505081526020016001820180546110569061218c565b80601f01602080910402602001604051908101604052809291908181526020018280546110829061218c565b80156110cf5780601f106110a4576101008083540402835291602001916110cf565b820191906000526020600020905b8154815290600101906020018083116110b257829003601f168201915b505050505081526020016002820180546110e89061218c565b80601f01602080910402602001604051908101604052809291908181526020018280546111149061218c565b80156111615780601f1061113657610100808354040283529160200191611161565b820191906000526020600020905b81548152906001019060200180831161114457829003601f168201915b5050505050815260200160038201805461117a9061218c565b80601f01602080910402602001604051908101604052809291908181526020018280546111a69061218c565b80156111f35780601f106111c8576101008083540402835291602001916111f3565b820191906000526020600020905b8154815290600101906020018083116111d657829003601f168201915b505050918352505060048201546020820152600582015460ff16151560408201526006820154606082015260078201546080820152600882015460a082015260099091015460c09091015292915050565b6001600160a01b03918216600090815260056020908152604080832093909416825291909152205460ff1690565b61127a6113c8565b6001600160a01b0381166112df5760405162461bcd60e51b815260206004820152602660248201527f4f776e61626c653a206e6577206f776e657220697320746865207a65726f206160448201526564647265737360d01b6064820152608401610543565b6112e8816116d3565b50565b6112f36113c8565b6000818152600260205260409020546001600160a01b031661134e5760405162461bcd60e51b8152602060048201526014602482015273151bdad95b88191bd95cc81b9bdd08195e1a5cdd60621b6044820152606401610543565b6000908152600960205260409020600501805460ff19169055565b6000818152600260205260409020546001600160a01b03166112e85760405162461bcd60e51b8152602060048201526018602482015277115490cdcc8c4e881a5b9d985b1a59081d1bdad95b88125160421b6044820152606401610543565b6006546001600160a01b03163314610b7e5760405162461bcd60e51b815260206004820181905260248201527f4f776e61626c653a2063616c6c6572206973206e6f7420746865206f776e65726044820152606401610543565b6002600754036114745760405162461bcd60e51b815260206004820152601f60248201527f5265656e7472616e637947756172643a207265656e7472616e742063616c6c006044820152606401610543565b6002600755565b610a828282604051806020016040528060008152506118c8565b600081815260046020526040902080546001600160a01b0319166001600160a01b03841690811790915581906114ca82610a86565b6001600160a01b03167f8c5be1e5ebec7d5bd14f71427d1e84f3dd0314c0f7b2291e5b200ac8c7c3b92560405160405180910390a45050565b60008061150f83610a86565b9050806001600160a01b0316846001600160a01b0316148061153657506115368185611244565b8061155a5750836001600160a01b031661154f846104a7565b6001600160a01b0316145b949350505050565b826001600160a01b031661157582610a86565b6001600160a01b03161461159b5760405162461bcd60e51b815260040161054390612442565b6001600160a01b0382166115fd5760405162461bcd60e51b8152602060048201526024808201527f4552433732313a207472616e7366657220746f20746865207a65726f206164646044820152637265737360e01b6064820152608401610543565b61160a83838360016118fb565b826001600160a01b031661161d82610a86565b6001600160a01b0316146116435760405162461bcd60e51b815260040161054390612442565b600081815260046020908152604080832080546001600160a01b03199081169091556001600160a01b0387811680865260038552838620805460001901905590871680865283862080546001019055868652600290945282852080549092168417909155905184937fddf252ad1be2c89b69c2b068fc378daa952ba7f163c4a11628f55a4df523b3ef91a4505050565b600680546001600160a01b038381166001600160a01b0319831681179093556040519116919082907f8be0079c531659141344cd1fd0a4f28419497f9722a3daafe3b4186f6b6457e090600090a35050565b816001600160a01b0316836001600160a01b0316036117865760405162461bcd60e51b815260206004820152601960248201527f4552433732313a20617070726f766520746f2063616c6c6572000000000000006044820152606401610543565b6001600160a01b03838116600081815260056020908152604080832094871680845294825291829020805460ff191686151590811790915591519182527f17307eab39ab6107e8899845ad3d59bd9653f200f220920489ca2b5937696c31910160405180910390a3505050565b6117fe848484611562565b61180a84848484611977565b610e7b5760405162461bcd60e51b815260040161054390612487565b6060600c80546104249061218c565b6060600061184283611a78565b600101905060008167ffffffffffffffff81111561186257611862611db4565b6040519080825280601f01601f19166020018201604052801561188c576020820181803683370190505b5090508181016020015b600019016f181899199a1a9b1b9c1cb0b131b232b360811b600a86061a8153600a850494508461189657509392505050565b6118d28383611b50565b6118df6000848484611977565b6107645760405162461bcd60e51b815260040161054390612487565b6001600160a01b038416158061191857506001600160a01b038316155b6119725760405162461bcd60e51b815260206004820152602560248201527f4461746120576561766572204e46547320617265206e6f6e2d7472616e7366656044820152647261626c6560d81b6064820152608401610543565b610e7b565b60006001600160a01b0384163b15611a6d57604051630a85bd0160e11b81526001600160a01b0385169063150b7a02906119bb9033908990889088906004016124d9565b6020604051808303816000875af19250505080156119f6575060408051601f3d908101601f191682019092526119f391810190612516565b60015b611a53573d808015611a24576040519150601f19603f3d011682016040523d82523d6000602084013e611a29565b606091505b508051600003611a4b5760405162461bcd60e51b815260040161054390612487565b805181602001fd5b6001600160e01b031916630a85bd0160e11b14905061155a565b506001949350505050565b60008072184f03e93ff9f4daa797ed6e38ed64bf6a1f0160401b8310611ab75772184f03e93ff9f4daa797ed6e38ed64bf6a1f0160401b830492506040015b6d04ee2d6d415b85acef81000000008310611ae3576d04ee2d6d415b85acef8100000000830492506020015b662386f26fc100008310611b0157662386f26fc10000830492506010015b6305f5e1008310611b19576305f5e100830492506008015b6127108310611b2d57612710830492506004015b60648310611b3f576064830492506002015b600a831061040f5760010192915050565b6001600160a01b038216611ba65760405162461bcd60e51b815260206004820181905260248201527f4552433732313a206d696e7420746f20746865207a65726f20616464726573736044820152606401610543565b6000818152600260205260409020546001600160a01b031615611c0b5760405162461bcd60e51b815260206004820152601c60248201527f4552433732313a20746f6b656e20616c7265616479206d696e746564000000006044820152606401610543565b611c196000838360016118fb565b6000818152600260205260409020546001600160a01b031615611c7e5760405162461bcd60e51b815260206004820152601c60248201527f4552433732313a20746f6b656e20616c7265616479206d696e746564000000006044820152606401610543565b6001600160a01b038216600081815260036020908152604080832080546001019055848352600290915280822080546001600160a01b0319168417905551839291907fddf252ad1be2c89b69c2b068fc378daa952ba7f163c4a11628f55a4df523b3ef908290a45050565b6001600160e01b0319811681146112e857600080fd5b600060208284031215611d1157600080fd5b8135610ee181611ce9565b60005b83811015611d37578181015183820152602001611d1f565b50506000910152565b60008151808452611d58816020860160208601611d1c565b601f01601f19169290920160200192915050565b602081526000610ee16020830184611d40565b600060208284031215611d9157600080fd5b5035919050565b80356001600160a01b0381168114611daf57600080fd5b919050565b634e487b7160e01b600052604160045260246000fd5b600067ffffffffffffffff80841115611de557611de5611db4565b604051601f8501601f19908116603f01168101908282118183101715611e0d57611e0d611db4565b81604052809350858152868686011115611e2657600080fd5b858560208301376000602087830101525050509392505050565b600082601f830112611e5157600080fd5b610ee183833560208501611dca565b600080600060608486031215611e7557600080fd5b611e7e84611d98565b9250602084013567ffffffffffffffff80821115611e9b57600080fd5b611ea787838801611e40565b93506040860135915080821115611ebd57600080fd5b50611eca86828701611e40565b9150509250925092565b60008060408385031215611ee757600080fd5b611ef083611d98565b946020939093013593505050565b600080600060608486031215611f1357600080fd5b611f1c84611d98565b9250611f2a60208501611d98565b9150604084013590509250925092565b60008060408385031215611f4d57600080fd5b823567ffffffffffffffff811115611f6457600080fd5b611f7085828601611e40565b95602094909401359450505050565b600060208284031215611f9157600080fd5b813567ffffffffffffffff811115611fa857600080fd5b61155a84828501611e40565b600060208284031215611fc657600080fd5b610ee182611d98565b60008060408385031215611fe257600080fd5b611feb83611d98565b91506020830135801515811461200057600080fd5b809150509250929050565b6000806000806080858703121561202157600080fd5b61202a85611d98565b935061203860208601611d98565b925060408501359150606085013567ffffffffffffffff81111561205b57600080fd5b8501601f8101871361206c57600080fd5b61207b87823560208401611dca565b91505092959194509250565b60208152600082516101408060208501526120a6610160850183611d40565b91506020850151601f19808685030160408701526120c48483611d40565b935060408701519150808685030160608701526120e18483611d40565b93506060870151915080868503016080870152506120ff8382611d40565b925050608085015160a085015260a085015161211f60c086018215159052565b5060c085015160e0858101919091528501516101008086019190915285015161012080860191909152909401519390920192909252919050565b6000806040838503121561216c57600080fd5b61217583611d98565b915061218360208401611d98565b90509250929050565b600181811c908216806121a057607f821691505b6020821081036121c057634e487b7160e01b600052602260045260246000fd5b50919050565b601f82111561076457600081815260208120601f850160051c810160208610156121ed5750805b601f850160051c820191505b8181101561220c578281556001016121f9565b505050505050565b815167ffffffffffffffff81111561222e5761222e611db4565b6122428161223c845461218c565b846121c6565b602080601f831160018114612277576000841561225f5750858301515b600019600386901b1c1916600185901b17855561220c565b600085815260208120601f198616915b828110156122a657888601518255948401946001909101908401612287565b50858210156122c45787850151600019600388901b60f8161c191681555b5050505050600190811b01905550565b6020808252602d908201527f4552433732313a2063616c6c6572206973206e6f7420746f6b656e206f776e6560408201526c1c881bdc88185c1c1c9bdd9959609a1b606082015260800190565b6020808252818101527f506c6179657220646f6573206e6f742068617665204461746120576561766572604082015260600190565b60208082526019908201527f4461746120576561766572206973206e6f742061637469766500000000000000604082015260600190565b634e487b7160e01b600052601160045260246000fd5b6000600182016123b5576123b561238d565b5060010190565b6000826123d957634e487b7160e01b600052601260045260246000fd5b500490565b8082018082111561040f5761040f61238d565b6040815260006124046040830185611d40565b90508260208301529392505050565b60008351612425818460208801611d1c565b835190830190612439818360208801611d1c565b01949350505050565b60208082526025908201527f4552433732313a207472616e736665722066726f6d20696e636f72726563742060408201526437bbb732b960d91b606082015260800190565b60208082526032908201527f4552433732313a207472616e7366657220746f206e6f6e20455243373231526560408201527131b2b4bb32b91034b6b83632b6b2b73a32b960711b606082015260800190565b6001600160a01b038581168252841660208201526040810183905260806060820181905260009061250c90830184611d40565b9695505050505050565b60006020828403121561252857600080fd5b8151610ee181611ce956fea26469706673582212201e4b271dfa450fd14c7ad7313eb5759ad648fe6e97926fbcff5e76af4b1e7db764736f6c63430008130033",
  "linkReferences": {},
  "deployedLinkReferences": {}
}