{
  "_format": "hh-sol-artifact-1",
  "contractName": "LiskSocialArchitectUnlimited",
  "sourceName": "contracts/LiskSocialArchitectUnlimited.sol",
  "abi": [
    {
      "inputs": [],
      "stateMutability": "nonpayable",
      "type": "constructor"
    },
    {
      "anonymous": false,
      "inputs": [
        {
          "indexed": true,
          "internalType": "address",
          "name": "owner",
          "type": "address"
        },
        {
          "indexed": true,
          "internalType": "address",
          "name": "approved",
          "type": "address"
        },
        {
          "indexed": true,
          "internalType": "uint256",
          "name": "tokenId",
          "type": "uint256"
        }
      ],
      "name": "Approval",
      "type": "event"
    },
    {
      "anonymous": false,
      "inputs": [
        {
          "indexed": true,
          "internalType": "address",
          "name": "owner",
          "type": "address"
        },
        {
          "indexed": true,
          "internalType": "address",
          "name": "operator",
          "type": "address"
        },
        {
          "indexed": false,
          "internalType": "bool",
          "name": "approved",
          "type": "bool"
        }
      ],
      "name": "ApprovalForAll",
      "type": "event"
    },
    {
      "anonymous": false,
      "inputs": [
        {
          "indexed": true,
          "internalType": "address",
          "name": "player",
          "type": "address"
        },
        {
          "indexed": true,
          "internalType": "uint256",
          "name": "tokenId",
          "type": "uint256"
        },
        {
          "indexed": false,
          "internalType": "uint256",
          "name": "newScore",
          "type": "uint256"
        }
      ],
      "name": "CommunityScoreUpdated",
      "type": "event"
    },
    {
      "anonymous": false,
      "inputs": [
        {
          "indexed": true,
          "internalType": "address",
          "name": "player",
          "type": "address"
        },
        {
          "indexed": true,
          "internalType": "uint256",
          "name": "tokenId",
          "type": "uint256"
        },
        {
          "indexed": false,
          "internalType": "address",
          "name": "connectedPlayer",
          "type": "address"
        }
      ],
      "name": "ConnectionMade",
      "type": "event"
    },
    {
      "anonymous": false,
      "inputs": [
        {
          "indexed": true,
          "internalType": "address",
          "name": "previousOwner",
          "type": "address"
        },
        {
          "indexed": true,
          "internalType": "address",
          "name": "newOwner",
          "type": "address"
        }
      ],
      "name": "OwnershipTransferred",
      "type": "event"
    },
    {
      "anonymous": false,
      "inputs": [
        {
          "indexed": true,
          "internalType": "address",
          "name": "player",
          "type": "address"
        },
        {
          "indexed": true,
          "internalType": "uint256",
          "name": "tokenId",
          "type": "uint256"
        },
        {
          "indexed": false,
          "internalType": "string",
          "name": "protocolName",
          "type": "string"
        },
        {
          "indexed": false,
          "internalType": "uint256",
          "name": "complexity",
          "type": "uint256"
        }
      ],
      "name": "ProtocolBuilt",
      "type": "event"
    },
    {
      "anonymous": false,
      "inputs": [
        {
          "indexed": true,
          "internalType": "address",
          "name": "player",
          "type": "address"
        },
        {
          "indexed": true,
          "internalType": "uint256",
          "name": "tokenId",
          "type": "uint256"
        },
        {
          "indexed": false,
          "internalType": "string",
          "name": "name",
          "type": "string"
        }
      ],
      "name": "SocialArchitectMinted",
      "type": "event"
    },
    {
      "anonymous": false,
      "inputs": [
        {
          "indexed": true,
          "internalType": "address",
          "name": "from",
          "type": "address"
        },
        {
          "indexed": true,
          "internalType": "address",
          "name": "to",
          "type": "address"
        },
        {
          "indexed": true,
          "internalType": "uint256",
          "name": "tokenId",
          "type": "uint256"
        }
      ],
      "name": "Transfer",
      "type": "event"
    },
    {
      "inputs": [
        {
          "internalType": "address",
          "name": "to",
          "type": "address"
        },
        {
          "internalType": "uint256",
          "name": "tokenId",
          "type": "uint256"
        }
      ],
      "name": "approve",
      "outputs": [],
      "stateMutability": "nonpayable",
      "type": "function"
    },
    {
      "inputs": [
        {
          "internalType": "address",
          "name": "owner",
          "type": "address"
        }
      ],
      "name": "balanceOf",
      "outputs": [
        {
          "internalType": "uint256",
          "name": "",
          "type": "uint256"
        }
      ],
      "stateMutability": "view",
      "type": "function"
    },
    {
      "inputs": [
        {
          "internalType": "string",
          "name": "protocolName",
          "type": "string"
        },
        {
          "internalType": "uint256",
          "name": "complexity",
          "type": "uint256"
        }
      ],
      "name": "buildProtocol",
      "outputs": [],
      "stateMutability": "nonpayable",
      "type": "function"
    },
    {
      "inputs": [
        {
          "internalType": "uint256",
          "name": "tokenId",
          "type": "uint256"
        }
      ],
      "name": "deactivateSocialArchitect",
      "outputs": [],
      "stateMutability": "nonpayable",
      "type": "function"
    },
    {
      "inputs": [
        {
          "internalType": "uint256",
          "name": "tokenId",
          "type": "uint256"
        }
      ],
      "name": "getApproved",
      "outputs": [
        {
          "internalType": "address",
          "name": "",
          "type": "address"
        }
      ],
      "stateMutability": "view",
      "type": "function"
    },
    {
      "inputs": [
        {
          "internalType": "address",
          "name": "player",
          "type": "address"
        }
      ],
      "name": "getPlayerSocialArchitect",
      "outputs": [
        {
          "internalType": "uint256",
          "name": "",
          "type": "uint256"
        }
      ],
      "stateMutability": "view",
      "type": "function"
    },
    {
      "inputs": [
        {
          "internalType": "uint256",
          "name": "tokenId",
          "type": "uint256"
        }
      ],
      "name": "getSocialArchitectData",
      "outputs": [
        {
          "components": [
            {
              "internalType": "string",
              "name": "name",
              "type": "string"
            },
            {
              "internalType": "string",
              "name": "title",
              "type": "string"
            },
            {
              "internalType": "string",
              "name": "realm",
              "type": "string"
            },
            {
              "internalType": "string",
              "name": "rarity",
              "type": "string"
            },
            {
              "internalType": "uint256",
              "name": "mintedAt",
              "type": "uint256"
            },
            {
              "internalType": "bool",
              "name": "isActive",
              "type": "bool"
            },
            {
              "internalType": "uint256",
              "name": "communityScore",
              "type": "uint256"
            },
            {
              "internalType": "uint256",
              "name": "protocolsBuilt",
              "type": "uint256"
            },
            {
              "internalType": "uint256",
              "name": "connectionsMade",
              "type": "uint256"
            }
          ],
          "internalType": "struct LiskSocialArchitectUnlimited.SocialArchitectData",
          "name": "",
          "type": "tuple"
        }
      ],
      "stateMutability": "view",
      "type": "function"
    },
    {
      "inputs": [
        {
          "internalType": "address",
          "name": "player",
          "type": "address"
        }
      ],
      "name": "hasSocialArchitect",
      "outputs": [
        {
          "internalType": "bool",
          "name": "",
          "type": "bool"
        }
      ],
      "stateMutability": "view",
      "type": "function"
    },
    {
      "inputs": [
        {
          "internalType": "address",
          "name": "owner",
          "type": "address"
        },
        {
          "internalType": "address",
          "name": "operator",
          "type": "address"
        }
      ],
      "name": "isApprovedForAll",
      "outputs": [
        {
          "internalType": "bool",
          "name": "",
          "type": "bool"
        }
      ],
      "stateMutability": "view",
      "type": "function"
    },
    {
      "inputs": [
        {
          "internalType": "address",
          "name": "connectedPlayer",
          "type": "address"
        }
      ],
      "name": "makeConnection",
      "outputs": [],
      "stateMutability": "nonpayable",
      "type": "function"
    },
    {
      "inputs": [
        {
          "internalType": "address",
          "name": "player",
          "type": "address"
        },
        {
          "internalType": "string",
          "name": "name",
          "type": "string"
        },
        {
          "internalType": "string",
          "name": "title",
          "type": "string"
        }
      ],
      "name": "mintSocialArchitect",
      "outputs": [],
      "stateMutability": "nonpayable",
      "type": "function"
    },
    {
      "inputs": [],
      "name": "name",
      "outputs": [
        {
          "internalType": "string",
          "name": "",
          "type": "string"
        }
      ],
      "stateMutability": "view",
      "type": "function"
    },
    {
      "inputs": [],
      "name": "owner",
      "outputs": [
        {
          "internalType": "address",
          "name": "",
          "type": "address"
        }
      ],
      "stateMutability": "view",
      "type": "function"
    },
    {
      "inputs": [
        {
          "internalType": "uint256",
          "name": "tokenId",
          "type": "uint256"
        }
      ],
      "name": "ownerOf",
      "outputs": [
        {
          "internalType": "address",
          "name": "",
          "type": "address"
        }
      ],
      "stateMutability": "view",
      "type": "function"
    },
    {
      "inputs": [
        {
          "internalType": "string",
          "name": "name",
          "type": "string"
        },
        {
          "internalType": "string",
          "name": "title",
          "type": "string"
        }
      ],
      "name": "publicMint",
      "outputs": [],
      "stateMutability": "nonpayable",
      "type": "function"
    },
    {
      "inputs": [],
      "name": "renounceOwnership",
      "outputs": [],
      "stateMutability": "nonpayable",
      "type": "function"
    },
    {
      "inputs": [
        {
          "internalType": "address",
          "name": "from",
          "type": "address"
        },
        {
          "internalType": "address",
          "name": "to",
          "type": "address"
        },
        {
          "internalType": "uint256",
          "name": "tokenId",
          "type": "uint256"
        }
      ],
      "name": "safeTransferFrom",
      "outputs": [],
      "stateMutability": "nonpayable",
      "type": "function"
    },
    {
      "inputs": [
        {
          "internalType": "address",
          "name": "from",
          "type": "address"
        },
        {
          "internalType": "address",
          "name": "to",
          "type": "address"
        },
        {
          "internalType": "uint256",
          "name": "tokenId",
          "type": "uint256"
        },
        {
          "internalType": "bytes",
          "name": "data",
          "type": "bytes"
        }
      ],
      "name": "safeTransferFrom",
      "outputs": [],
      "stateMutability": "nonpayable",
      "type": "function"
    },
    {
      "inputs": [
        {
          "internalType": "address",
          "name": "operator",
          "type": "address"
        },
        {
          "internalType": "bool",
          "name": "approved",
          "type": "bool"
        }
      ],
      "name": "setApprovalForAll",
      "outputs": [],
      "stateMutability": "nonpayable",
      "type": "function"
    },
    {
      "inputs": [
        {
          "internalType": "string",
          "name": "baseURI",
          "type": "string"
        }
      ],
      "name": "setBaseURI",
      "outputs": [],
      "stateMutability": "nonpayable",
      "type": "function"
    },
    {
      "inputs": [
        {
          "internalType": "bytes4",
          "name": "interfaceId",
          "type": "bytes4"
        }
      ],
      "name": "supportsInterface",
      "outputs": [
        {
          "internalType": "bool",
          "name": "",
          "type": "bool"
        }
      ],
      "stateMutability": "view",
      "type": "function"
    },
    {
      "inputs": [],
      "name": "symbol",
      "outputs": [
        {
          "internalType": "string",
          "name": "",
          "type": "string"
        }
      ],
      "stateMutability": "view",
      "type": "function"
    },
    {
      "inputs": [
        {
          "internalType": "uint256",
          "name": "tokenId",
          "type": "uint256"
        }
      ],
      "name": "tokenURI",
      "outputs": [
        {
          "internalType": "string",
          "name": "",
          "type": "string"
        }
      ],
      "stateMutability": "view",
      "type": "function"
    },
    {
      "inputs": [],
      "name": "totalSupply",
      "outputs": [
        {
          "internalType": "uint256",
          "name": "",
          "type": "uint256"
        }
      ],
      "stateMutability": "view",
      "type": "function"
    },
    {
      "inputs": [
        {
          "internalType": "address",
          "name": "from",
          "type": "address"
        },
        {
          "internalType": "address",
          "name": "to",
          "type": "address"
        },
        {
          "internalType": "uint256",
          "name": "tokenId",
          "type": "uint256"
        }
      ],
      "name": "transferFrom",
      "outputs": [],
      "stateMutability": "nonpayable",
      "type": "function"
    },
    {
      "inputs": [
        {
          "internalType": "address",
          "name": "newOwner",
          "type": "address"
        }
      ],
      "name": "transferOwnership",
      "outputs": [],
      "stateMutability": "nonpayable",
      "type": "function"
    }
  ],
  "bytecode": "0x60806040523480156200001157600080fd5b506040518060400160405280601f81526020017f4c69736b20536f6369616c2041726368697465637420556e6c696d697465640081525060405180604001604052806008815260200167534f4349414c2d5560c01b81525081600090816200007a9190620001f0565b506001620000898282620001f0565b505050620000a6620000a0620000f560201b60201c565b620000f9565b600160075560408051808201909152601581527f68747470733a2f2f697066732e696f2f697066732f00000000000000000000006020820152600c90620000ee9082620001f0565b50620002bc565b3390565b600680546001600160a01b038381166001600160a01b0319831681179093556040519116919082907f8be0079c531659141344cd1fd0a4f28419497f9722a3daafe3b4186f6b6457e090600090a35050565b634e487b7160e01b600052604160045260246000fd5b600181811c908216806200017657607f821691505b6020821081036200019757634e487b7160e01b600052602260045260246000fd5b50919050565b601f821115620001eb57600081815260208120601f850160051c81016020861015620001c65750805b601f850160051c820191505b81811015620001e757828155600101620001d2565b5050505b505050565b81516001600160401b038111156200020c576200020c6200014b565b62000224816200021d845462000161565b846200019d565b602080601f8311600181146200025c5760008415620002435750858301515b600019600386901b1c1916600185901b178555620001e7565b600085815260208120601f198616915b828110156200028d578886015182559484019460019091019084016200026c565b5085821015620002ac5787850151600019600388901b60f8161c191681555b5050505050600190811b01905550565b61274f80620002cc6000396000f3fe608060405234801561001057600080fd5b506004361061018e5760003560e01c8063715018a6116100de578063acb3d1a111610097578063c87b56dd11610071578063c87b56dd14610377578063e7f757f91461038a578063e985e9c51461039d578063f2fde38b146103b057600080fd5b8063acb3d1a114610325578063b88d4fde14610351578063c70e406c1461036457600080fd5b8063715018a6146102be578063809b9b40146102c65780638da5cb5b146102d957806395d89b41146102ea578063a22cb465146102f2578063a8b79a401461030557600080fd5b806323b872dd1161014b57806355f804b31161012557806355f804b3146102725780636352211e14610285578063659af2001461029857806370a08231146102ab57600080fd5b806323b872dd1461023957806332e62c941461024c57806342842e0e1461025f57600080fd5b806301ffc9a71461019357806306fdde03146101bb578063081812fc146101d0578063095ea7b3146101fb5780631364cdaa1461021057806318160ddd14610223575b600080fd5b6101a66101a1366004611e7d565b6103c3565b60405190151581526020015b60405180910390f35b6101c3610415565b6040516101b29190611eea565b6101e36101de366004611efd565b6104a7565b6040516001600160a01b0390911681526020016101b2565b61020e610209366004611f32565b6104ce565b005b61020e61021e366004612008565b6105e8565b61022b610835565b6040519081526020016101b2565b61020e61024736600461207c565b610845565b61020e61025a3660046120b8565b610876565b61020e61026d36600461207c565b610a5f565b61020e61028036600461211c565b610a7a565b6101e3610293366004611efd565b610a8e565b61022b6102a6366004612151565b610aee565b61022b6102b9366004612151565b610b42565b61020e610bc8565b61020e6102d4366004612151565b610bdc565b6006546001600160a01b03166101e3565b6101c3610de9565b61020e61030036600461216c565b610df8565b610318610313366004611efd565b610e03565b6040516101b291906121a8565b6101a6610333366004612151565b6001600160a01b03166000908152600b602052604090205460ff1690565b61020e61035f36600461226d565b61114e565b61020e6103723660046122e9565b611186565b6101c3610385366004611efd565b61135e565b61020e610398366004611efd565b6113c5565b6101a66103ab36600461232e565b611443565b61020e6103be366004612151565b611471565b60006001600160e01b031982166380ac58cd60e01b14806103f457506001600160e01b03198216635b5e139f60e01b145b8061040f57506301ffc9a760e01b6001600160e01b03198316145b92915050565b60606000805461042490612361565b80601f016020809104026020016040519081016040528092919081815260200182805461045090612361565b801561049d5780601f106104725761010080835404028352916020019161049d565b820191906000526020600020905b81548152906001019060200180831161048057829003601f168201915b5050505050905090565b60006104b2826114ea565b506000908152600460205260409020546001600160a01b031690565b60006104d982610a8e565b9050806001600160a01b0316836001600160a01b03160361054b5760405162461bcd60e51b815260206004820152602160248201527f4552433732313a20617070726f76616c20746f2063757272656e74206f776e656044820152603960f91b60648201526084015b60405180910390fd5b336001600160a01b038216148061056757506105678133611443565b6105d95760405162461bcd60e51b815260206004820152603d60248201527f4552433732313a20617070726f76652063616c6c6572206973206e6f7420746f60448201527f6b656e206f776e6572206f7220617070726f76656420666f7220616c6c0000006064820152608401610542565b6105e38383611549565b505050565b6105f06115b7565b6105f8611611565b6001600160a01b0383166000908152600b602052604090205460ff16156106315760405162461bcd60e51b81526004016105429061239b565b6001600160a01b0383166106805760405162461bcd60e51b8152602060048201526016602482015275496e76616c696420706c61796572206164647265737360501b6044820152606401610542565b61068e600880546001019055565b600061069960085490565b60408051610120810182528581526020808201869052825180840184526004808252634c69736b60e01b828401528385019190915283518085018552908152634570696360e01b818301526060830152426080830152600160a0830152606460c0830152600060e08301819052610100830181905284815260099091529190912081519293509091819061072d908261242c565b5060208201516001820190610742908261242c565b5060408201516002820190610757908261242c565b506060820151600382019061076c908261242c565b506080820151600482015560a082015160058201805491151560ff1992831617905560c0830151600683015560e08301516007830155610100909201516008909101556001600160a01b0385166000908152600a60209081526040808320859055600b9091529020805490911660011790556107e8848261166a565b80846001600160a01b03167f1d161dff2bbbe0d68507b039d9e20ae8e8c4e29302c421e2e134eea73ff1f3f6856040516108229190611eea565b60405180910390a3506105e36001600755565b600061084060085490565b905090565b61084f3382611684565b61086b5760405162461bcd60e51b8152600401610542906124ec565b6105e38383836116e3565b61087e611611565b336000908152600b602052604090205460ff16156108ae5760405162461bcd60e51b81526004016105429061239b565b6108bc600880546001019055565b60006108c760085490565b60408051610120810182528581526020808201869052825180840184526004808252634c69736b60e01b828401528385019190915283518085018552908152634570696360e01b818301526060830152426080830152600160a0830152606460c0830152600060e08301819052610100830181905284815260099091529190912081519293509091819061095b908261242c565b5060208201516001820190610970908261242c565b5060408201516002820190610985908261242c565b506060820151600382019061099a908261242c565b506080820151600482015560a082015160058201805491151560ff1992831617905560c0830151600683015560e0830151600783015561010090920151600890910155336000818152600a60209081526040808320869055600b90915290208054909216600117909155610a0e908261166a565b80336001600160a01b03167f1d161dff2bbbe0d68507b039d9e20ae8e8c4e29302c421e2e134eea73ff1f3f685604051610a489190611eea565b60405180910390a350610a5b6001600755565b5050565b6105e38383836040518060200160405280600081525061114e565b610a826115b7565b600c610a5b828261242c565b6000818152600260205260408120546001600160a01b03168061040f5760405162461bcd60e51b8152602060048201526018602482015277115490cdcc8c4e881a5b9d985b1a59081d1bdad95b88125160421b6044820152606401610542565b6001600160a01b0381166000908152600b602052604081205460ff16610b265760405162461bcd60e51b815260040161054290612539565b506001600160a01b03166000908152600a602052604090205490565b60006001600160a01b038216610bac5760405162461bcd60e51b815260206004820152602960248201527f4552433732313a2061646472657373207a65726f206973206e6f7420612076616044820152683634b21037bbb732b960b91b6064820152608401610542565b506001600160a01b031660009081526003602052604090205490565b610bd06115b7565b610bda6000611854565b565b336000908152600b602052604090205460ff16610c0b5760405162461bcd60e51b815260040161054290612539565b336001600160a01b03821603610c635760405162461bcd60e51b815260206004820152601a60248201527f43616e6e6f7420636f6e6e65637420746f20796f757273656c660000000000006044820152606401610542565b6001600160a01b038116610cb95760405162461bcd60e51b815260206004820181905260248201527f496e76616c696420636f6e6e656374656420706c6179657220616464726573736044820152606401610542565b336000908152600a60209081526040808320548084526009909252909120600581015460ff16610d2b5760405162461bcd60e51b815260206004820152601e60248201527f536f6369616c20417263686974656374206973206e6f742061637469766500006044820152606401610542565b600881018054906000610d3d83612594565b9190505550600a816006016000828254610d5791906125ad565b90915550506040516001600160a01b0384168152829033907f5d8210a1f1955c886795d51b809c465603765a56c3878b5cff85c1c672b84c549060200160405180910390a381336001600160a01b03167f7681c9bc4703daadfdfbfae0bd1c828b4619e58101f0e8a5404f70e93c6286638360060154604051610ddc91815260200190565b60405180910390a3505050565b60606001805461042490612361565b610a5b3383836118a6565b610e5460405180610120016040528060608152602001606081526020016060815260200160608152602001600081526020016000151581526020016000815260200160008152602001600081525090565b6000828152600260205260409020546001600160a01b0316610eaf5760405162461bcd60e51b8152602060048201526014602482015273151bdad95b88191bd95cc81b9bdd08195e1a5cdd60621b6044820152606401610542565b6000828152600960205260409081902081516101208101909252805482908290610ed890612361565b80601f0160208091040260200160405190810160405280929190818152602001828054610f0490612361565b8015610f515780601f10610f2657610100808354040283529160200191610f51565b820191906000526020600020905b815481529060010190602001808311610f3457829003601f168201915b50505050508152602001600182018054610f6a90612361565b80601f0160208091040260200160405190810160405280929190818152602001828054610f9690612361565b8015610fe35780601f10610fb857610100808354040283529160200191610fe3565b820191906000526020600020905b815481529060010190602001808311610fc657829003601f168201915b50505050508152602001600282018054610ffc90612361565b80601f016020809104026020016040519081016040528092919081815260200182805461102890612361565b80156110755780601f1061104a57610100808354040283529160200191611075565b820191906000526020600020905b81548152906001019060200180831161105857829003601f168201915b5050505050815260200160038201805461108e90612361565b80601f01602080910402602001604051908101604052809291908181526020018280546110ba90612361565b80156111075780601f106110dc57610100808354040283529160200191611107565b820191906000526020600020905b8154815290600101906020018083116110ea57829003601f168201915b505050918352505060048201546020820152600582015460ff1615156040820152600682015460608201526007820154608082015260089091015460a09091015292915050565b6111583383611684565b6111745760405162461bcd60e51b8152600401610542906124ec565b6111808484848461196c565b50505050565b336000908152600b602052604090205460ff166111b55760405162461bcd60e51b815260040161054290612539565b600181101580156111c75750600a8111155b61121f5760405162461bcd60e51b815260206004820152602360248201527f436f6d706c6578697479206d757374206265206265747765656e203120616e6460448201526202031360ec1b6064820152608401610542565b336000908152600a60209081526040808320548084526009909252909120600581015460ff166112915760405162461bcd60e51b815260206004820152601e60248201527f536f6369616c20417263686974656374206973206e6f742061637469766500006044820152606401610542565b6007810180549060006112a383612594565b90915550600090506112b68460056125c0565b9050808260060160008282546112cc91906125ad565b9091555050604051839033907f7745ff3790f238e0d432a3f5c24246719e79505291b332cac73c95f7f4d202a29061130790899089906125d7565b60405180910390a382336001600160a01b03167f7681c9bc4703daadfdfbfae0bd1c828b4619e58101f0e8a5404f70e93c628663846006015460405161134f91815260200190565b60405180910390a35050505050565b6060611369826114ea565b600061137361199f565b9050600081511161139357604051806020016040528060008152506113be565b8061139d846119ae565b6040516020016113ae9291906125f9565b6040516020818303038152906040525b9392505050565b6113cd6115b7565b6000818152600260205260409020546001600160a01b03166114285760405162461bcd60e51b8152602060048201526014602482015273151bdad95b88191bd95cc81b9bdd08195e1a5cdd60621b6044820152606401610542565b6000908152600960205260409020600501805460ff19169055565b6001600160a01b03918216600090815260056020908152604080832093909416825291909152205460ff1690565b6114796115b7565b6001600160a01b0381166114de5760405162461bcd60e51b815260206004820152602660248201527f4f776e61626c653a206e6577206f776e657220697320746865207a65726f206160448201526564647265737360d01b6064820152608401610542565b6114e781611854565b50565b6000818152600260205260409020546001600160a01b03166114e75760405162461bcd60e51b8152602060048201526018602482015277115490cdcc8c4e881a5b9d985b1a59081d1bdad95b88125160421b6044820152606401610542565b600081815260046020526040902080546001600160a01b0319166001600160a01b038416908117909155819061157e82610a8e565b6001600160a01b03167f8c5be1e5ebec7d5bd14f71427d1e84f3dd0314c0f7b2291e5b200ac8c7c3b92560405160405180910390a45050565b6006546001600160a01b03163314610bda5760405162461bcd60e51b815260206004820181905260248201527f4f776e61626c653a2063616c6c6572206973206e6f7420746865206f776e65726044820152606401610542565b6002600754036116635760405162461bcd60e51b815260206004820152601f60248201527f5265656e7472616e637947756172643a207265656e7472616e742063616c6c006044820152606401610542565b6002600755565b610a5b828260405180602001604052806000815250611a41565b60008061169083610a8e565b9050806001600160a01b0316846001600160a01b031614806116b757506116b78185611443565b806116db5750836001600160a01b03166116d0846104a7565b6001600160a01b0316145b949350505050565b826001600160a01b03166116f682610a8e565b6001600160a01b03161461171c5760405162461bcd60e51b815260040161054290612628565b6001600160a01b03821661177e5760405162461bcd60e51b8152602060048201526024808201527f4552433732313a207472616e7366657220746f20746865207a65726f206164646044820152637265737360e01b6064820152608401610542565b61178b8383836001611a74565b826001600160a01b031661179e82610a8e565b6001600160a01b0316146117c45760405162461bcd60e51b815260040161054290612628565b600081815260046020908152604080832080546001600160a01b03199081169091556001600160a01b0387811680865260038552838620805460001901905590871680865283862080546001019055868652600290945282852080549092168417909155905184937fddf252ad1be2c89b69c2b068fc378daa952ba7f163c4a11628f55a4df523b3ef91a4505050565b600680546001600160a01b038381166001600160a01b0319831681179093556040519116919082907f8be0079c531659141344cd1fd0a4f28419497f9722a3daafe3b4186f6b6457e090600090a35050565b816001600160a01b0316836001600160a01b0316036119075760405162461bcd60e51b815260206004820152601960248201527f4552433732313a20617070726f766520746f2063616c6c6572000000000000006044820152606401610542565b6001600160a01b03838116600081815260056020908152604080832094871680845294825291829020805460ff191686151590811790915591519182527f17307eab39ab6107e8899845ad3d59bd9653f200f220920489ca2b5937696c319101610ddc565b6119778484846116e3565b61198384848484611af5565b6111805760405162461bcd60e51b81526004016105429061266d565b6060600c805461042490612361565b606060006119bb83611bf6565b600101905060008167ffffffffffffffff8111156119db576119db611f5c565b6040519080825280601f01601f191660200182016040528015611a05576020820181803683370190505b5090508181016020015b600019016f181899199a1a9b1b9c1cb0b131b232b360811b600a86061a8153600a8504945084611a0f57509392505050565b611a4b8383611cce565b611a586000848484611af5565b6105e35760405162461bcd60e51b81526004016105429061266d565b6001600160a01b0384161580611a9157506001600160a01b038316155b611af05760405162461bcd60e51b815260206004820152602a60248201527f536f6369616c20417263686974656374204e46547320617265206e6f6e2d7472604482015269616e7366657261626c6560b01b6064820152608401610542565b611180565b60006001600160a01b0384163b15611beb57604051630a85bd0160e11b81526001600160a01b0385169063150b7a0290611b399033908990889088906004016126bf565b6020604051808303816000875af1925050508015611b74575060408051601f3d908101601f19168201909252611b71918101906126fc565b60015b611bd1573d808015611ba2576040519150601f19603f3d011682016040523d82523d6000602084013e611ba7565b606091505b508051600003611bc95760405162461bcd60e51b81526004016105429061266d565b805181602001fd5b6001600160e01b031916630a85bd0160e11b1490506116db565b506001949350505050565b60008072184f03e93ff9f4daa797ed6e38ed64bf6a1f0160401b8310611c355772184f03e93ff9f4daa797ed6e38ed64bf6a1f0160401b830492506040015b6d04ee2d6d415b85acef81000000008310611c61576d04ee2d6d415b85acef8100000000830492506020015b662386f26fc100008310611c7f57662386f26fc10000830492506010015b6305f5e1008310611c97576305f5e100830492506008015b6127108310611cab57612710830492506004015b60648310611cbd576064830492506002015b600a831061040f5760010192915050565b6001600160a01b038216611d245760405162461bcd60e51b815260206004820181905260248201527f4552433732313a206d696e7420746f20746865207a65726f20616464726573736044820152606401610542565b6000818152600260205260409020546001600160a01b031615611d895760405162461bcd60e51b815260206004820152601c60248201527f4552433732313a20746f6b656e20616c7265616479206d696e746564000000006044820152606401610542565b611d97600083836001611a74565b6000818152600260205260409020546001600160a01b031615611dfc5760405162461bcd60e51b815260206004820152601c60248201527f4552433732313a20746f6b656e20616c7265616479206d696e746564000000006044820152606401610542565b6001600160a01b038216600081815260036020908152604080832080546001019055848352600290915280822080546001600160a01b0319168417905551839291907fddf252ad1be2c89b69c2b068fc378daa952ba7f163c4a11628f55a4df523b3ef908290a45050565b6001600160e01b0319811681146114e757600080fd5b600060208284031215611e8f57600080fd5b81356113be81611e67565b60005b83811015611eb5578181015183820152602001611e9d565b50506000910152565b60008151808452611ed6816020860160208601611e9a565b601f01601f19169290920160200192915050565b6020815260006113be6020830184611ebe565b600060208284031215611f0f57600080fd5b5035919050565b80356001600160a01b0381168114611f2d57600080fd5b919050565b60008060408385031215611f4557600080fd5b611f4e83611f16565b946020939093013593505050565b634e487b7160e01b600052604160045260246000fd5b600067ffffffffffffffff80841115611f8d57611f8d611f5c565b604051601f8501601f19908116603f01168101908282118183101715611fb557611fb5611f5c565b81604052809350858152868686011115611fce57600080fd5b858560208301376000602087830101525050509392505050565b600082601f830112611ff957600080fd5b6113be83833560208501611f72565b60008060006060848603121561201d57600080fd5b61202684611f16565b9250602084013567ffffffffffffffff8082111561204357600080fd5b61204f87838801611fe8565b9350604086013591508082111561206557600080fd5b5061207286828701611fe8565b9150509250925092565b60008060006060848603121561209157600080fd5b61209a84611f16565b92506120a860208501611f16565b9150604084013590509250925092565b600080604083850312156120cb57600080fd5b823567ffffffffffffffff808211156120e357600080fd5b6120ef86838701611fe8565b9350602085013591508082111561210557600080fd5b5061211285828601611fe8565b9150509250929050565b60006020828403121561212e57600080fd5b813567ffffffffffffffff81111561214557600080fd5b6116db84828501611fe8565b60006020828403121561216357600080fd5b6113be82611f16565b6000806040838503121561217f57600080fd5b61218883611f16565b91506020830135801515811461219d57600080fd5b809150509250929050565b60208152600082516101208060208501526121c7610140850183611ebe565b91506020850151601f19808685030160408701526121e58483611ebe565b935060408701519150808685030160608701526122028483611ebe565b93506060870151915080868503016080870152506122208382611ebe565b925050608085015160a085015260a085015161224060c086018215159052565b5060c085015160e085015260e0850151610100818187015280870151838701525050508091505092915050565b6000806000806080858703121561228357600080fd5b61228c85611f16565b935061229a60208601611f16565b925060408501359150606085013567ffffffffffffffff8111156122bd57600080fd5b8501601f810187136122ce57600080fd5b6122dd87823560208401611f72565b91505092959194509250565b600080604083850312156122fc57600080fd5b823567ffffffffffffffff81111561231357600080fd5b61231f85828601611fe8565b95602094909401359450505050565b6000806040838503121561234157600080fd5b61234a83611f16565b915061235860208401611f16565b90509250929050565b600181811c9082168061237557607f821691505b60208210810361239557634e487b7160e01b600052602260045260246000fd5b50919050565b60208082526023908201527f506c6179657220616c72656164792068617320536f6369616c204172636869746040820152621958dd60ea1b606082015260800190565b601f8211156105e357600081815260208120601f850160051c810160208610156124055750805b601f850160051c820191505b8181101561242457828155600101612411565b505050505050565b815167ffffffffffffffff81111561244657612446611f5c565b61245a816124548454612361565b846123de565b602080601f83116001811461248f57600084156124775750858301515b600019600386901b1c1916600185901b178555612424565b600085815260208120601f198616915b828110156124be5788860151825594840194600190910190840161249f565b50858210156124dc5787850151600019600388901b60f8161c191681555b5050505050600190811b01905550565b6020808252602d908201527f4552433732313a2063616c6c6572206973206e6f7420746f6b656e206f776e6560408201526c1c881bdc88185c1c1c9bdd9959609a1b606082015260800190565b60208082526025908201527f506c6179657220646f6573206e6f74206861766520536f6369616c20417263686040820152641a5d1958dd60da1b606082015260800190565b634e487b7160e01b600052601160045260246000fd5b6000600182016125a6576125a661257e565b5060010190565b8082018082111561040f5761040f61257e565b808202811582820484141761040f5761040f61257e565b6040815260006125ea6040830185611ebe565b90508260208301529392505050565b6000835161260b818460208801611e9a565b83519083019061261f818360208801611e9a565b01949350505050565b60208082526025908201527f4552433732313a207472616e736665722066726f6d20696e636f72726563742060408201526437bbb732b960d91b606082015260800190565b60208082526032908201527f4552433732313a207472616e7366657220746f206e6f6e20455243373231526560408201527131b2b4bb32b91034b6b83632b6b2b73a32b960711b606082015260800190565b6001600160a01b03858116825284166020820152604081018390526080606082018190526000906126f290830184611ebe565b9695505050505050565b60006020828403121561270e57600080fd5b81516113be81611e6756fea26469706673582212205efd9856df223a332212cb6b37bb527ea7369acdfda5c36787786778d1e2b2a164736f6c63430008130033",
  "linkReferences": {},
  "deployedLinkReferences": {}
}