{
  "_format": "hh-sol-artifact-1",
  "contractName": "FlareOracleSeerSimple",
  "sourceName": "contracts/FlareOracleSeerSimple.sol",
  "abi": [
    {
      "inputs": [],
      "stateMutability": "nonpayable",
      "type": "constructor"
    },
    {
      "anonymous": false,
      "inputs": [
        {
          "indexed": true,
          "internalType": "address",
          "name": "owner",
          "type": "address"
        },
        {
          "indexed": true,
          "internalType": "address",
          "name": "approved",
          "type": "address"
        },
        {
          "indexed": true,
          "internalType": "uint256",
          "name": "tokenId",
          "type": "uint256"
        }
      ],
      "name": "Approval",
      "type": "event"
    },
    {
      "anonymous": false,
      "inputs": [
        {
          "indexed": true,
          "internalType": "address",
          "name": "owner",
          "type": "address"
        },
        {
          "indexed": true,
          "internalType": "address",
          "name": "operator",
          "type": "address"
        },
        {
          "indexed": false,
          "internalType": "bool",
          "name": "approved",
          "type": "bool"
        }
      ],
      "name": "ApprovalForAll",
      "type": "event"
    },
    {
      "anonymous": false,
      "inputs": [
        {
          "indexed": true,
          "internalType": "address",
          "name": "player",
          "type": "address"
        },
        {
          "indexed": true,
          "internalType": "uint256",
          "name": "tokenId",
          "type": "uint256"
        },
        {
          "indexed": false,
          "internalType": "string",
          "name": "name",
          "type": "string"
        }
      ],
      "name": "OracleSeerMinted",
      "type": "event"
    },
    {
      "anonymous": false,
      "inputs": [
        {
          "indexed": true,
          "internalType": "address",
          "name": "previousOwner",
          "type": "address"
        },
        {
          "indexed": true,
          "internalType": "address",
          "name": "newOwner",
          "type": "address"
        }
      ],
      "name": "OwnershipTransferred",
      "type": "event"
    },
    {
      "anonymous": false,
      "inputs": [
        {
          "indexed": true,
          "internalType": "address",
          "name": "from",
          "type": "address"
        },
        {
          "indexed": true,
          "internalType": "address",
          "name": "to",
          "type": "address"
        },
        {
          "indexed": true,
          "internalType": "uint256",
          "name": "tokenId",
          "type": "uint256"
        }
      ],
      "name": "Transfer",
      "type": "event"
    },
    {
      "inputs": [
        {
          "internalType": "address",
          "name": "to",
          "type": "address"
        },
        {
          "internalType": "uint256",
          "name": "tokenId",
          "type": "uint256"
        }
      ],
      "name": "approve",
      "outputs": [],
      "stateMutability": "nonpayable",
      "type": "function"
    },
    {
      "inputs": [
        {
          "internalType": "address",
          "name": "owner",
          "type": "address"
        }
      ],
      "name": "balanceOf",
      "outputs": [
        {
          "internalType": "uint256",
          "name": "",
          "type": "uint256"
        }
      ],
      "stateMutability": "view",
      "type": "function"
    },
    {
      "inputs": [
        {
          "internalType": "uint256",
          "name": "tokenId",
          "type": "uint256"
        }
      ],
      "name": "getApproved",
      "outputs": [
        {
          "internalType": "address",
          "name": "",
          "type": "address"
        }
      ],
      "stateMutability": "view",
      "type": "function"
    },
    {
      "inputs": [
        {
          "internalType": "address",
          "name": "player",
          "type": "address"
        }
      ],
      "name": "getPlayerPioneer",
      "outputs": [
        {
          "internalType": "uint256",
          "name": "",
          "type": "uint256"
        }
      ],
      "stateMutability": "view",
      "type": "function"
    },
    {
      "inputs": [
        {
          "internalType": "address",
          "name": "player",
          "type": "address"
        }
      ],
      "name": "hasPioneer",
      "outputs": [
        {
          "internalType": "bool",
          "name": "",
          "type": "bool"
        }
      ],
      "stateMutability": "view",
      "type": "function"
    },
    {
      "inputs": [
        {
          "internalType": "address",
          "name": "owner",
          "type": "address"
        },
        {
          "internalType": "address",
          "name": "operator",
          "type": "address"
        }
      ],
      "name": "isApprovedForAll",
      "outputs": [
        {
          "internalType": "bool",
          "name": "",
          "type": "bool"
        }
      ],
      "stateMutability": "view",
      "type": "function"
    },
    {
      "inputs": [],
      "name": "isMintingAvailable",
      "outputs": [
        {
          "internalType": "bool",
          "name": "",
          "type": "bool"
        }
      ],
      "stateMutability": "view",
      "type": "function"
    },
    {
      "inputs": [
        {
          "internalType": "uint256",
          "name": "pioneerType",
          "type": "uint256"
        },
        {
          "internalType": "address",
          "name": "playerAddress",
          "type": "address"
        }
      ],
      "name": "mintPioneer",
      "outputs": [],
      "stateMutability": "nonpayable",
      "type": "function"
    },
    {
      "inputs": [],
      "name": "name",
      "outputs": [
        {
          "internalType": "string",
          "name": "",
          "type": "string"
        }
      ],
      "stateMutability": "view",
      "type": "function"
    },
    {
      "inputs": [],
      "name": "owner",
      "outputs": [
        {
          "internalType": "address",
          "name": "",
          "type": "address"
        }
      ],
      "stateMutability": "view",
      "type": "function"
    },
    {
      "inputs": [
        {
          "internalType": "uint256",
          "name": "tokenId",
          "type": "uint256"
        }
      ],
      "name": "ownerOf",
      "outputs": [
        {
          "internalType": "address",
          "name": "",
          "type": "address"
        }
      ],
      "stateMutability": "view",
      "type": "function"
    },
    {
      "inputs": [],
      "name": "renounceOwnership",
      "outputs": [],
      "stateMutability": "nonpayable",
      "type": "function"
    },
    {
      "inputs": [
        {
          "internalType": "address",
          "name": "from",
          "type": "address"
        },
        {
          "internalType": "address",
          "name": "to",
          "type": "address"
        },
        {
          "internalType": "uint256",
          "name": "tokenId",
          "type": "uint256"
        }
      ],
      "name": "safeTransferFrom",
      "outputs": [],
      "stateMutability": "nonpayable",
      "type": "function"
    },
    {
      "inputs": [
        {
          "internalType": "address",
          "name": "from",
          "type": "address"
        },
        {
          "internalType": "address",
          "name": "to",
          "type": "address"
        },
        {
          "internalType": "uint256",
          "name": "tokenId",
          "type": "uint256"
        },
        {
          "internalType": "bytes",
          "name": "data",
          "type": "bytes"
        }
      ],
      "name": "safeTransferFrom",
      "outputs": [],
      "stateMutability": "nonpayable",
      "type": "function"
    },
    {
      "inputs": [
        {
          "internalType": "address",
          "name": "operator",
          "type": "address"
        },
        {
          "internalType": "bool",
          "name": "approved",
          "type": "bool"
        }
      ],
      "name": "setApprovalForAll",
      "outputs": [],
      "stateMutability": "nonpayable",
      "type": "function"
    },
    {
      "inputs": [
        {
          "internalType": "string",
          "name": "baseURI",
          "type": "string"
        }
      ],
      "name": "setBaseURI",
      "outputs": [],
      "stateMutability": "nonpayable",
      "type": "function"
    },
    {
      "inputs": [
        {
          "internalType": "bytes4",
          "name": "interfaceId",
          "type": "bytes4"
        }
      ],
      "name": "supportsInterface",
      "outputs": [
        {
          "internalType": "bool",
          "name": "",
          "type": "bool"
        }
      ],
      "stateMutability": "view",
      "type": "function"
    },
    {
      "inputs": [],
      "name": "symbol",
      "outputs": [
        {
          "internalType": "string",
          "name": "",
          "type": "string"
        }
      ],
      "stateMutability": "view",
      "type": "function"
    },
    {
      "inputs": [
        {
          "internalType": "uint256",
          "name": "tokenId",
          "type": "uint256"
        }
      ],
      "name": "tokenURI",
      "outputs": [
        {
          "internalType": "string",
          "name": "",
          "type": "string"
        }
      ],
      "stateMutability": "view",
      "type": "function"
    },
    {
      "inputs": [],
      "name": "totalSupply",
      "outputs": [
        {
          "internalType": "uint256",
          "name": "",
          "type": "uint256"
        }
      ],
      "stateMutability": "view",
      "type": "function"
    },
    {
      "inputs": [
        {
          "internalType": "address",
          "name": "from",
          "type": "address"
        },
        {
          "internalType": "address",
          "name": "to",
          "type": "address"
        },
        {
          "internalType": "uint256",
          "name": "tokenId",
          "type": "uint256"
        }
      ],
      "name": "transferFrom",
      "outputs": [],
      "stateMutability": "nonpayable",
      "type": "function"
    },
    {
      "inputs": [
        {
          "internalType": "address",
          "name": "newOwner",
          "type": "address"
        }
      ],
      "name": "transferOwnership",
      "outputs": [],
      "stateMutability": "nonpayable",
      "type": "function"
    }
  ],
  "bytecode": "0x60806040523480156200001157600080fd5b5060405180604001604052806011815260200170233630b9329027b930b1b6329029b2b2b960791b815250604051806040016040528060068152602001654f5241434c4560d01b81525081600090816200006c91906200019e565b5060016200007b82826200019e565b5050506200009862000092620000a360201b60201c565b620000a7565b60016007556200026a565b3390565b600680546001600160a01b038381166001600160a01b0319831681179093556040519116919082907f8be0079c531659141344cd1fd0a4f28419497f9722a3daafe3b4186f6b6457e090600090a35050565b634e487b7160e01b600052604160045260246000fd5b600181811c908216806200012457607f821691505b6020821081036200014557634e487b7160e01b600052602260045260246000fd5b50919050565b601f8211156200019957600081815260208120601f850160051c81016020861015620001745750805b601f850160051c820191505b81811015620001955782815560010162000180565b5050505b505050565b81516001600160401b03811115620001ba57620001ba620000f9565b620001d281620001cb84546200010f565b846200014b565b602080601f8311600181146200020a5760008415620001f15750858301515b600019600386901b1c1916600185901b17855562000195565b600085815260208120601f198616915b828110156200023b578886015182559484019460019091019084016200021a565b50858210156200025a5787850151600019600388901b60f8161c191681555b5050505050600190811b01905550565b611863806200027a6000396000f3fe608060405234801561001057600080fd5b50600436106101425760003560e01c80636352211e116100b857806395d89b411161007c57806395d89b41146102ab578063a22cb465146102b3578063b88d4fde146102c6578063c87b56dd146102d9578063e985e9c5146102ec578063f2fde38b1461032857600080fd5b80636352211e1461025957806370a082311461026c578063715018a61461027f578063788f6d40146102875780638da5cb5b1461029a57600080fd5b8063229125c81161010a578063229125c8146101da57806323b872dd146101ed57806327f4c697146102005780632c10c7791461022c57806342842e0e1461023357806355f804b31461024657600080fd5b806301ffc9a71461014757806306fdde031461016f578063081812fc14610184578063095ea7b3146101af57806318160ddd146101c4575b600080fd5b61015a61015536600461136d565b61033b565b60405190151581526020015b60405180910390f35b61017761038d565b60405161016691906113da565b6101976101923660046113ed565b61041f565b6040516001600160a01b039091168152602001610166565b6101c26101bd366004611422565b610446565b005b6101cc610560565b604051908152602001610166565b6101cc6101e836600461144c565b610570565b6101c26101fb366004611467565b6105f4565b61015a61020e36600461144c565b6001600160a01b031660009081526009602052604090205460ff1690565b600161015a565b6101c2610241366004611467565b610625565b6101c261025436600461152f565b610640565b6101976102673660046113ed565b61064b565b6101cc61027a36600461144c565b6106ab565b6101c2610731565b6101c2610295366004611578565b610745565b6006546001600160a01b0316610197565b610177610921565b6101c26102c13660046115a4565b610930565b6101c26102d43660046115e0565b61093b565b6101776102e73660046113ed565b610973565b61015a6102fa36600461165c565b6001600160a01b03918216600090815260056020908152604080832093909416825291909152205460ff1690565b6101c261033636600461144c565b6109e7565b60006001600160e01b031982166380ac58cd60e01b148061036c57506001600160e01b03198216635b5e139f60e01b145b8061038757506301ffc9a760e01b6001600160e01b03198316145b92915050565b60606000805461039c90611686565b80601f01602080910402602001604051908101604052809291908181526020018280546103c890611686565b80156104155780601f106103ea57610100808354040283529160200191610415565b820191906000526020600020905b8154815290600101906020018083116103f857829003601f168201915b5050505050905090565b600061042a82610a5d565b506000908152600460205260409020546001600160a01b031690565b60006104518261064b565b9050806001600160a01b0316836001600160a01b0316036104c35760405162461bcd60e51b815260206004820152602160248201527f4552433732313a20617070726f76616c20746f2063757272656e74206f776e656044820152603960f91b60648201526084015b60405180910390fd5b336001600160a01b03821614806104df57506104df81336102fa565b6105515760405162461bcd60e51b815260206004820152603d60248201527f4552433732313a20617070726f76652063616c6c6572206973206e6f7420746f60448201527f6b656e206f776e6572206f7220617070726f76656420666f7220616c6c00000060648201526084016104ba565b61055b8383610abc565b505050565b600061056b60085490565b905090565b6001600160a01b03811660009081526009602052604081205460ff166105d85760405162461bcd60e51b815260206004820181905260248201527f506c6179657220646f6573206e6f742068617665204f7261636c65205365657260448201526064016104ba565b506001600160a01b03166000908152600a602052604090205490565b6105fe3382610b2a565b61061a5760405162461bcd60e51b81526004016104ba906116c0565b61055b838383610ba9565b61055b8383836040518060200160405280600081525061093b565b610648610d0d565b50565b6000818152600260205260408120546001600160a01b0316806103875760405162461bcd60e51b8152602060048201526018602482015277115490cdcc8c4e881a5b9d985b1a59081d1bdad95b88125160421b60448201526064016104ba565b60006001600160a01b0382166107155760405162461bcd60e51b815260206004820152602960248201527f4552433732313a2061646472657373207a65726f206973206e6f7420612076616044820152683634b21037bbb732b960b91b60648201526084016104ba565b506001600160a01b031660009081526003602052604090205490565b610739610d0d565b6107436000610d67565b565b61074d610db9565b6001600160a01b03811660009081526009602052604090205460ff16156107b65760405162461bcd60e51b815260206004820152601e60248201527f506c6179657220616c726561647920686173204f7261636c652053656572000060448201526064016104ba565b6001600160a01b0381166108055760405162461bcd60e51b8152602060048201526016602482015275496e76616c696420706c61796572206164647265737360501b60448201526064016104ba565b336001600160a01b0382161461085d5760405162461bcd60e51b815260206004820152601a60248201527f43616e206f6e6c79206d696e7420666f7220796f757273656c6600000000000060448201526064016104ba565b61086b600880546001019055565b600061087660085490565b6001600160a01b0383166000908152600a6020908152604080832084905560099091529020805460ff1916600117905590506108b28282610e12565b80826001600160a01b03167fac4cb6a8607cbfd14332cc363e78f9c66c022245cda85584be3c662fb17812fb60405161090a906020808252600b908201526a27b930b1b6329029b2b2b960a91b604082015260600190565b60405180910390a35061091d6001600755565b5050565b60606001805461039c90611686565b61091d338383610e2c565b6109453383610b2a565b6109615760405162461bcd60e51b81526004016104ba906116c0565b61096d84848484610efa565b50505050565b606061097e82610a5d565b600061099560408051602081019091526000815290565b905060008151116109b557604051806020016040528060008152506109e0565b806109bf84610f2d565b6040516020016109d092919061170d565b6040516020818303038152906040525b9392505050565b6109ef610d0d565b6001600160a01b038116610a545760405162461bcd60e51b815260206004820152602660248201527f4f776e61626c653a206e6577206f776e657220697320746865207a65726f206160448201526564647265737360d01b60648201526084016104ba565b61064881610d67565b6000818152600260205260409020546001600160a01b03166106485760405162461bcd60e51b8152602060048201526018602482015277115490cdcc8c4e881a5b9d985b1a59081d1bdad95b88125160421b60448201526064016104ba565b600081815260046020526040902080546001600160a01b0319166001600160a01b0384169081179091558190610af18261064b565b6001600160a01b03167f8c5be1e5ebec7d5bd14f71427d1e84f3dd0314c0f7b2291e5b200ac8c7c3b92560405160405180910390a45050565b600080610b368361064b565b9050806001600160a01b0316846001600160a01b03161480610b7d57506001600160a01b0380821660009081526005602090815260408083209388168352929052205460ff165b80610ba15750836001600160a01b0316610b968461041f565b6001600160a01b0316145b949350505050565b826001600160a01b0316610bbc8261064b565b6001600160a01b031614610be25760405162461bcd60e51b81526004016104ba9061173c565b6001600160a01b038216610c445760405162461bcd60e51b8152602060048201526024808201527f4552433732313a207472616e7366657220746f20746865207a65726f206164646044820152637265737360e01b60648201526084016104ba565b826001600160a01b0316610c578261064b565b6001600160a01b031614610c7d5760405162461bcd60e51b81526004016104ba9061173c565b600081815260046020908152604080832080546001600160a01b03199081169091556001600160a01b0387811680865260038552838620805460001901905590871680865283862080546001019055868652600290945282852080549092168417909155905184937fddf252ad1be2c89b69c2b068fc378daa952ba7f163c4a11628f55a4df523b3ef91a4505050565b6006546001600160a01b031633146107435760405162461bcd60e51b815260206004820181905260248201527f4f776e61626c653a2063616c6c6572206973206e6f7420746865206f776e657260448201526064016104ba565b600680546001600160a01b038381166001600160a01b0319831681179093556040519116919082907f8be0079c531659141344cd1fd0a4f28419497f9722a3daafe3b4186f6b6457e090600090a35050565b600260075403610e0b5760405162461bcd60e51b815260206004820152601f60248201527f5265656e7472616e637947756172643a207265656e7472616e742063616c6c0060448201526064016104ba565b6002600755565b61091d828260405180602001604052806000815250610fc0565b816001600160a01b0316836001600160a01b031603610e8d5760405162461bcd60e51b815260206004820152601960248201527f4552433732313a20617070726f766520746f2063616c6c65720000000000000060448201526064016104ba565b6001600160a01b03838116600081815260056020908152604080832094871680845294825291829020805460ff191686151590811790915591519182527f17307eab39ab6107e8899845ad3d59bd9653f200f220920489ca2b5937696c31910160405180910390a3505050565b610f05848484610ba9565b610f1184848484610ff3565b61096d5760405162461bcd60e51b81526004016104ba90611781565b60606000610f3a836110f4565b600101905060008167ffffffffffffffff811115610f5a57610f5a6114a3565b6040519080825280601f01601f191660200182016040528015610f84576020820181803683370190505b5090508181016020015b600019016f181899199a1a9b1b9c1cb0b131b232b360811b600a86061a8153600a8504945084610f8e57509392505050565b610fca83836111cc565b610fd76000848484610ff3565b61055b5760405162461bcd60e51b81526004016104ba90611781565b60006001600160a01b0384163b156110e957604051630a85bd0160e11b81526001600160a01b0385169063150b7a02906110379033908990889088906004016117d3565b6020604051808303816000875af1925050508015611072575060408051601f3d908101601f1916820190925261106f91810190611810565b60015b6110cf573d8080156110a0576040519150601f19603f3d011682016040523d82523d6000602084013e6110a5565b606091505b5080516000036110c75760405162461bcd60e51b81526004016104ba90611781565b805181602001fd5b6001600160e01b031916630a85bd0160e11b149050610ba1565b506001949350505050565b60008072184f03e93ff9f4daa797ed6e38ed64bf6a1f0160401b83106111335772184f03e93ff9f4daa797ed6e38ed64bf6a1f0160401b830492506040015b6d04ee2d6d415b85acef8100000000831061115f576d04ee2d6d415b85acef8100000000830492506020015b662386f26fc10000831061117d57662386f26fc10000830492506010015b6305f5e1008310611195576305f5e100830492506008015b61271083106111a957612710830492506004015b606483106111bb576064830492506002015b600a83106103875760010192915050565b6001600160a01b0382166112225760405162461bcd60e51b815260206004820181905260248201527f4552433732313a206d696e7420746f20746865207a65726f206164647265737360448201526064016104ba565b6000818152600260205260409020546001600160a01b0316156112875760405162461bcd60e51b815260206004820152601c60248201527f4552433732313a20746f6b656e20616c7265616479206d696e7465640000000060448201526064016104ba565b6000818152600260205260409020546001600160a01b0316156112ec5760405162461bcd60e51b815260206004820152601c60248201527f4552433732313a20746f6b656e20616c7265616479206d696e7465640000000060448201526064016104ba565b6001600160a01b038216600081815260036020908152604080832080546001019055848352600290915280822080546001600160a01b0319168417905551839291907fddf252ad1be2c89b69c2b068fc378daa952ba7f163c4a11628f55a4df523b3ef908290a45050565b6001600160e01b03198116811461064857600080fd5b60006020828403121561137f57600080fd5b81356109e081611357565b60005b838110156113a557818101518382015260200161138d565b50506000910152565b600081518084526113c681602086016020860161138a565b601f01601f19169290920160200192915050565b6020815260006109e060208301846113ae565b6000602082840312156113ff57600080fd5b5035919050565b80356001600160a01b038116811461141d57600080fd5b919050565b6000806040838503121561143557600080fd5b61143e83611406565b946020939093013593505050565b60006020828403121561145e57600080fd5b6109e082611406565b60008060006060848603121561147c57600080fd5b61148584611406565b925061149360208501611406565b9150604084013590509250925092565b634e487b7160e01b600052604160045260246000fd5b600067ffffffffffffffff808411156114d4576114d46114a3565b604051601f8501601f19908116603f011681019082821181831017156114fc576114fc6114a3565b8160405280935085815286868601111561151557600080fd5b858560208301376000602087830101525050509392505050565b60006020828403121561154157600080fd5b813567ffffffffffffffff81111561155857600080fd5b8201601f8101841361156957600080fd5b610ba1848235602084016114b9565b6000806040838503121561158b57600080fd5b8235915061159b60208401611406565b90509250929050565b600080604083850312156115b757600080fd5b6115c083611406565b9150602083013580151581146115d557600080fd5b809150509250929050565b600080600080608085870312156115f657600080fd5b6115ff85611406565b935061160d60208601611406565b925060408501359150606085013567ffffffffffffffff81111561163057600080fd5b8501601f8101871361164157600080fd5b611650878235602084016114b9565b91505092959194509250565b6000806040838503121561166f57600080fd5b61167883611406565b915061159b60208401611406565b600181811c9082168061169a57607f821691505b6020821081036116ba57634e487b7160e01b600052602260045260246000fd5b50919050565b6020808252602d908201527f4552433732313a2063616c6c6572206973206e6f7420746f6b656e206f776e6560408201526c1c881bdc88185c1c1c9bdd9959609a1b606082015260800190565b6000835161171f81846020880161138a565b83519083019061173381836020880161138a565b01949350505050565b60208082526025908201527f4552433732313a207472616e736665722066726f6d20696e636f72726563742060408201526437bbb732b960d91b606082015260800190565b60208082526032908201527f4552433732313a207472616e7366657220746f206e6f6e20455243373231526560408201527131b2b4bb32b91034b6b83632b6b2b73a32b960711b606082015260800190565b6001600160a01b0385811682528416602082015260408101839052608060608201819052600090611806908301846113ae565b9695505050505050565b60006020828403121561182257600080fd5b81516109e08161135756fea26469706673582212208ed1604cea944263c8532b208d4e4788f9c2260b7858930fa142344898245ed164736f6c63430008130033",
  "linkReferences": {},
  "deployedLinkReferences": {}
}