{
  "_format": "hh-sol-artifact-1",
  "contractName": "LiskSocialArchitect",
  "sourceName": "contracts/LiskSocialArchitect.sol",
  "abi": [
    {
      "inputs": [],
      "stateMutability": "nonpayable",
      "type": "constructor"
    },
    {
      "anonymous": false,
      "inputs": [
        {
          "indexed": true,
          "internalType": "address",
          "name": "owner",
          "type": "address"
        },
        {
          "indexed": true,
          "internalType": "address",
          "name": "approved",
          "type": "address"
        },
        {
          "indexed": true,
          "internalType": "uint256",
          "name": "tokenId",
          "type": "uint256"
        }
      ],
      "name": "Approval",
      "type": "event"
    },
    {
      "anonymous": false,
      "inputs": [
        {
          "indexed": true,
          "internalType": "address",
          "name": "owner",
          "type": "address"
        },
        {
          "indexed": true,
          "internalType": "address",
          "name": "operator",
          "type": "address"
        },
        {
          "indexed": false,
          "internalType": "bool",
          "name": "approved",
          "type": "bool"
        }
      ],
      "name": "ApprovalForAll",
      "type": "event"
    },
    {
      "anonymous": false,
      "inputs": [
        {
          "indexed": true,
          "internalType": "address",
          "name": "player",
          "type": "address"
        },
        {
          "indexed": true,
          "internalType": "uint256",
          "name": "tokenId",
          "type": "uint256"
        },
        {
          "indexed": false,
          "internalType": "uint256",
          "name": "newScore",
          "type": "uint256"
        }
      ],
      "name": "CommunityScoreUpdated",
      "type": "event"
    },
    {
      "anonymous": false,
      "inputs": [
        {
          "indexed": true,
          "internalType": "address",
          "name": "player",
          "type": "address"
        },
        {
          "indexed": true,
          "internalType": "uint256",
          "name": "tokenId",
          "type": "uint256"
        },
        {
          "indexed": false,
          "internalType": "address",
          "name": "connectedPlayer",
          "type": "address"
        }
      ],
      "name": "ConnectionMade",
      "type": "event"
    },
    {
      "anonymous": false,
      "inputs": [
        {
          "indexed": true,
          "internalType": "address",
          "name": "previousOwner",
          "type": "address"
        },
        {
          "indexed": true,
          "internalType": "address",
          "name": "newOwner",
          "type": "address"
        }
      ],
      "name": "OwnershipTransferred",
      "type": "event"
    },
    {
      "anonymous": false,
      "inputs": [
        {
          "indexed": true,
          "internalType": "address",
          "name": "player",
          "type": "address"
        },
        {
          "indexed": true,
          "internalType": "uint256",
          "name": "tokenId",
          "type": "uint256"
        },
        {
          "indexed": false,
          "internalType": "string",
          "name": "protocolName",
          "type": "string"
        },
        {
          "indexed": false,
          "internalType": "uint256",
          "name": "complexity",
          "type": "uint256"
        }
      ],
      "name": "ProtocolBuilt",
      "type": "event"
    },
    {
      "anonymous": false,
      "inputs": [
        {
          "indexed": true,
          "internalType": "address",
          "name": "player",
          "type": "address"
        },
        {
          "indexed": true,
          "internalType": "uint256",
          "name": "tokenId",
          "type": "uint256"
        },
        {
          "indexed": false,
          "internalType": "string",
          "name": "name",
          "type": "string"
        }
      ],
      "name": "SocialArchitectMinted",
      "type": "event"
    },
    {
      "anonymous": false,
      "inputs": [
        {
          "indexed": true,
          "internalType": "address",
          "name": "from",
          "type": "address"
        },
        {
          "indexed": true,
          "internalType": "address",
          "name": "to",
          "type": "address"
        },
        {
          "indexed": true,
          "internalType": "uint256",
          "name": "tokenId",
          "type": "uint256"
        }
      ],
      "name": "Transfer",
      "type": "event"
    },
    {
      "inputs": [],
      "name": "MAX_SUPPLY",
      "outputs": [
        {
          "internalType": "uint256",
          "name": "",
          "type": "uint256"
        }
      ],
      "stateMutability": "view",
      "type": "function"
    },
    {
      "inputs": [
        {
          "internalType": "address",
          "name": "to",
          "type": "address"
        },
        {
          "internalType": "uint256",
          "name": "tokenId",
          "type": "uint256"
        }
      ],
      "name": "approve",
      "outputs": [],
      "stateMutability": "nonpayable",
      "type": "function"
    },
    {
      "inputs": [
        {
          "internalType": "address",
          "name": "owner",
          "type": "address"
        }
      ],
      "name": "balanceOf",
      "outputs": [
        {
          "internalType": "uint256",
          "name": "",
          "type": "uint256"
        }
      ],
      "stateMutability": "view",
      "type": "function"
    },
    {
      "inputs": [
        {
          "internalType": "string",
          "name": "protocolName",
          "type": "string"
        },
        {
          "internalType": "uint256",
          "name": "complexity",
          "type": "uint256"
        }
      ],
      "name": "buildProtocol",
      "outputs": [],
      "stateMutability": "nonpayable",
      "type": "function"
    },
    {
      "inputs": [
        {
          "internalType": "uint256",
          "name": "tokenId",
          "type": "uint256"
        }
      ],
      "name": "deactivateSocialArchitect",
      "outputs": [],
      "stateMutability": "nonpayable",
      "type": "function"
    },
    {
      "inputs": [
        {
          "internalType": "uint256",
          "name": "tokenId",
          "type": "uint256"
        }
      ],
      "name": "getApproved",
      "outputs": [
        {
          "internalType": "address",
          "name": "",
          "type": "address"
        }
      ],
      "stateMutability": "view",
      "type": "function"
    },
    {
      "inputs": [
        {
          "internalType": "address",
          "name": "player",
          "type": "address"
        }
      ],
      "name": "getPlayerSocialArchitect",
      "outputs": [
        {
          "internalType": "uint256",
          "name": "",
          "type": "uint256"
        }
      ],
      "stateMutability": "view",
      "type": "function"
    },
    {
      "inputs": [
        {
          "internalType": "uint256",
          "name": "tokenId",
          "type": "uint256"
        }
      ],
      "name": "getSocialArchitectData",
      "outputs": [
        {
          "components": [
            {
              "internalType": "string",
              "name": "name",
              "type": "string"
            },
            {
              "internalType": "string",
              "name": "title",
              "type": "string"
            },
            {
              "internalType": "string",
              "name": "realm",
              "type": "string"
            },
            {
              "internalType": "string",
              "name": "rarity",
              "type": "string"
            },
            {
              "internalType": "uint256",
              "name": "mintedAt",
              "type": "uint256"
            },
            {
              "internalType": "bool",
              "name": "isActive",
              "type": "bool"
            },
            {
              "internalType": "uint256",
              "name": "communityScore",
              "type": "uint256"
            },
            {
              "internalType": "uint256",
              "name": "protocolsBuilt",
              "type": "uint256"
            },
            {
              "internalType": "uint256",
              "name": "connectionsMade",
              "type": "uint256"
            }
          ],
          "internalType": "struct LiskSocialArchitect.SocialArchitectData",
          "name": "",
          "type": "tuple"
        }
      ],
      "stateMutability": "view",
      "type": "function"
    },
    {
      "inputs": [
        {
          "internalType": "address",
          "name": "player",
          "type": "address"
        }
      ],
      "name": "hasSocialArchitect",
      "outputs": [
        {
          "internalType": "bool",
          "name": "",
          "type": "bool"
        }
      ],
      "stateMutability": "view",
      "type": "function"
    },
    {
      "inputs": [
        {
          "internalType": "address",
          "name": "owner",
          "type": "address"
        },
        {
          "internalType": "address",
          "name": "operator",
          "type": "address"
        }
      ],
      "name": "isApprovedForAll",
      "outputs": [
        {
          "internalType": "bool",
          "name": "",
          "type": "bool"
        }
      ],
      "stateMutability": "view",
      "type": "function"
    },
    {
      "inputs": [
        {
          "internalType": "address",
          "name": "connectedPlayer",
          "type": "address"
        }
      ],
      "name": "makeConnection",
      "outputs": [],
      "stateMutability": "nonpayable",
      "type": "function"
    },
    {
      "inputs": [
        {
          "internalType": "address",
          "name": "player",
          "type": "address"
        },
        {
          "internalType": "string",
          "name": "name",
          "type": "string"
        },
        {
          "internalType": "string",
          "name": "title",
          "type": "string"
        }
      ],
      "name": "mintSocialArchitect",
      "outputs": [],
      "stateMutability": "nonpayable",
      "type": "function"
    },
    {
      "inputs": [],
      "name": "name",
      "outputs": [
        {
          "internalType": "string",
          "name": "",
          "type": "string"
        }
      ],
      "stateMutability": "view",
      "type": "function"
    },
    {
      "inputs": [],
      "name": "owner",
      "outputs": [
        {
          "internalType": "address",
          "name": "",
          "type": "address"
        }
      ],
      "stateMutability": "view",
      "type": "function"
    },
    {
      "inputs": [
        {
          "internalType": "uint256",
          "name": "tokenId",
          "type": "uint256"
        }
      ],
      "name": "ownerOf",
      "outputs": [
        {
          "internalType": "address",
          "name": "",
          "type": "address"
        }
      ],
      "stateMutability": "view",
      "type": "function"
    },
    {
      "inputs": [],
      "name": "remainingSupply",
      "outputs": [
        {
          "internalType": "uint256",
          "name": "",
          "type": "uint256"
        }
      ],
      "stateMutability": "view",
      "type": "function"
    },
    {
      "inputs": [],
      "name": "renounceOwnership",
      "outputs": [],
      "stateMutability": "nonpayable",
      "type": "function"
    },
    {
      "inputs": [
        {
          "internalType": "address",
          "name": "from",
          "type": "address"
        },
        {
          "internalType": "address",
          "name": "to",
          "type": "address"
        },
        {
          "internalType": "uint256",
          "name": "tokenId",
          "type": "uint256"
        }
      ],
      "name": "safeTransferFrom",
      "outputs": [],
      "stateMutability": "nonpayable",
      "type": "function"
    },
    {
      "inputs": [
        {
          "internalType": "address",
          "name": "from",
          "type": "address"
        },
        {
          "internalType": "address",
          "name": "to",
          "type": "address"
        },
        {
          "internalType": "uint256",
          "name": "tokenId",
          "type": "uint256"
        },
        {
          "internalType": "bytes",
          "name": "data",
          "type": "bytes"
        }
      ],
      "name": "safeTransferFrom",
      "outputs": [],
      "stateMutability": "nonpayable",
      "type": "function"
    },
    {
      "inputs": [
        {
          "internalType": "address",
          "name": "operator",
          "type": "address"
        },
        {
          "internalType": "bool",
          "name": "approved",
          "type": "bool"
        }
      ],
      "name": "setApprovalForAll",
      "outputs": [],
      "stateMutability": "nonpayable",
      "type": "function"
    },
    {
      "inputs": [
        {
          "internalType": "string",
          "name": "baseURI",
          "type": "string"
        }
      ],
      "name": "setBaseURI",
      "outputs": [],
      "stateMutability": "nonpayable",
      "type": "function"
    },
    {
      "inputs": [
        {
          "internalType": "bytes4",
          "name": "interfaceId",
          "type": "bytes4"
        }
      ],
      "name": "supportsInterface",
      "outputs": [
        {
          "internalType": "bool",
          "name": "",
          "type": "bool"
        }
      ],
      "stateMutability": "view",
      "type": "function"
    },
    {
      "inputs": [],
      "name": "symbol",
      "outputs": [
        {
          "internalType": "string",
          "name": "",
          "type": "string"
        }
      ],
      "stateMutability": "view",
      "type": "function"
    },
    {
      "inputs": [
        {
          "internalType": "uint256",
          "name": "tokenId",
          "type": "uint256"
        }
      ],
      "name": "tokenURI",
      "outputs": [
        {
          "internalType": "string",
          "name": "",
          "type": "string"
        }
      ],
      "stateMutability": "view",
      "type": "function"
    },
    {
      "inputs": [],
      "name": "totalSupply",
      "outputs": [
        {
          "internalType": "uint256",
          "name": "",
          "type": "uint256"
        }
      ],
      "stateMutability": "view",
      "type": "function"
    },
    {
      "inputs": [
        {
          "internalType": "address",
          "name": "from",
          "type": "address"
        },
        {
          "internalType": "address",
          "name": "to",
          "type": "address"
        },
        {
          "internalType": "uint256",
          "name": "tokenId",
          "type": "uint256"
        }
      ],
      "name": "transferFrom",
      "outputs": [],
      "stateMutability": "nonpayable",
      "type": "function"
    },
    {
      "inputs": [
        {
          "internalType": "address",
          "name": "newOwner",
          "type": "address"
        }
      ],
      "name": "transferOwnership",
      "outputs": [],
      "stateMutability": "nonpayable",
      "type": "function"
    }
  ],
  "bytecode": "0x60806040523480156200001157600080fd5b506040518060400160405280601581526020017f4c69736b20536f6369616c2041726368697465637400000000000000000000008152506040518060400160405280600681526020016514d3d0d2505360d21b8152508160009081620000789190620001ee565b506001620000878282620001ee565b505050620000a46200009e620000f360201b60201c565b620000f7565b600160075560408051808201909152601581527f68747470733a2f2f697066732e696f2f697066732f00000000000000000000006020820152600c90620000ec9082620001ee565b50620002ba565b3390565b600680546001600160a01b038381166001600160a01b0319831681179093556040519116919082907f8be0079c531659141344cd1fd0a4f28419497f9722a3daafe3b4186f6b6457e090600090a35050565b634e487b7160e01b600052604160045260246000fd5b600181811c908216806200017457607f821691505b6020821081036200019557634e487b7160e01b600052602260045260246000fd5b50919050565b601f821115620001e957600081815260208120601f850160051c81016020861015620001c45750805b601f850160051c820191505b81811015620001e557828155600101620001d0565b5050505b505050565b81516001600160401b038111156200020a576200020a62000149565b62000222816200021b84546200015f565b846200019b565b602080601f8311600181146200025a5760008415620002415750858301515b600019600386901b1c1916600185901b178555620001e5565b600085815260208120601f198616915b828110156200028b578886015182559484019460019091019084016200026a565b5085821015620002aa5787850151600019600388901b60f8161c191681555b5050505050600190811b01905550565b61259480620002ca6000396000f3fe608060405234801561001057600080fd5b50600436106101a95760003560e01c8063715018a6116100f9578063b88d4fde11610097578063da0239a611610071578063da0239a61461039b578063e7f757f9146103a3578063e985e9c5146103b6578063f2fde38b146103c957600080fd5b8063b88d4fde14610362578063c70e406c14610375578063c87b56dd1461038857600080fd5b806395d89b41116100d357806395d89b41146102fb578063a22cb46514610303578063a8b79a4014610316578063acb3d1a11461033657600080fd5b8063715018a6146102cf578063809b9b40146102d75780638da5cb5b146102ea57600080fd5b806323b872dd1161016657806355f804b31161014057806355f804b3146102835780636352211e14610296578063659af200146102a957806370a08231146102bc57600080fd5b806323b872dd1461025457806332cb6b0c1461026757806342842e0e1461027057600080fd5b806301ffc9a7146101ae57806306fdde03146101d6578063081812fc146101eb578063095ea7b3146102165780631364cdaa1461022b57806318160ddd1461023e575b600080fd5b6101c16101bc366004611d56565b6103dc565b60405190151581526020015b60405180910390f35b6101de61042e565b6040516101cd9190611dc3565b6101fe6101f9366004611dd6565b6104c0565b6040516001600160a01b0390911681526020016101cd565b610229610224366004611e0b565b6104e7565b005b610229610239366004611ee1565b610601565b6102466108dc565b6040519081526020016101cd565b610229610262366004611f55565b6108ec565b61024661271081565b61022961027e366004611f55565b61091d565b610229610291366004611f91565b610938565b6101fe6102a4366004611dd6565b610950565b6102466102b7366004611fc6565b6109b0565b6102466102ca366004611fc6565b610a04565b610229610a8a565b6102296102e5366004611fc6565b610a9e565b6006546001600160a01b03166101fe565b6101de610cab565b610229610311366004611fe1565b610cba565b610329610324366004611dd6565b610cc5565b6040516101cd919061201d565b6101c1610344366004611fc6565b6001600160a01b03166000908152600b602052604090205460ff1690565b6102296103703660046120e2565b611010565b61022961038336600461215e565b611048565b6101de610396366004611dd6565b611220565b610246611287565b6102296103b1366004611dd6565b61129e565b6101c16103c43660046121a3565b61131c565b6102296103d7366004611fc6565b61134a565b60006001600160e01b031982166380ac58cd60e01b148061040d57506001600160e01b03198216635b5e139f60e01b145b8061042857506301ffc9a760e01b6001600160e01b03198316145b92915050565b60606000805461043d906121d6565b80601f0160208091040260200160405190810160405280929190818152602001828054610469906121d6565b80156104b65780601f1061048b576101008083540402835291602001916104b6565b820191906000526020600020905b81548152906001019060200180831161049957829003601f168201915b5050505050905090565b60006104cb826113c3565b506000908152600460205260409020546001600160a01b031690565b60006104f282610950565b9050806001600160a01b0316836001600160a01b0316036105645760405162461bcd60e51b815260206004820152602160248201527f4552433732313a20617070726f76616c20746f2063757272656e74206f776e656044820152603960f91b60648201526084015b60405180910390fd5b336001600160a01b03821614806105805750610580813361131c565b6105f25760405162461bcd60e51b815260206004820152603d60248201527f4552433732313a20617070726f76652063616c6c6572206973206e6f7420746f60448201527f6b656e206f776e6572206f7220617070726f76656420666f7220616c6c000000606482015260840161055b565b6105fc8383611422565b505050565b610609611490565b6106116114ea565b6001600160a01b0383166000908152600b602052604090205460ff16156106865760405162461bcd60e51b815260206004820152602360248201527f506c6179657220616c72656164792068617320536f6369616c204172636869746044820152621958dd60ea1b606482015260840161055b565b6001600160a01b0383166106d55760405162461bcd60e51b8152602060048201526016602482015275496e76616c696420706c61796572206164647265737360501b604482015260640161055b565b6127106106e160085490565b106107275760405162461bcd60e51b815260206004820152601660248201527513585e1a5b5d5b481cdd5c1c1b1e481c995858da195960521b604482015260640161055b565b610735600880546001019055565b600061074060085490565b60408051610120810182528581526020808201869052825180840184526004808252634c69736b60e01b828401528385019190915283518085018552908152634570696360e01b818301526060830152426080830152600160a0830152606460c0830152600060e0830181905261010083018190528481526009909152919091208151929350909181906107d4908261225e565b50602082015160018201906107e9908261225e565b50604082015160028201906107fe908261225e565b5060608201516003820190610813908261225e565b506080820151600482015560a082015160058201805491151560ff1992831617905560c0830151600683015560e08301516007830155610100909201516008909101556001600160a01b0385166000908152600a60209081526040808320859055600b90915290208054909116600117905561088f8482611543565b80846001600160a01b03167f1d161dff2bbbe0d68507b039d9e20ae8e8c4e29302c421e2e134eea73ff1f3f6856040516108c99190611dc3565b60405180910390a3506105fc6001600755565b60006108e760085490565b905090565b6108f6338261155d565b6109125760405162461bcd60e51b815260040161055b9061231e565b6105fc8383836115bc565b6105fc83838360405180602001604052806000815250611010565b610940611490565b600c61094c828261225e565b5050565b6000818152600260205260408120546001600160a01b0316806104285760405162461bcd60e51b8152602060048201526018602482015277115490cdcc8c4e881a5b9d985b1a59081d1bdad95b88125160421b604482015260640161055b565b6001600160a01b0381166000908152600b602052604081205460ff166109e85760405162461bcd60e51b815260040161055b9061236b565b506001600160a01b03166000908152600a602052604090205490565b60006001600160a01b038216610a6e5760405162461bcd60e51b815260206004820152602960248201527f4552433732313a2061646472657373207a65726f206973206e6f7420612076616044820152683634b21037bbb732b960b91b606482015260840161055b565b506001600160a01b031660009081526003602052604090205490565b610a92611490565b610a9c600061172d565b565b336000908152600b602052604090205460ff16610acd5760405162461bcd60e51b815260040161055b9061236b565b336001600160a01b03821603610b255760405162461bcd60e51b815260206004820152601a60248201527f43616e6e6f7420636f6e6e65637420746f20796f757273656c66000000000000604482015260640161055b565b6001600160a01b038116610b7b5760405162461bcd60e51b815260206004820181905260248201527f496e76616c696420636f6e6e656374656420706c617965722061646472657373604482015260640161055b565b336000908152600a60209081526040808320548084526009909252909120600581015460ff16610bed5760405162461bcd60e51b815260206004820152601e60248201527f536f6369616c20417263686974656374206973206e6f74206163746976650000604482015260640161055b565b600881018054906000610bff836123c6565b9190505550600a816006016000828254610c1991906123df565b90915550506040516001600160a01b0384168152829033907f5d8210a1f1955c886795d51b809c465603765a56c3878b5cff85c1c672b84c549060200160405180910390a381336001600160a01b03167f7681c9bc4703daadfdfbfae0bd1c828b4619e58101f0e8a5404f70e93c6286638360060154604051610c9e91815260200190565b60405180910390a3505050565b60606001805461043d906121d6565b61094c33838361177f565b610d1660405180610120016040528060608152602001606081526020016060815260200160608152602001600081526020016000151581526020016000815260200160008152602001600081525090565b6000828152600260205260409020546001600160a01b0316610d715760405162461bcd60e51b8152602060048201526014602482015273151bdad95b88191bd95cc81b9bdd08195e1a5cdd60621b604482015260640161055b565b6000828152600960205260409081902081516101208101909252805482908290610d9a906121d6565b80601f0160208091040260200160405190810160405280929190818152602001828054610dc6906121d6565b8015610e135780601f10610de857610100808354040283529160200191610e13565b820191906000526020600020905b815481529060010190602001808311610df657829003601f168201915b50505050508152602001600182018054610e2c906121d6565b80601f0160208091040260200160405190810160405280929190818152602001828054610e58906121d6565b8015610ea55780601f10610e7a57610100808354040283529160200191610ea5565b820191906000526020600020905b815481529060010190602001808311610e8857829003601f168201915b50505050508152602001600282018054610ebe906121d6565b80601f0160208091040260200160405190810160405280929190818152602001828054610eea906121d6565b8015610f375780601f10610f0c57610100808354040283529160200191610f37565b820191906000526020600020905b815481529060010190602001808311610f1a57829003601f168201915b50505050508152602001600382018054610f50906121d6565b80601f0160208091040260200160405190810160405280929190818152602001828054610f7c906121d6565b8015610fc95780601f10610f9e57610100808354040283529160200191610fc9565b820191906000526020600020905b815481529060010190602001808311610fac57829003601f168201915b505050918352505060048201546020820152600582015460ff1615156040820152600682015460608201526007820154608082015260089091015460a09091015292915050565b61101a338361155d565b6110365760405162461bcd60e51b815260040161055b9061231e565b61104284848484611845565b50505050565b336000908152600b602052604090205460ff166110775760405162461bcd60e51b815260040161055b9061236b565b600181101580156110895750600a8111155b6110e15760405162461bcd60e51b815260206004820152602360248201527f436f6d706c6578697479206d757374206265206265747765656e203120616e6460448201526202031360ec1b606482015260840161055b565b336000908152600a60209081526040808320548084526009909252909120600581015460ff166111535760405162461bcd60e51b815260206004820152601e60248201527f536f6369616c20417263686974656374206973206e6f74206163746976650000604482015260640161055b565b600781018054906000611165836123c6565b90915550600090506111788460056123f2565b90508082600601600082825461118e91906123df565b9091555050604051839033907f7745ff3790f238e0d432a3f5c24246719e79505291b332cac73c95f7f4d202a2906111c99089908990612409565b60405180910390a382336001600160a01b03167f7681c9bc4703daadfdfbfae0bd1c828b4619e58101f0e8a5404f70e93c628663846006015460405161121191815260200190565b60405180910390a35050505050565b606061122b826113c3565b6000611235611878565b905060008151116112555760405180602001604052806000815250611280565b8061125f84611887565b60405160200161127092919061242b565b6040516020818303038152906040525b9392505050565b600061129260085490565b6108e79061271061245a565b6112a6611490565b6000818152600260205260409020546001600160a01b03166113015760405162461bcd60e51b8152602060048201526014602482015273151bdad95b88191bd95cc81b9bdd08195e1a5cdd60621b604482015260640161055b565b6000908152600960205260409020600501805460ff19169055565b6001600160a01b03918216600090815260056020908152604080832093909416825291909152205460ff1690565b611352611490565b6001600160a01b0381166113b75760405162461bcd60e51b815260206004820152602660248201527f4f776e61626c653a206e6577206f776e657220697320746865207a65726f206160448201526564647265737360d01b606482015260840161055b565b6113c08161172d565b50565b6000818152600260205260409020546001600160a01b03166113c05760405162461bcd60e51b8152602060048201526018602482015277115490cdcc8c4e881a5b9d985b1a59081d1bdad95b88125160421b604482015260640161055b565b600081815260046020526040902080546001600160a01b0319166001600160a01b038416908117909155819061145782610950565b6001600160a01b03167f8c5be1e5ebec7d5bd14f71427d1e84f3dd0314c0f7b2291e5b200ac8c7c3b92560405160405180910390a45050565b6006546001600160a01b03163314610a9c5760405162461bcd60e51b815260206004820181905260248201527f4f776e61626c653a2063616c6c6572206973206e6f7420746865206f776e6572604482015260640161055b565b60026007540361153c5760405162461bcd60e51b815260206004820152601f60248201527f5265656e7472616e637947756172643a207265656e7472616e742063616c6c00604482015260640161055b565b6002600755565b61094c82826040518060200160405280600081525061191a565b60008061156983610950565b9050806001600160a01b0316846001600160a01b031614806115905750611590818561131c565b806115b45750836001600160a01b03166115a9846104c0565b6001600160a01b0316145b949350505050565b826001600160a01b03166115cf82610950565b6001600160a01b0316146115f55760405162461bcd60e51b815260040161055b9061246d565b6001600160a01b0382166116575760405162461bcd60e51b8152602060048201526024808201527f4552433732313a207472616e7366657220746f20746865207a65726f206164646044820152637265737360e01b606482015260840161055b565b611664838383600161194d565b826001600160a01b031661167782610950565b6001600160a01b03161461169d5760405162461bcd60e51b815260040161055b9061246d565b600081815260046020908152604080832080546001600160a01b03199081169091556001600160a01b0387811680865260038552838620805460001901905590871680865283862080546001019055868652600290945282852080549092168417909155905184937fddf252ad1be2c89b69c2b068fc378daa952ba7f163c4a11628f55a4df523b3ef91a4505050565b600680546001600160a01b038381166001600160a01b0319831681179093556040519116919082907f8be0079c531659141344cd1fd0a4f28419497f9722a3daafe3b4186f6b6457e090600090a35050565b816001600160a01b0316836001600160a01b0316036117e05760405162461bcd60e51b815260206004820152601960248201527f4552433732313a20617070726f766520746f2063616c6c657200000000000000604482015260640161055b565b6001600160a01b03838116600081815260056020908152604080832094871680845294825291829020805460ff191686151590811790915591519182527f17307eab39ab6107e8899845ad3d59bd9653f200f220920489ca2b5937696c319101610c9e565b6118508484846115bc565b61185c848484846119ce565b6110425760405162461bcd60e51b815260040161055b906124b2565b6060600c805461043d906121d6565b6060600061189483611acf565b600101905060008167ffffffffffffffff8111156118b4576118b4611e35565b6040519080825280601f01601f1916602001820160405280156118de576020820181803683370190505b5090508181016020015b600019016f181899199a1a9b1b9c1cb0b131b232b360811b600a86061a8153600a85049450846118e857509392505050565b6119248383611ba7565b61193160008484846119ce565b6105fc5760405162461bcd60e51b815260040161055b906124b2565b6001600160a01b038416158061196a57506001600160a01b038316155b6119c95760405162461bcd60e51b815260206004820152602a60248201527f536f6369616c20417263686974656374204e46547320617265206e6f6e2d7472604482015269616e7366657261626c6560b01b606482015260840161055b565b611042565b60006001600160a01b0384163b15611ac457604051630a85bd0160e11b81526001600160a01b0385169063150b7a0290611a12903390899088908890600401612504565b6020604051808303816000875af1925050508015611a4d575060408051601f3d908101601f19168201909252611a4a91810190612541565b60015b611aaa573d808015611a7b576040519150601f19603f3d011682016040523d82523d6000602084013e611a80565b606091505b508051600003611aa25760405162461bcd60e51b815260040161055b906124b2565b805181602001fd5b6001600160e01b031916630a85bd0160e11b1490506115b4565b506001949350505050565b60008072184f03e93ff9f4daa797ed6e38ed64bf6a1f0160401b8310611b0e5772184f03e93ff9f4daa797ed6e38ed64bf6a1f0160401b830492506040015b6d04ee2d6d415b85acef81000000008310611b3a576d04ee2d6d415b85acef8100000000830492506020015b662386f26fc100008310611b5857662386f26fc10000830492506010015b6305f5e1008310611b70576305f5e100830492506008015b6127108310611b8457612710830492506004015b60648310611b96576064830492506002015b600a83106104285760010192915050565b6001600160a01b038216611bfd5760405162461bcd60e51b815260206004820181905260248201527f4552433732313a206d696e7420746f20746865207a65726f2061646472657373604482015260640161055b565b6000818152600260205260409020546001600160a01b031615611c625760405162461bcd60e51b815260206004820152601c60248201527f4552433732313a20746f6b656e20616c7265616479206d696e74656400000000604482015260640161055b565b611c7060008383600161194d565b6000818152600260205260409020546001600160a01b031615611cd55760405162461bcd60e51b815260206004820152601c60248201527f4552433732313a20746f6b656e20616c7265616479206d696e74656400000000604482015260640161055b565b6001600160a01b038216600081815260036020908152604080832080546001019055848352600290915280822080546001600160a01b0319168417905551839291907fddf252ad1be2c89b69c2b068fc378daa952ba7f163c4a11628f55a4df523b3ef908290a45050565b6001600160e01b0319811681146113c057600080fd5b600060208284031215611d6857600080fd5b813561128081611d40565b60005b83811015611d8e578181015183820152602001611d76565b50506000910152565b60008151808452611daf816020860160208601611d73565b601f01601f19169290920160200192915050565b6020815260006112806020830184611d97565b600060208284031215611de857600080fd5b5035919050565b80356001600160a01b0381168114611e0657600080fd5b919050565b60008060408385031215611e1e57600080fd5b611e2783611def565b946020939093013593505050565b634e487b7160e01b600052604160045260246000fd5b600067ffffffffffffffff80841115611e6657611e66611e35565b604051601f8501601f19908116603f01168101908282118183101715611e8e57611e8e611e35565b81604052809350858152868686011115611ea757600080fd5b858560208301376000602087830101525050509392505050565b600082601f830112611ed257600080fd5b61128083833560208501611e4b565b600080600060608486031215611ef657600080fd5b611eff84611def565b9250602084013567ffffffffffffffff80821115611f1c57600080fd5b611f2887838801611ec1565b93506040860135915080821115611f3e57600080fd5b50611f4b86828701611ec1565b9150509250925092565b600080600060608486031215611f6a57600080fd5b611f7384611def565b9250611f8160208501611def565b9150604084013590509250925092565b600060208284031215611fa357600080fd5b813567ffffffffffffffff811115611fba57600080fd5b6115b484828501611ec1565b600060208284031215611fd857600080fd5b61128082611def565b60008060408385031215611ff457600080fd5b611ffd83611def565b91506020830135801515811461201257600080fd5b809150509250929050565b602081526000825161012080602085015261203c610140850183611d97565b91506020850151601f198086850301604087015261205a8483611d97565b935060408701519150808685030160608701526120778483611d97565b93506060870151915080868503016080870152506120958382611d97565b925050608085015160a085015260a08501516120b560c086018215159052565b5060c085015160e085015260e0850151610100818187015280870151838701525050508091505092915050565b600080600080608085870312156120f857600080fd5b61210185611def565b935061210f60208601611def565b925060408501359150606085013567ffffffffffffffff81111561213257600080fd5b8501601f8101871361214357600080fd5b61215287823560208401611e4b565b91505092959194509250565b6000806040838503121561217157600080fd5b823567ffffffffffffffff81111561218857600080fd5b61219485828601611ec1565b95602094909401359450505050565b600080604083850312156121b657600080fd5b6121bf83611def565b91506121cd60208401611def565b90509250929050565b600181811c908216806121ea57607f821691505b60208210810361220a57634e487b7160e01b600052602260045260246000fd5b50919050565b601f8211156105fc57600081815260208120601f850160051c810160208610156122375750805b601f850160051c820191505b8181101561225657828155600101612243565b505050505050565b815167ffffffffffffffff81111561227857612278611e35565b61228c8161228684546121d6565b84612210565b602080601f8311600181146122c157600084156122a95750858301515b600019600386901b1c1916600185901b178555612256565b600085815260208120601f198616915b828110156122f0578886015182559484019460019091019084016122d1565b508582101561230e5787850151600019600388901b60f8161c191681555b5050505050600190811b01905550565b6020808252602d908201527f4552433732313a2063616c6c6572206973206e6f7420746f6b656e206f776e6560408201526c1c881bdc88185c1c1c9bdd9959609a1b606082015260800190565b60208082526025908201527f506c6179657220646f6573206e6f74206861766520536f6369616c20417263686040820152641a5d1958dd60da1b606082015260800190565b634e487b7160e01b600052601160045260246000fd5b6000600182016123d8576123d86123b0565b5060010190565b80820180821115610428576104286123b0565b8082028115828204841417610428576104286123b0565b60408152600061241c6040830185611d97565b90508260208301529392505050565b6000835161243d818460208801611d73565b835190830190612451818360208801611d73565b01949350505050565b81810381811115610428576104286123b0565b60208082526025908201527f4552433732313a207472616e736665722066726f6d20696e636f72726563742060408201526437bbb732b960d91b606082015260800190565b60208082526032908201527f4552433732313a207472616e7366657220746f206e6f6e20455243373231526560408201527131b2b4bb32b91034b6b83632b6b2b73a32b960711b606082015260800190565b6001600160a01b038581168252841660208201526040810183905260806060820181905260009061253790830184611d97565b9695505050505050565b60006020828403121561255357600080fd5b815161128081611d4056fea26469706673582212200d9ccd8c55d7eab7eecede05f1d30187638ee508df5f837e47c030b511f2526c64736f6c63430008130033",
  "linkReferences": {},
  "deployedLinkReferences": {}
}