{
  "_format": "hh-sol-artifact-1",
  "contractName": "BaseSocialArchitect",
  "sourceName": "contracts/BaseSocialArchitect.sol",
  "abi": [
    {
      "inputs": [],
      "stateMutability": "nonpayable",
      "type": "constructor"
    },
    {
      "anonymous": false,
      "inputs": [
        {
          "indexed": true,
          "internalType": "address",
          "name": "owner",
          "type": "address"
        },
        {
          "indexed": true,
          "internalType": "address",
          "name": "approved",
          "type": "address"
        },
        {
          "indexed": true,
          "internalType": "uint256",
          "name": "tokenId",
          "type": "uint256"
        }
      ],
      "name": "Approval",
      "type": "event"
    },
    {
      "anonymous": false,
      "inputs": [
        {
          "indexed": true,
          "internalType": "address",
          "name": "owner",
          "type": "address"
        },
        {
          "indexed": true,
          "internalType": "address",
          "name": "operator",
          "type": "address"
        },
        {
          "indexed": false,
          "internalType": "bool",
          "name": "approved",
          "type": "bool"
        }
      ],
      "name": "ApprovalForAll",
      "type": "event"
    },
    {
      "anonymous": false,
      "inputs": [
        {
          "indexed": true,
          "internalType": "address",
          "name": "player",
          "type": "address"
        },
        {
          "indexed": true,
          "internalType": "uint256",
          "name": "tokenId",
          "type": "uint256"
        },
        {
          "indexed": false,
          "internalType": "string",
          "name": "communityName",
          "type": "string"
        },
        {
          "indexed": false,
          "internalType": "uint256",
          "name": "memberCount",
          "type": "uint256"
        }
      ],
      "name": "CommunityBuilt",
      "type": "event"
    },
    {
      "anonymous": false,
      "inputs": [
        {
          "indexed": true,
          "internalType": "address",
          "name": "player",
          "type": "address"
        },
        {
          "indexed": true,
          "internalType": "uint256",
          "name": "tokenId",
          "type": "uint256"
        },
        {
          "indexed": false,
          "internalType": "string",
          "name": "dAppName",
          "type": "string"
        }
      ],
      "name": "DAppIntegrated",
      "type": "event"
    },
    {
      "anonymous": false,
      "inputs": [
        {
          "indexed": true,
          "internalType": "address",
          "name": "previousOwner",
          "type": "address"
        },
        {
          "indexed": true,
          "internalType": "address",
          "name": "newOwner",
          "type": "address"
        }
      ],
      "name": "OwnershipTransferred",
      "type": "event"
    },
    {
      "anonymous": false,
      "inputs": [
        {
          "indexed": true,
          "internalType": "address",
          "name": "player",
          "type": "address"
        },
        {
          "indexed": true,
          "internalType": "uint256",
          "name": "tokenId",
          "type": "uint256"
        },
        {
          "indexed": false,
          "internalType": "string",
          "name": "name",
          "type": "string"
        }
      ],
      "name": "SocialArchitectMinted",
      "type": "event"
    },
    {
      "anonymous": false,
      "inputs": [
        {
          "indexed": true,
          "internalType": "address",
          "name": "player",
          "type": "address"
        },
        {
          "indexed": true,
          "internalType": "uint256",
          "name": "tokenId",
          "type": "uint256"
        },
        {
          "indexed": false,
          "internalType": "address",
          "name": "connectedPlayer",
          "type": "address"
        }
      ],
      "name": "SocialConnectionMade",
      "type": "event"
    },
    {
      "anonymous": false,
      "inputs": [
        {
          "indexed": true,
          "internalType": "address",
          "name": "player",
          "type": "address"
        },
        {
          "indexed": true,
          "internalType": "uint256",
          "name": "tokenId",
          "type": "uint256"
        },
        {
          "indexed": false,
          "internalType": "uint256",
          "name": "newScore",
          "type": "uint256"
        }
      ],
      "name": "SocialScoreUpdated",
      "type": "event"
    },
    {
      "anonymous": false,
      "inputs": [
        {
          "indexed": true,
          "internalType": "address",
          "name": "from",
          "type": "address"
        },
        {
          "indexed": true,
          "internalType": "address",
          "name": "to",
          "type": "address"
        },
        {
          "indexed": true,
          "internalType": "uint256",
          "name": "tokenId",
          "type": "uint256"
        }
      ],
      "name": "Transfer",
      "type": "event"
    },
    {
      "inputs": [
        {
          "internalType": "address",
          "name": "to",
          "type": "address"
        },
        {
          "internalType": "uint256",
          "name": "tokenId",
          "type": "uint256"
        }
      ],
      "name": "approve",
      "outputs": [],
      "stateMutability": "nonpayable",
      "type": "function"
    },
    {
      "inputs": [
        {
          "internalType": "address",
          "name": "owner",
          "type": "address"
        }
      ],
      "name": "balanceOf",
      "outputs": [
        {
          "internalType": "uint256",
          "name": "",
          "type": "uint256"
        }
      ],
      "stateMutability": "view",
      "type": "function"
    },
    {
      "inputs": [
        {
          "internalType": "string",
          "name": "communityName",
          "type": "string"
        },
        {
          "internalType": "uint256",
          "name": "memberCount",
          "type": "uint256"
        }
      ],
      "name": "buildCommunity",
      "outputs": [],
      "stateMutability": "nonpayable",
      "type": "function"
    },
    {
      "inputs": [
        {
          "internalType": "uint256",
          "name": "tokenId",
          "type": "uint256"
        }
      ],
      "name": "deactivateSocialArchitect",
      "outputs": [],
      "stateMutability": "nonpayable",
      "type": "function"
    },
    {
      "inputs": [
        {
          "internalType": "uint256",
          "name": "tokenId",
          "type": "uint256"
        }
      ],
      "name": "getApproved",
      "outputs": [
        {
          "internalType": "address",
          "name": "",
          "type": "address"
        }
      ],
      "stateMutability": "view",
      "type": "function"
    },
    {
      "inputs": [
        {
          "internalType": "address",
          "name": "player",
          "type": "address"
        }
      ],
      "name": "getPlayerSocialArchitect",
      "outputs": [
        {
          "internalType": "uint256",
          "name": "",
          "type": "uint256"
        }
      ],
      "stateMutability": "view",
      "type": "function"
    },
    {
      "inputs": [
        {
          "internalType": "uint256",
          "name": "tokenId",
          "type": "uint256"
        }
      ],
      "name": "getSocialArchitectData",
      "outputs": [
        {
          "components": [
            {
              "internalType": "string",
              "name": "name",
              "type": "string"
            },
            {
              "internalType": "string",
              "name": "title",
              "type": "string"
            },
            {
              "internalType": "string",
              "name": "realm",
              "type": "string"
            },
            {
              "internalType": "string",
              "name": "rarity",
              "type": "string"
            },
            {
              "internalType": "uint256",
              "name": "mintedAt",
              "type": "uint256"
            },
            {
              "internalType": "bool",
              "name": "isActive",
              "type": "bool"
            },
            {
              "internalType": "uint256",
              "name": "communitiesBuilt",
              "type": "uint256"
            },
            {
              "internalType": "uint256",
              "name": "socialConnections",
              "type": "uint256"
            },
            {
              "internalType": "uint256",
              "name": "dAppsIntegrated",
              "type": "uint256"
            },
            {
              "internalType": "uint256",
              "name": "socialScore",
              "type": "uint256"
            }
          ],
          "internalType": "struct BaseSocialArchitect.SocialArchitectData",
          "name": "",
          "type": "tuple"
        }
      ],
      "stateMutability": "view",
      "type": "function"
    },
    {
      "inputs": [
        {
          "internalType": "address",
          "name": "player",
          "type": "address"
        }
      ],
      "name": "hasSocialArchitect",
      "outputs": [
        {
          "internalType": "bool",
          "name": "",
          "type": "bool"
        }
      ],
      "stateMutability": "view",
      "type": "function"
    },
    {
      "inputs": [
        {
          "internalType": "string",
          "name": "dAppName",
          "type": "string"
        }
      ],
      "name": "integrateDApp",
      "outputs": [],
      "stateMutability": "nonpayable",
      "type": "function"
    },
    {
      "inputs": [
        {
          "internalType": "address",
          "name": "owner",
          "type": "address"
        },
        {
          "internalType": "address",
          "name": "operator",
          "type": "address"
        }
      ],
      "name": "isApprovedForAll",
      "outputs": [
        {
          "internalType": "bool",
          "name": "",
          "type": "bool"
        }
      ],
      "stateMutability": "view",
      "type": "function"
    },
    {
      "inputs": [
        {
          "internalType": "address",
          "name": "connectedPlayer",
          "type": "address"
        }
      ],
      "name": "makeSocialConnection",
      "outputs": [],
      "stateMutability": "nonpayable",
      "type": "function"
    },
    {
      "inputs": [
        {
          "internalType": "address",
          "name": "player",
          "type": "address"
        },
        {
          "internalType": "string",
          "name": "name",
          "type": "string"
        },
        {
          "internalType": "string",
          "name": "title",
          "type": "string"
        }
      ],
      "name": "mintSocialArchitect",
      "outputs": [],
      "stateMutability": "nonpayable",
      "type": "function"
    },
    {
      "inputs": [],
      "name": "name",
      "outputs": [
        {
          "internalType": "string",
          "name": "",
          "type": "string"
        }
      ],
      "stateMutability": "view",
      "type": "function"
    },
    {
      "inputs": [],
      "name": "owner",
      "outputs": [
        {
          "internalType": "address",
          "name": "",
          "type": "address"
        }
      ],
      "stateMutability": "view",
      "type": "function"
    },
    {
      "inputs": [
        {
          "internalType": "uint256",
          "name": "tokenId",
          "type": "uint256"
        }
      ],
      "name": "ownerOf",
      "outputs": [
        {
          "internalType": "address",
          "name": "",
          "type": "address"
        }
      ],
      "stateMutability": "view",
      "type": "function"
    },
    {
      "inputs": [],
      "name": "renounceOwnership",
      "outputs": [],
      "stateMutability": "nonpayable",
      "type": "function"
    },
    {
      "inputs": [
        {
          "internalType": "address",
          "name": "from",
          "type": "address"
        },
        {
          "internalType": "address",
          "name": "to",
          "type": "address"
        },
        {
          "internalType": "uint256",
          "name": "tokenId",
          "type": "uint256"
        }
      ],
      "name": "safeTransferFrom",
      "outputs": [],
      "stateMutability": "nonpayable",
      "type": "function"
    },
    {
      "inputs": [
        {
          "internalType": "address",
          "name": "from",
          "type": "address"
        },
        {
          "internalType": "address",
          "name": "to",
          "type": "address"
        },
        {
          "internalType": "uint256",
          "name": "tokenId",
          "type": "uint256"
        },
        {
          "internalType": "bytes",
          "name": "data",
          "type": "bytes"
        }
      ],
      "name": "safeTransferFrom",
      "outputs": [],
      "stateMutability": "nonpayable",
      "type": "function"
    },
    {
      "inputs": [
        {
          "internalType": "address",
          "name": "operator",
          "type": "address"
        },
        {
          "internalType": "bool",
          "name": "approved",
          "type": "bool"
        }
      ],
      "name": "setApprovalForAll",
      "outputs": [],
      "stateMutability": "nonpayable",
      "type": "function"
    },
    {
      "inputs": [
        {
          "internalType": "string",
          "name": "baseURI",
          "type": "string"
        }
      ],
      "name": "setBaseURI",
      "outputs": [],
      "stateMutability": "nonpayable",
      "type": "function"
    },
    {
      "inputs": [
        {
          "internalType": "bytes4",
          "name": "interfaceId",
          "type": "bytes4"
        }
      ],
      "name": "supportsInterface",
      "outputs": [
        {
          "internalType": "bool",
          "name": "",
          "type": "bool"
        }
      ],
      "stateMutability": "view",
      "type": "function"
    },
    {
      "inputs": [],
      "name": "symbol",
      "outputs": [
        {
          "internalType": "string",
          "name": "",
          "type": "string"
        }
      ],
      "stateMutability": "view",
      "type": "function"
    },
    {
      "inputs": [
        {
          "internalType": "uint256",
          "name": "tokenId",
          "type": "uint256"
        }
      ],
      "name": "tokenURI",
      "outputs": [
        {
          "internalType": "string",
          "name": "",
          "type": "string"
        }
      ],
      "stateMutability": "view",
      "type": "function"
    },
    {
      "inputs": [],
      "name": "totalSupply",
      "outputs": [
        {
          "internalType": "uint256",
          "name": "",
          "type": "uint256"
        }
      ],
      "stateMutability": "view",
      "type": "function"
    },
    {
      "inputs": [
        {
          "internalType": "address",
          "name": "from",
          "type": "address"
        },
        {
          "internalType": "address",
          "name": "to",
          "type": "address"
        },
        {
          "internalType": "uint256",
          "name": "tokenId",
          "type": "uint256"
        }
      ],
      "name": "transferFrom",
      "outputs": [],
      "stateMutability": "nonpayable",
      "type": "function"
    },
    {
      "inputs": [
        {
          "internalType": "address",
          "name": "newOwner",
          "type": "address"
        }
      ],
      "name": "transferOwnership",
      "outputs": [],
      "stateMutability": "nonpayable",
      "type": "function"
    }
  ],
  "bytecode": "0x60806040523480156200001157600080fd5b506040518060400160405280601581526020017f4261736520536f6369616c2041726368697465637400000000000000000000008152506040518060400160405280600681526020016514d3d0d2505360d21b8152508160009081620000789190620001ee565b506001620000878282620001ee565b505050620000a46200009e620000f360201b60201c565b620000f7565b600160075560408051808201909152601581527f68747470733a2f2f697066732e696f2f697066732f00000000000000000000006020820152600c90620000ec9082620001ee565b50620002ba565b3390565b600680546001600160a01b038381166001600160a01b0319831681179093556040519116919082907f8be0079c531659141344cd1fd0a4f28419497f9722a3daafe3b4186f6b6457e090600090a35050565b634e487b7160e01b600052604160045260246000fd5b600181811c908216806200017457607f821691505b6020821081036200019557634e487b7160e01b600052602260045260246000fd5b50919050565b601f821115620001e957600081815260208120601f850160051c81016020861015620001c45750805b601f850160051c820191505b81811015620001e557828155600101620001d0565b5050505b505050565b81516001600160401b038111156200020a576200020a62000149565b62000222816200021b84546200015f565b846200019b565b602080601f8311600181146200025a5760008415620002415750858301515b600019600386901b1c1916600185901b178555620001e5565b600085815260208120601f198616915b828110156200028b578886015182559484019460019091019084016200026a565b5085821015620002aa5787850151600019600388901b60f8161c191681555b5050505050600190811b01905550565b61256a80620002ca6000396000f3fe608060405234801561001057600080fd5b506004361061018e5760003560e01c80637760842e116100de578063a8b79a4011610097578063c87b56dd11610071578063c87b56dd14610377578063e7f757f91461038a578063e985e9c51461039d578063f2fde38b146103b057600080fd5b8063a8b79a4014610318578063acb3d1a114610338578063b88d4fde1461036457600080fd5b80637760842e146102b3578063820de528146102c65780638da5cb5b146102d95780639409ccea146102ea57806395d89b41146102fd578063a22cb4651461030557600080fd5b806323b872dd1161014b5780636352211e116101255780636352211e14610272578063659af2001461028557806370a0823114610298578063715018a6146102ab57600080fd5b806323b872dd1461023957806342842e0e1461024c57806355f804b31461025f57600080fd5b806301ffc9a71461019357806306fdde03146101bb578063081812fc146101d0578063095ea7b3146101fb5780631364cdaa1461021057806318160ddd14610223575b600080fd5b6101a66101a1366004611cfb565b6103c3565b60405190151581526020015b60405180910390f35b6101c3610415565b6040516101b29190611d68565b6101e36101de366004611d7b565b6104a7565b6040516001600160a01b0390911681526020016101b2565b61020e610209366004611db0565b6104ce565b005b61020e61021e366004611e86565b6105e8565b61022b610883565b6040519081526020016101b2565b61020e610247366004611efa565b610893565b61020e61025a366004611efa565b6108c4565b61020e61026d366004611f36565b6108df565b6101e3610280366004611d7b565b6108f7565b61022b610293366004611f6b565b610957565b61022b6102a6366004611f6b565b6109ab565b61020e610a31565b61020e6102c1366004611f36565b610a45565b61020e6102d4366004611f86565b610b70565b6006546001600160a01b03166101e3565b61020e6102f8366004611f6b565b610ca8565b6101c3610e2e565b61020e610313366004611fcb565b610e3d565b61032b610326366004611d7b565b610e48565b6040516101b29190612007565b6101a6610346366004611f6b565b6001600160a01b03166000908152600b602052604090205460ff1690565b61020e6103723660046120d9565b6111a4565b6101c3610385366004611d7b565b6111dc565b61020e610398366004611d7b565b611243565b6101a66103ab366004612155565b6112c1565b61020e6103be366004611f6b565b6112ef565b60006001600160e01b031982166380ac58cd60e01b14806103f457506001600160e01b03198216635b5e139f60e01b145b8061040f57506301ffc9a760e01b6001600160e01b03198316145b92915050565b60606000805461042490612188565b80601f016020809104026020016040519081016040528092919081815260200182805461045090612188565b801561049d5780601f106104725761010080835404028352916020019161049d565b820191906000526020600020905b81548152906001019060200180831161048057829003601f168201915b5050505050905090565b60006104b282611368565b506000908152600460205260409020546001600160a01b031690565b60006104d9826108f7565b9050806001600160a01b0316836001600160a01b03160361054b5760405162461bcd60e51b815260206004820152602160248201527f4552433732313a20617070726f76616c20746f2063757272656e74206f776e656044820152603960f91b60648201526084015b60405180910390fd5b336001600160a01b0382161480610567575061056781336112c1565b6105d95760405162461bcd60e51b815260206004820152603d60248201527f4552433732313a20617070726f76652063616c6c6572206973206e6f7420746f60448201527f6b656e206f776e6572206f7220617070726f76656420666f7220616c6c0000006064820152608401610542565b6105e383836113c7565b505050565b6105f0611435565b6105f861148f565b6001600160a01b0383166000908152600b602052604090205460ff161561066d5760405162461bcd60e51b815260206004820152602360248201527f506c6179657220616c72656164792068617320536f6369616c204172636869746044820152621958dd60ea1b6064820152608401610542565b6001600160a01b0383166106bc5760405162461bcd60e51b8152602060048201526016602482015275496e76616c696420706c61796572206164647265737360501b6044820152606401610542565b6106ca600880546001019055565b60006106d560085490565b604080516101408101825285815260208082018690528251808401845260048152634261736560e01b818301528284015282518084018452600681526521b7b6b6b7b760d11b818301526060830152426080830152600160a0830152600060c0830181905260e08301819052610100830181905260646101208401528481526009909152919091208151929350909181906107709082612210565b50602082015160018201906107859082612210565b506040820151600282019061079a9082612210565b50606082015160038201906107af9082612210565b506080820151600482015560a082015160058201805491151560ff1992831617905560c0830151600683015560e083015160078301556101008301516008830155610120909201516009909101556001600160a01b0385166000908152600a60209081526040808320859055600b90915290208054909116600117905561083684826114e8565b80846001600160a01b03167f1d161dff2bbbe0d68507b039d9e20ae8e8c4e29302c421e2e134eea73ff1f3f6856040516108709190611d68565b60405180910390a3506105e36001600755565b600061088e60085490565b905090565b61089d3382611502565b6108b95760405162461bcd60e51b8152600401610542906122d0565b6105e3838383611561565b6105e3838383604051806020016040528060008152506111a4565b6108e7611435565b600c6108f38282612210565b5050565b6000818152600260205260408120546001600160a01b03168061040f5760405162461bcd60e51b8152602060048201526018602482015277115490cdcc8c4e881a5b9d985b1a59081d1bdad95b88125160421b6044820152606401610542565b6001600160a01b0381166000908152600b602052604081205460ff1661098f5760405162461bcd60e51b81526004016105429061231d565b506001600160a01b03166000908152600a602052604090205490565b60006001600160a01b038216610a155760405162461bcd60e51b815260206004820152602960248201527f4552433732313a2061646472657373207a65726f206973206e6f7420612076616044820152683634b21037bbb732b960b91b6064820152608401610542565b506001600160a01b031660009081526003602052604090205490565b610a39611435565b610a4360006116d2565b565b336000908152600b602052604090205460ff16610a745760405162461bcd60e51b81526004016105429061231d565b336000908152600a60209081526040808320548084526009909252909120600581015460ff16610ab65760405162461bcd60e51b815260040161054290612362565b600881018054906000610ac8836123af565b91905055506064816009016000828254610ae291906123c8565b9091555050604051829033907f1493c9574cb5d0e6f6e2c7ebddb9dfe1781150e7666edce90300b258fe03af4190610b1b908790611d68565b60405180910390a381336001600160a01b03167fba8e19ca8017729c98b878fdd653a2ec3fa756ed9389c3ad03e2dd8cf07f45528360090154604051610b6391815260200190565b60405180910390a3505050565b336000908152600b602052604090205460ff16610b9f5760405162461bcd60e51b81526004016105429061231d565b336000908152600a60209081526040808320548084526009909252909120600581015460ff16610be15760405162461bcd60e51b815260040161054290612362565b600681018054906000610bf3836123af565b90915550610c04905083600a6123db565b816009016000828254610c1791906123c8565b9091555050604051829033907fad9a3d54881422be33fa97058a560f0cbff0dd007390e3a644403cd47e8d67c990610c5290889088906123f2565b60405180910390a381336001600160a01b03167fba8e19ca8017729c98b878fdd653a2ec3fa756ed9389c3ad03e2dd8cf07f45528360090154604051610c9a91815260200190565b60405180910390a350505050565b336000908152600b602052604090205460ff16610cd75760405162461bcd60e51b81526004016105429061231d565b336001600160a01b03821603610d2f5760405162461bcd60e51b815260206004820152601a60248201527f43616e6e6f7420636f6e6e65637420746f20796f757273656c660000000000006044820152606401610542565b6001600160a01b038116610d7e5760405162461bcd60e51b8152602060048201526016602482015275496e76616c696420706c61796572206164647265737360501b6044820152606401610542565b336000908152600a60209081526040808320548084526009909252909120600581015460ff16610dc05760405162461bcd60e51b815260040161054290612362565b600781018054906000610dd2836123af565b91905055506032816009016000828254610dec91906123c8565b90915550506040516001600160a01b0384168152829033907f18fd39db3e7708f3b273c3e57ba0c0e20cd29ab251b60cc6376486e2d607df4890602001610b1b565b60606001805461042490612188565b6108f3338383611724565b610ea06040518061014001604052806060815260200160608152602001606081526020016060815260200160008152602001600015158152602001600081526020016000815260200160008152602001600081525090565b6000828152600260205260409020546001600160a01b0316610efb5760405162461bcd60e51b8152602060048201526014602482015273151bdad95b88191bd95cc81b9bdd08195e1a5cdd60621b6044820152606401610542565b6000828152600960205260409081902081516101408101909252805482908290610f2490612188565b80601f0160208091040260200160405190810160405280929190818152602001828054610f5090612188565b8015610f9d5780601f10610f7257610100808354040283529160200191610f9d565b820191906000526020600020905b815481529060010190602001808311610f8057829003601f168201915b50505050508152602001600182018054610fb690612188565b80601f0160208091040260200160405190810160405280929190818152602001828054610fe290612188565b801561102f5780601f106110045761010080835404028352916020019161102f565b820191906000526020600020905b81548152906001019060200180831161101257829003601f168201915b5050505050815260200160028201805461104890612188565b80601f016020809104026020016040519081016040528092919081815260200182805461107490612188565b80156110c15780601f10611096576101008083540402835291602001916110c1565b820191906000526020600020905b8154815290600101906020018083116110a457829003601f168201915b505050505081526020016003820180546110da90612188565b80601f016020809104026020016040519081016040528092919081815260200182805461110690612188565b80156111535780601f1061112857610100808354040283529160200191611153565b820191906000526020600020905b81548152906001019060200180831161113657829003601f168201915b505050918352505060048201546020820152600582015460ff16151560408201526006820154606082015260078201546080820152600882015460a082015260099091015460c09091015292915050565b6111ae3383611502565b6111ca5760405162461bcd60e51b8152600401610542906122d0565b6111d6848484846117ea565b50505050565b60606111e782611368565b60006111f161181d565b90506000815111611211576040518060200160405280600081525061123c565b8061121b8461182c565b60405160200161122c929190612414565b6040516020818303038152906040525b9392505050565b61124b611435565b6000818152600260205260409020546001600160a01b03166112a65760405162461bcd60e51b8152602060048201526014602482015273151bdad95b88191bd95cc81b9bdd08195e1a5cdd60621b6044820152606401610542565b6000908152600960205260409020600501805460ff19169055565b6001600160a01b03918216600090815260056020908152604080832093909416825291909152205460ff1690565b6112f7611435565b6001600160a01b03811661135c5760405162461bcd60e51b815260206004820152602660248201527f4f776e61626c653a206e6577206f776e657220697320746865207a65726f206160448201526564647265737360d01b6064820152608401610542565b611365816116d2565b50565b6000818152600260205260409020546001600160a01b03166113655760405162461bcd60e51b8152602060048201526018602482015277115490cdcc8c4e881a5b9d985b1a59081d1bdad95b88125160421b6044820152606401610542565b600081815260046020526040902080546001600160a01b0319166001600160a01b03841690811790915581906113fc826108f7565b6001600160a01b03167f8c5be1e5ebec7d5bd14f71427d1e84f3dd0314c0f7b2291e5b200ac8c7c3b92560405160405180910390a45050565b6006546001600160a01b03163314610a435760405162461bcd60e51b815260206004820181905260248201527f4f776e61626c653a2063616c6c6572206973206e6f7420746865206f776e65726044820152606401610542565b6002600754036114e15760405162461bcd60e51b815260206004820152601f60248201527f5265656e7472616e637947756172643a207265656e7472616e742063616c6c006044820152606401610542565b6002600755565b6108f38282604051806020016040528060008152506118bf565b60008061150e836108f7565b9050806001600160a01b0316846001600160a01b03161480611535575061153581856112c1565b806115595750836001600160a01b031661154e846104a7565b6001600160a01b0316145b949350505050565b826001600160a01b0316611574826108f7565b6001600160a01b03161461159a5760405162461bcd60e51b815260040161054290612443565b6001600160a01b0382166115fc5760405162461bcd60e51b8152602060048201526024808201527f4552433732313a207472616e7366657220746f20746865207a65726f206164646044820152637265737360e01b6064820152608401610542565b61160983838360016118f2565b826001600160a01b031661161c826108f7565b6001600160a01b0316146116425760405162461bcd60e51b815260040161054290612443565b600081815260046020908152604080832080546001600160a01b03199081169091556001600160a01b0387811680865260038552838620805460001901905590871680865283862080546001019055868652600290945282852080549092168417909155905184937fddf252ad1be2c89b69c2b068fc378daa952ba7f163c4a11628f55a4df523b3ef91a4505050565b600680546001600160a01b038381166001600160a01b0319831681179093556040519116919082907f8be0079c531659141344cd1fd0a4f28419497f9722a3daafe3b4186f6b6457e090600090a35050565b816001600160a01b0316836001600160a01b0316036117855760405162461bcd60e51b815260206004820152601960248201527f4552433732313a20617070726f766520746f2063616c6c6572000000000000006044820152606401610542565b6001600160a01b03838116600081815260056020908152604080832094871680845294825291829020805460ff191686151590811790915591519182527f17307eab39ab6107e8899845ad3d59bd9653f200f220920489ca2b5937696c319101610b63565b6117f5848484611561565b61180184848484611973565b6111d65760405162461bcd60e51b815260040161054290612488565b6060600c805461042490612188565b6060600061183983611a74565b600101905060008167ffffffffffffffff81111561185957611859611dda565b6040519080825280601f01601f191660200182016040528015611883576020820181803683370190505b5090508181016020015b600019016f181899199a1a9b1b9c1cb0b131b232b360811b600a86061a8153600a850494508461188d57509392505050565b6118c98383611b4c565b6118d66000848484611973565b6105e35760405162461bcd60e51b815260040161054290612488565b6001600160a01b038416158061190f57506001600160a01b038316155b61196e5760405162461bcd60e51b815260206004820152602a60248201527f536f6369616c20417263686974656374204e46547320617265206e6f6e2d7472604482015269616e7366657261626c6560b01b6064820152608401610542565b6111d6565b60006001600160a01b0384163b15611a6957604051630a85bd0160e11b81526001600160a01b0385169063150b7a02906119b79033908990889088906004016124da565b6020604051808303816000875af19250505080156119f2575060408051601f3d908101601f191682019092526119ef91810190612517565b60015b611a4f573d808015611a20576040519150601f19603f3d011682016040523d82523d6000602084013e611a25565b606091505b508051600003611a475760405162461bcd60e51b815260040161054290612488565b805181602001fd5b6001600160e01b031916630a85bd0160e11b149050611559565b506001949350505050565b60008072184f03e93ff9f4daa797ed6e38ed64bf6a1f0160401b8310611ab35772184f03e93ff9f4daa797ed6e38ed64bf6a1f0160401b830492506040015b6d04ee2d6d415b85acef81000000008310611adf576d04ee2d6d415b85acef8100000000830492506020015b662386f26fc100008310611afd57662386f26fc10000830492506010015b6305f5e1008310611b15576305f5e100830492506008015b6127108310611b2957612710830492506004015b60648310611b3b576064830492506002015b600a831061040f5760010192915050565b6001600160a01b038216611ba25760405162461bcd60e51b815260206004820181905260248201527f4552433732313a206d696e7420746f20746865207a65726f20616464726573736044820152606401610542565b6000818152600260205260409020546001600160a01b031615611c075760405162461bcd60e51b815260206004820152601c60248201527f4552433732313a20746f6b656e20616c7265616479206d696e746564000000006044820152606401610542565b611c156000838360016118f2565b6000818152600260205260409020546001600160a01b031615611c7a5760405162461bcd60e51b815260206004820152601c60248201527f4552433732313a20746f6b656e20616c7265616479206d696e746564000000006044820152606401610542565b6001600160a01b038216600081815260036020908152604080832080546001019055848352600290915280822080546001600160a01b0319168417905551839291907fddf252ad1be2c89b69c2b068fc378daa952ba7f163c4a11628f55a4df523b3ef908290a45050565b6001600160e01b03198116811461136557600080fd5b600060208284031215611d0d57600080fd5b813561123c81611ce5565b60005b83811015611d33578181015183820152602001611d1b565b50506000910152565b60008151808452611d54816020860160208601611d18565b601f01601f19169290920160200192915050565b60208152600061123c6020830184611d3c565b600060208284031215611d8d57600080fd5b5035919050565b80356001600160a01b0381168114611dab57600080fd5b919050565b60008060408385031215611dc357600080fd5b611dcc83611d94565b946020939093013593505050565b634e487b7160e01b600052604160045260246000fd5b600067ffffffffffffffff80841115611e0b57611e0b611dda565b604051601f8501601f19908116603f01168101908282118183101715611e3357611e33611dda565b81604052809350858152868686011115611e4c57600080fd5b858560208301376000602087830101525050509392505050565b600082601f830112611e7757600080fd5b61123c83833560208501611df0565b600080600060608486031215611e9b57600080fd5b611ea484611d94565b9250602084013567ffffffffffffffff80821115611ec157600080fd5b611ecd87838801611e66565b93506040860135915080821115611ee357600080fd5b50611ef086828701611e66565b9150509250925092565b600080600060608486031215611f0f57600080fd5b611f1884611d94565b9250611f2660208501611d94565b9150604084013590509250925092565b600060208284031215611f4857600080fd5b813567ffffffffffffffff811115611f5f57600080fd5b61155984828501611e66565b600060208284031215611f7d57600080fd5b61123c82611d94565b60008060408385031215611f9957600080fd5b823567ffffffffffffffff811115611fb057600080fd5b611fbc85828601611e66565b95602094909401359450505050565b60008060408385031215611fde57600080fd5b611fe783611d94565b915060208301358015158114611ffc57600080fd5b809150509250929050565b6020815260008251610140806020850152612026610160850183611d3c565b91506020850151601f19808685030160408701526120448483611d3c565b935060408701519150808685030160608701526120618483611d3c565b935060608701519150808685030160808701525061207f8382611d3c565b925050608085015160a085015260a085015161209f60c086018215159052565b5060c085015160e0858101919091528501516101008086019190915285015161012080860191909152909401519390920192909252919050565b600080600080608085870312156120ef57600080fd5b6120f885611d94565b935061210660208601611d94565b925060408501359150606085013567ffffffffffffffff81111561212957600080fd5b8501601f8101871361213a57600080fd5b61214987823560208401611df0565b91505092959194509250565b6000806040838503121561216857600080fd5b61217183611d94565b915061217f60208401611d94565b90509250929050565b600181811c9082168061219c57607f821691505b6020821081036121bc57634e487b7160e01b600052602260045260246000fd5b50919050565b601f8211156105e357600081815260208120601f850160051c810160208610156121e95750805b601f850160051c820191505b81811015612208578281556001016121f5565b505050505050565b815167ffffffffffffffff81111561222a5761222a611dda565b61223e816122388454612188565b846121c2565b602080601f831160018114612273576000841561225b5750858301515b600019600386901b1c1916600185901b178555612208565b600085815260208120601f198616915b828110156122a257888601518255948401946001909101908401612283565b50858210156122c05787850151600019600388901b60f8161c191681555b5050505050600190811b01905550565b6020808252602d908201527f4552433732313a2063616c6c6572206973206e6f7420746f6b656e206f776e6560408201526c1c881bdc88185c1c1c9bdd9959609a1b606082015260800190565b60208082526025908201527f506c6179657220646f6573206e6f74206861766520536f6369616c20417263686040820152641a5d1958dd60da1b606082015260800190565b6020808252601e908201527f536f6369616c20417263686974656374206973206e6f74206163746976650000604082015260600190565b634e487b7160e01b600052601160045260246000fd5b6000600182016123c1576123c1612399565b5060010190565b8082018082111561040f5761040f612399565b808202811582820484141761040f5761040f612399565b6040815260006124056040830185611d3c565b90508260208301529392505050565b60008351612426818460208801611d18565b83519083019061243a818360208801611d18565b01949350505050565b60208082526025908201527f4552433732313a207472616e736665722066726f6d20696e636f72726563742060408201526437bbb732b960d91b606082015260800190565b60208082526032908201527f4552433732313a207472616e7366657220746f206e6f6e20455243373231526560408201527131b2b4bb32b91034b6b83632b6b2b73a32b960711b606082015260800190565b6001600160a01b038581168252841660208201526040810183905260806060820181905260009061250d90830184611d3c565b9695505050505050565b60006020828403121561252957600080fd5b815161123c81611ce556fea264697066735822122095d32df5cb51c29fafe719a84eaed65d6484cbeff47ddab6dab15946afb8a27964736f6c63430008130033",
  "linkReferences": {},
  "deployedLinkReferences": {}
}