{
  "_format": "hh-sol-artifact-1",
  "contractName": "ENSIdentityGuardian",
  "sourceName": "contracts/ENSIdentityGuardian.sol",
  "abi": [
    {
      "inputs": [],
      "stateMutability": "nonpayable",
      "type": "constructor"
    },
    {
      "anonymous": false,
      "inputs": [
        {
          "indexed": true,
          "internalType": "address",
          "name": "owner",
          "type": "address"
        },
        {
          "indexed": true,
          "internalType": "address",
          "name": "approved",
          "type": "address"
        },
        {
          "indexed": true,
          "internalType": "uint256",
          "name": "tokenId",
          "type": "uint256"
        }
      ],
      "name": "Approval",
      "type": "event"
    },
    {
      "anonymous": false,
      "inputs": [
        {
          "indexed": true,
          "internalType": "address",
          "name": "owner",
          "type": "address"
        },
        {
          "indexed": true,
          "internalType": "address",
          "name": "operator",
          "type": "address"
        },
        {
          "indexed": false,
          "internalType": "bool",
          "name": "approved",
          "type": "bool"
        }
      ],
      "name": "ApprovalForAll",
      "type": "event"
    },
    {
      "anonymous": false,
      "inputs": [
        {
          "indexed": true,
          "internalType": "address",
          "name": "player",
          "type": "address"
        },
        {
          "indexed": true,
          "internalType": "uint256",
          "name": "tokenId",
          "type": "uint256"
        },
        {
          "indexed": false,
          "internalType": "address",
          "name": "attestedAddress",
          "type": "address"
        },
        {
          "indexed": false,
          "internalType": "string",
          "name": "attestationType",
          "type": "string"
        }
      ],
      "name": "AttestationIssued",
      "type": "event"
    },
    {
      "anonymous": false,
      "inputs": [
        {
          "indexed": true,
          "internalType": "address",
          "name": "player",
          "type": "address"
        },
        {
          "indexed": true,
          "internalType": "uint256",
          "name": "tokenId",
          "type": "uint256"
        },
        {
          "indexed": false,
          "internalType": "string",
          "name": "domainName",
          "type": "string"
        },
        {
          "indexed": false,
          "internalType": "bool",
          "name": "isActive",
          "type": "bool"
        }
      ],
      "name": "DomainManaged",
      "type": "event"
    },
    {
      "anonymous": false,
      "inputs": [
        {
          "indexed": true,
          "internalType": "address",
          "name": "player",
          "type": "address"
        },
        {
          "indexed": true,
          "internalType": "uint256",
          "name": "tokenId",
          "type": "uint256"
        },
        {
          "indexed": false,
          "internalType": "string",
          "name": "name",
          "type": "string"
        }
      ],
      "name": "IdentityGuardianMinted",
      "type": "event"
    },
    {
      "anonymous": false,
      "inputs": [
        {
          "indexed": true,
          "internalType": "address",
          "name": "player",
          "type": "address"
        },
        {
          "indexed": true,
          "internalType": "uint256",
          "name": "tokenId",
          "type": "uint256"
        },
        {
          "indexed": false,
          "internalType": "address",
          "name": "verifiedAddress",
          "type": "address"
        },
        {
          "indexed": false,
          "internalType": "string",
          "name": "identityType",
          "type": "string"
        }
      ],
      "name": "IdentityVerified",
      "type": "event"
    },
    {
      "anonymous": false,
      "inputs": [
        {
          "indexed": true,
          "internalType": "address",
          "name": "previousOwner",
          "type": "address"
        },
        {
          "indexed": true,
          "internalType": "address",
          "name": "newOwner",
          "type": "address"
        }
      ],
      "name": "OwnershipTransferred",
      "type": "event"
    },
    {
      "anonymous": false,
      "inputs": [
        {
          "indexed": true,
          "internalType": "address",
          "name": "from",
          "type": "address"
        },
        {
          "indexed": true,
          "internalType": "address",
          "name": "to",
          "type": "address"
        },
        {
          "indexed": true,
          "internalType": "uint256",
          "name": "tokenId",
          "type": "uint256"
        }
      ],
      "name": "Transfer",
      "type": "event"
    },
    {
      "anonymous": false,
      "inputs": [
        {
          "indexed": true,
          "internalType": "address",
          "name": "player",
          "type": "address"
        },
        {
          "indexed": true,
          "internalType": "uint256",
          "name": "tokenId",
          "type": "uint256"
        },
        {
          "indexed": false,
          "internalType": "uint256",
          "name": "newScore",
          "type": "uint256"
        }
      ],
      "name": "TrustScoreUpdated",
      "type": "event"
    },
    {
      "inputs": [
        {
          "internalType": "address",
          "name": "to",
          "type": "address"
        },
        {
          "internalType": "uint256",
          "name": "tokenId",
          "type": "uint256"
        }
      ],
      "name": "approve",
      "outputs": [],
      "stateMutability": "nonpayable",
      "type": "function"
    },
    {
      "inputs": [
        {
          "internalType": "address",
          "name": "owner",
          "type": "address"
        }
      ],
      "name": "balanceOf",
      "outputs": [
        {
          "internalType": "uint256",
          "name": "",
          "type": "uint256"
        }
      ],
      "stateMutability": "view",
      "type": "function"
    },
    {
      "inputs": [
        {
          "internalType": "uint256",
          "name": "tokenId",
          "type": "uint256"
        }
      ],
      "name": "deactivateIdentityGuardian",
      "outputs": [],
      "stateMutability": "nonpayable",
      "type": "function"
    },
    {
      "inputs": [
        {
          "internalType": "uint256",
          "name": "tokenId",
          "type": "uint256"
        }
      ],
      "name": "getApproved",
      "outputs": [
        {
          "internalType": "address",
          "name": "",
          "type": "address"
        }
      ],
      "stateMutability": "view",
      "type": "function"
    },
    {
      "inputs": [
        {
          "internalType": "uint256",
          "name": "tokenId",
          "type": "uint256"
        }
      ],
      "name": "getIdentityGuardianData",
      "outputs": [
        {
          "components": [
            {
              "internalType": "string",
              "name": "name",
              "type": "string"
            },
            {
              "internalType": "string",
              "name": "title",
              "type": "string"
            },
            {
              "internalType": "string",
              "name": "realm",
              "type": "string"
            },
            {
              "internalType": "string",
              "name": "rarity",
              "type": "string"
            },
            {
              "internalType": "uint256",
              "name": "mintedAt",
              "type": "uint256"
            },
            {
              "internalType": "bool",
              "name": "isActive",
              "type": "bool"
            },
            {
              "internalType": "uint256",
              "name": "domainsManaged",
              "type": "uint256"
            },
            {
              "internalType": "uint256",
              "name": "identitiesVerified",
              "type": "uint256"
            },
            {
              "internalType": "uint256",
              "name": "attestationsIssued",
              "type": "uint256"
            },
            {
              "internalType": "uint256",
              "name": "trustScore",
              "type": "uint256"
            }
          ],
          "internalType": "struct ENSIdentityGuardian.IdentityGuardianData",
          "name": "",
          "type": "tuple"
        }
      ],
      "stateMutability": "view",
      "type": "function"
    },
    {
      "inputs": [
        {
          "internalType": "address",
          "name": "player",
          "type": "address"
        }
      ],
      "name": "getPlayerIdentityGuardian",
      "outputs": [
        {
          "internalType": "uint256",
          "name": "",
          "type": "uint256"
        }
      ],
      "stateMutability": "view",
      "type": "function"
    },
    {
      "inputs": [
        {
          "internalType": "address",
          "name": "player",
          "type": "address"
        }
      ],
      "name": "hasIdentityGuardian",
      "outputs": [
        {
          "internalType": "bool",
          "name": "",
          "type": "bool"
        }
      ],
      "stateMutability": "view",
      "type": "function"
    },
    {
      "inputs": [
        {
          "internalType": "address",
          "name": "owner",
          "type": "address"
        },
        {
          "internalType": "address",
          "name": "operator",
          "type": "address"
        }
      ],
      "name": "isApprovedForAll",
      "outputs": [
        {
          "internalType": "bool",
          "name": "",
          "type": "bool"
        }
      ],
      "stateMutability": "view",
      "type": "function"
    },
    {
      "inputs": [
        {
          "internalType": "address",
          "name": "attestedAddress",
          "type": "address"
        },
        {
          "internalType": "string",
          "name": "attestationType",
          "type": "string"
        }
      ],
      "name": "issueAttestation",
      "outputs": [],
      "stateMutability": "nonpayable",
      "type": "function"
    },
    {
      "inputs": [
        {
          "internalType": "string",
          "name": "domainName",
          "type": "string"
        },
        {
          "internalType": "bool",
          "name": "isActive",
          "type": "bool"
        }
      ],
      "name": "manageDomain",
      "outputs": [],
      "stateMutability": "nonpayable",
      "type": "function"
    },
    {
      "inputs": [
        {
          "internalType": "address",
          "name": "player",
          "type": "address"
        },
        {
          "internalType": "string",
          "name": "name",
          "type": "string"
        },
        {
          "internalType": "string",
          "name": "title",
          "type": "string"
        }
      ],
      "name": "mintIdentityGuardian",
      "outputs": [],
      "stateMutability": "nonpayable",
      "type": "function"
    },
    {
      "inputs": [],
      "name": "name",
      "outputs": [
        {
          "internalType": "string",
          "name": "",
          "type": "string"
        }
      ],
      "stateMutability": "view",
      "type": "function"
    },
    {
      "inputs": [],
      "name": "owner",
      "outputs": [
        {
          "internalType": "address",
          "name": "",
          "type": "address"
        }
      ],
      "stateMutability": "view",
      "type": "function"
    },
    {
      "inputs": [
        {
          "internalType": "uint256",
          "name": "tokenId",
          "type": "uint256"
        }
      ],
      "name": "ownerOf",
      "outputs": [
        {
          "internalType": "address",
          "name": "",
          "type": "address"
        }
      ],
      "stateMutability": "view",
      "type": "function"
    },
    {
      "inputs": [],
      "name": "renounceOwnership",
      "outputs": [],
      "stateMutability": "nonpayable",
      "type": "function"
    },
    {
      "inputs": [
        {
          "internalType": "address",
          "name": "from",
          "type": "address"
        },
        {
          "internalType": "address",
          "name": "to",
          "type": "address"
        },
        {
          "internalType": "uint256",
          "name": "tokenId",
          "type": "uint256"
        }
      ],
      "name": "safeTransferFrom",
      "outputs": [],
      "stateMutability": "nonpayable",
      "type": "function"
    },
    {
      "inputs": [
        {
          "internalType": "address",
          "name": "from",
          "type": "address"
        },
        {
          "internalType": "address",
          "name": "to",
          "type": "address"
        },
        {
          "internalType": "uint256",
          "name": "tokenId",
          "type": "uint256"
        },
        {
          "internalType": "bytes",
          "name": "data",
          "type": "bytes"
        }
      ],
      "name": "safeTransferFrom",
      "outputs": [],
      "stateMutability": "nonpayable",
      "type": "function"
    },
    {
      "inputs": [
        {
          "internalType": "address",
          "name": "operator",
          "type": "address"
        },
        {
          "internalType": "bool",
          "name": "approved",
          "type": "bool"
        }
      ],
      "name": "setApprovalForAll",
      "outputs": [],
      "stateMutability": "nonpayable",
      "type": "function"
    },
    {
      "inputs": [
        {
          "internalType": "string",
          "name": "baseURI",
          "type": "string"
        }
      ],
      "name": "setBaseURI",
      "outputs": [],
      "stateMutability": "nonpayable",
      "type": "function"
    },
    {
      "inputs": [
        {
          "internalType": "bytes4",
          "name": "interfaceId",
          "type": "bytes4"
        }
      ],
      "name": "supportsInterface",
      "outputs": [
        {
          "internalType": "bool",
          "name": "",
          "type": "bool"
        }
      ],
      "stateMutability": "view",
      "type": "function"
    },
    {
      "inputs": [],
      "name": "symbol",
      "outputs": [
        {
          "internalType": "string",
          "name": "",
          "type": "string"
        }
      ],
      "stateMutability": "view",
      "type": "function"
    },
    {
      "inputs": [
        {
          "internalType": "uint256",
          "name": "tokenId",
          "type": "uint256"
        }
      ],
      "name": "tokenURI",
      "outputs": [
        {
          "internalType": "string",
          "name": "",
          "type": "string"
        }
      ],
      "stateMutability": "view",
      "type": "function"
    },
    {
      "inputs": [],
      "name": "totalSupply",
      "outputs": [
        {
          "internalType": "uint256",
          "name": "",
          "type": "uint256"
        }
      ],
      "stateMutability": "view",
      "type": "function"
    },
    {
      "inputs": [
        {
          "internalType": "address",
          "name": "from",
          "type": "address"
        },
        {
          "internalType": "address",
          "name": "to",
          "type": "address"
        },
        {
          "internalType": "uint256",
          "name": "tokenId",
          "type": "uint256"
        }
      ],
      "name": "transferFrom",
      "outputs": [],
      "stateMutability": "nonpayable",
      "type": "function"
    },
    {
      "inputs": [
        {
          "internalType": "address",
          "name": "newOwner",
          "type": "address"
        }
      ],
      "name": "transferOwnership",
      "outputs": [],
      "stateMutability": "nonpayable",
      "type": "function"
    },
    {
      "inputs": [
        {
          "internalType": "address",
          "name": "verifiedAddress",
          "type": "address"
        },
        {
          "internalType": "string",
          "name": "identityType",
          "type": "string"
        }
      ],
      "name": "verifyIdentity",
      "outputs": [],
      "stateMutability": "nonpayable",
      "type": "function"
    }
  ],
  "bytecode": "0x60806040523480156200001157600080fd5b506040518060400160405280601581526020017f454e53204964656e7469747920477561726469616e00000000000000000000008152506040518060400160405280600881526020016723aaa0a92224a0a760c11b81525081600090816200007a9190620001f0565b506001620000898282620001f0565b505050620000a6620000a0620000f560201b60201c565b620000f9565b600160075560408051808201909152601581527f68747470733a2f2f697066732e696f2f697066732f00000000000000000000006020820152600c90620000ee9082620001f0565b50620002bc565b3390565b600680546001600160a01b038381166001600160a01b0319831681179093556040519116919082907f8be0079c531659141344cd1fd0a4f28419497f9722a3daafe3b4186f6b6457e090600090a35050565b634e487b7160e01b600052604160045260246000fd5b600181811c908216806200017657607f821691505b6020821081036200019757634e487b7160e01b600052602260045260246000fd5b50919050565b601f821115620001eb57600081815260208120601f850160051c81016020861015620001c65750805b601f850160051c820191505b81811015620001e757828155600101620001d2565b5050505b505050565b81516001600160401b038111156200020c576200020c6200014b565b62000224816200021d845462000161565b846200019d565b602080601f8311600181146200025c5760008415620002435750858301515b600019600386901b1c1916600185901b178555620001e7565b600085815260208120601f198616915b828110156200028d578886015182559484019460019091019084016200026c565b5085821015620002ac5787850151600019600388901b60f8161c191681555b5050505050600190811b01905550565b61256280620002cc6000396000f3fe608060405234801561001057600080fd5b506004361061018e5760003560e01c806370a08231116100de57806395d89b4111610097578063b88d4fde11610071578063b88d4fde14610377578063c87b56dd1461038a578063e985e9c51461039d578063f2fde38b146103b057600080fd5b806395d89b4114610349578063a22cb46514610351578063b5ca95581461036457600080fd5b806370a08231146102cb578063715018a6146102de57806383c86ef7146102e657806385e30db0146103125780638da5cb5b14610325578063939be7dc1461033657600080fd5b8063214af23a1161014b5780634046225b116101255780634046225b1461027f57806342842e0e1461029257806355f804b3146102a55780636352211e146102b857600080fd5b8063214af23a1461023957806323b872dd146102595780633dab09431461026c57600080fd5b806301ffc9a7146101935780630246708e146101bb57806306fdde03146101dc578063081812fc146101f1578063095ea7b31461021c57806318160ddd14610231575b600080fd5b6101a66101a1366004611c97565b6103c3565b60405190151581526020015b60405180910390f35b6101ce6101c9366004611cd0565b610415565b6040519081526020016101b2565b6101e4610472565b6040516101b29190611d3b565b6102046101ff366004611d4e565b610504565b6040516001600160a01b0390911681526020016101b2565b61022f61022a366004611d67565b61052b565b005b6101ce610640565b61024c610247366004611d4e565b610650565b6040516101b29190611d91565b61022f610267366004611e63565b6109ac565b61022f61027a366004611f4b565b6109dd565b61022f61028d366004611fbf565b610c75565b61022f6102a0366004611e63565b610deb565b61022f6102b336600461200d565b610e06565b6102046102c6366004611d4e565b610e1e565b6101ce6102d9366004611cd0565b610e7e565b61022f610f04565b6101a66102f4366004611cd0565b6001600160a01b03166000908152600b602052604090205460ff1690565b61022f610320366004611d4e565b610f18565b6006546001600160a01b0316610204565b61022f610344366004611fbf565b610f96565b6101e46110b6565b61022f61035f366004612052565b6110c5565b61022f610372366004612085565b6110d0565b61022f6103853660046120ca565b6111b5565b6101e4610398366004611d4e565b6111ed565b6101a66103ab366004612146565b611254565b61022f6103be366004611cd0565b611282565b60006001600160e01b031982166380ac58cd60e01b14806103f457506001600160e01b03198216635b5e139f60e01b145b8061040f57506301ffc9a760e01b6001600160e01b03198316145b92915050565b6001600160a01b0381166000908152600b602052604081205460ff166104565760405162461bcd60e51b815260040161044d90612170565b60405180910390fd5b506001600160a01b03166000908152600a602052604090205490565b606060008054610481906121b6565b80601f01602080910402602001604051908101604052809291908181526020018280546104ad906121b6565b80156104fa5780601f106104cf576101008083540402835291602001916104fa565b820191906000526020600020905b8154815290600101906020018083116104dd57829003601f168201915b5050505050905090565b600061050f826112fb565b506000908152600460205260409020546001600160a01b031690565b600061053682610e1e565b9050806001600160a01b0316836001600160a01b0316036105a35760405162461bcd60e51b815260206004820152602160248201527f4552433732313a20617070726f76616c20746f2063757272656e74206f776e656044820152603960f91b606482015260840161044d565b336001600160a01b03821614806105bf57506105bf8133611254565b6106315760405162461bcd60e51b815260206004820152603d60248201527f4552433732313a20617070726f76652063616c6c6572206973206e6f7420746f60448201527f6b656e206f776e6572206f7220617070726f76656420666f7220616c6c000000606482015260840161044d565b61063b838361135a565b505050565b600061064b60085490565b905090565b6106a86040518061014001604052806060815260200160608152602001606081526020016060815260200160008152602001600015158152602001600081526020016000815260200160008152602001600081525090565b6000828152600260205260409020546001600160a01b03166107035760405162461bcd60e51b8152602060048201526014602482015273151bdad95b88191bd95cc81b9bdd08195e1a5cdd60621b604482015260640161044d565b600082815260096020526040908190208151610140810190925280548290829061072c906121b6565b80601f0160208091040260200160405190810160405280929190818152602001828054610758906121b6565b80156107a55780601f1061077a576101008083540402835291602001916107a5565b820191906000526020600020905b81548152906001019060200180831161078857829003601f168201915b505050505081526020016001820180546107be906121b6565b80601f01602080910402602001604051908101604052809291908181526020018280546107ea906121b6565b80156108375780601f1061080c57610100808354040283529160200191610837565b820191906000526020600020905b81548152906001019060200180831161081a57829003601f168201915b50505050508152602001600282018054610850906121b6565b80601f016020809104026020016040519081016040528092919081815260200182805461087c906121b6565b80156108c95780601f1061089e576101008083540402835291602001916108c9565b820191906000526020600020905b8154815290600101906020018083116108ac57829003601f168201915b505050505081526020016003820180546108e2906121b6565b80601f016020809104026020016040519081016040528092919081815260200182805461090e906121b6565b801561095b5780601f106109305761010080835404028352916020019161095b565b820191906000526020600020905b81548152906001019060200180831161093e57829003601f168201915b505050918352505060048201546020820152600582015460ff16151560408201526006820154606082015260078201546080820152600882015460a082015260099091015460c09091015292915050565b6109b633826113c8565b6109d25760405162461bcd60e51b815260040161044d906121f0565b61063b838383611427565b6109e5611598565b6109ed6115f2565b6001600160a01b0383166000908152600b602052604090205460ff1615610a625760405162461bcd60e51b8152602060048201526024808201527f506c6179657220616c726561647920686173204964656e7469747920477561726044820152633234b0b760e11b606482015260840161044d565b6001600160a01b038316610ab15760405162461bcd60e51b8152602060048201526016602482015275496e76616c696420706c61796572206164647265737360501b604482015260640161044d565b610abf600880546001019055565b6000610aca60085490565b60408051610140810182528581526020808201869052825180840184526003815262454e5360e81b81830152828401528251808401845260048152635261726560e01b818301526060830152426080830152600160a0830152600060c0830181905260e0830181905261010083018190526064610120840152848152600990915291909120815192935090918190610b62908261228b565b5060208201516001820190610b77908261228b565b5060408201516002820190610b8c908261228b565b5060608201516003820190610ba1908261228b565b506080820151600482015560a082015160058201805491151560ff1992831617905560c0830151600683015560e083015160078301556101008301516008830155610120909201516009909101556001600160a01b0385166000908152600a60209081526040808320859055600b909152902080549091166001179055610c28848261164b565b80846001600160a01b03167f8143e7177e67d93b393ec8948939b74d0d6a31112c72be9c2db3b54956249bb985604051610c629190611d3b565b60405180910390a35061063b6001600755565b336000908152600b602052604090205460ff16610ca45760405162461bcd60e51b815260040161044d90612170565b6001600160a01b038216610cec5760405162461bcd60e51b815260206004820152600f60248201526e496e76616c6964206164647265737360881b604482015260640161044d565b336000908152600a60209081526040808320548084526009909252909120600581015460ff16610d2e5760405162461bcd60e51b815260040161044d9061234b565b600781018054906000610d4083612398565b91905055506032816009016000828254610d5a91906123b1565b9091555050604051829033907f5f8cf76ff263d0d63cfa1f0a64f015582fa44e1dbf6e1fb5b6b842d32c4248b190610d9590889088906123c4565b60405180910390a381336001600160a01b03167f15dd57e0cde9af9083c846eb39c9da382e907c0036818e4a163ecd167e5f32768360090154604051610ddd91815260200190565b60405180910390a350505050565b61063b838383604051806020016040528060008152506111b5565b610e0e611598565b600c610e1a828261228b565b5050565b6000818152600260205260408120546001600160a01b03168061040f5760405162461bcd60e51b8152602060048201526018602482015277115490cdcc8c4e881a5b9d985b1a59081d1bdad95b88125160421b604482015260640161044d565b60006001600160a01b038216610ee85760405162461bcd60e51b815260206004820152602960248201527f4552433732313a2061646472657373207a65726f206973206e6f7420612076616044820152683634b21037bbb732b960b91b606482015260840161044d565b506001600160a01b031660009081526003602052604090205490565b610f0c611598565b610f166000611665565b565b610f20611598565b6000818152600260205260409020546001600160a01b0316610f7b5760405162461bcd60e51b8152602060048201526014602482015273151bdad95b88191bd95cc81b9bdd08195e1a5cdd60621b604482015260640161044d565b6000908152600960205260409020600501805460ff19169055565b336000908152600b602052604090205460ff16610fc55760405162461bcd60e51b815260040161044d90612170565b6001600160a01b03821661100d5760405162461bcd60e51b815260206004820152600f60248201526e496e76616c6964206164647265737360881b604482015260640161044d565b336000908152600a60209081526040808320548084526009909252909120600581015460ff1661104f5760405162461bcd60e51b815260040161044d9061234b565b60088101805490600061106183612398565b9190505550604b81600901600082825461107b91906123b1565b9091555050604051829033907f5c531131f548919813ccb324f22badce116bf8f2aa0ca4952a0462479d53fa7490610d9590889088906123c4565b606060018054610481906121b6565b610e1a3383836116b7565b336000908152600b602052604090205460ff166110ff5760405162461bcd60e51b815260040161044d90612170565b336000908152600a60209081526040808320548084526009909252909120600581015460ff166111415760405162461bcd60e51b815260040161044d9061234b565b82156111795760068101805490600061115983612398565b9190505550601981600901600082825461117391906123b1565b90915550505b81336001600160a01b03167fc18d19055849def97812ee312d771f9944501847a1c618e5450fa99b1ebcf5d08686604051610d959291906123e8565b6111bf33836113c8565b6111db5760405162461bcd60e51b815260040161044d906121f0565b6111e784848484611785565b50505050565b60606111f8826112fb565b60006112026117b8565b90506000815111611222576040518060200160405280600081525061124d565b8061122c846117c7565b60405160200161123d92919061240c565b6040516020818303038152906040525b9392505050565b6001600160a01b03918216600090815260056020908152604080832093909416825291909152205460ff1690565b61128a611598565b6001600160a01b0381166112ef5760405162461bcd60e51b815260206004820152602660248201527f4f776e61626c653a206e6577206f776e657220697320746865207a65726f206160448201526564647265737360d01b606482015260840161044d565b6112f881611665565b50565b6000818152600260205260409020546001600160a01b03166112f85760405162461bcd60e51b8152602060048201526018602482015277115490cdcc8c4e881a5b9d985b1a59081d1bdad95b88125160421b604482015260640161044d565b600081815260046020526040902080546001600160a01b0319166001600160a01b038416908117909155819061138f82610e1e565b6001600160a01b03167f8c5be1e5ebec7d5bd14f71427d1e84f3dd0314c0f7b2291e5b200ac8c7c3b92560405160405180910390a45050565b6000806113d483610e1e565b9050806001600160a01b0316846001600160a01b031614806113fb57506113fb8185611254565b8061141f5750836001600160a01b031661141484610504565b6001600160a01b0316145b949350505050565b826001600160a01b031661143a82610e1e565b6001600160a01b0316146114605760405162461bcd60e51b815260040161044d9061243b565b6001600160a01b0382166114c25760405162461bcd60e51b8152602060048201526024808201527f4552433732313a207472616e7366657220746f20746865207a65726f206164646044820152637265737360e01b606482015260840161044d565b6114cf838383600161185a565b826001600160a01b03166114e282610e1e565b6001600160a01b0316146115085760405162461bcd60e51b815260040161044d9061243b565b600081815260046020908152604080832080546001600160a01b03199081169091556001600160a01b0387811680865260038552838620805460001901905590871680865283862080546001019055868652600290945282852080549092168417909155905184937fddf252ad1be2c89b69c2b068fc378daa952ba7f163c4a11628f55a4df523b3ef91a4505050565b6006546001600160a01b03163314610f165760405162461bcd60e51b815260206004820181905260248201527f4f776e61626c653a2063616c6c6572206973206e6f7420746865206f776e6572604482015260640161044d565b6002600754036116445760405162461bcd60e51b815260206004820152601f60248201527f5265656e7472616e637947756172643a207265656e7472616e742063616c6c00604482015260640161044d565b6002600755565b610e1a8282604051806020016040528060008152506118dc565b600680546001600160a01b038381166001600160a01b0319831681179093556040519116919082907f8be0079c531659141344cd1fd0a4f28419497f9722a3daafe3b4186f6b6457e090600090a35050565b816001600160a01b0316836001600160a01b0316036117185760405162461bcd60e51b815260206004820152601960248201527f4552433732313a20617070726f766520746f2063616c6c657200000000000000604482015260640161044d565b6001600160a01b03838116600081815260056020908152604080832094871680845294825291829020805460ff191686151590811790915591519182527f17307eab39ab6107e8899845ad3d59bd9653f200f220920489ca2b5937696c31910160405180910390a3505050565b611790848484611427565b61179c8484848461190f565b6111e75760405162461bcd60e51b815260040161044d90612480565b6060600c8054610481906121b6565b606060006117d483611a10565b600101905060008167ffffffffffffffff8111156117f4576117f4611e9f565b6040519080825280601f01601f19166020018201604052801561181e576020820181803683370190505b5090508181016020015b600019016f181899199a1a9b1b9c1cb0b131b232b360811b600a86061a8153600a850494508461182857509392505050565b6001600160a01b038416158061187757506001600160a01b038316155b6118d75760405162461bcd60e51b815260206004820152602b60248201527f4964656e7469747920477561726469616e204e46547320617265206e6f6e2d7460448201526a72616e7366657261626c6560a81b606482015260840161044d565b6111e7565b6118e68383611ae8565b6118f3600084848461190f565b61063b5760405162461bcd60e51b815260040161044d90612480565b60006001600160a01b0384163b15611a0557604051630a85bd0160e11b81526001600160a01b0385169063150b7a02906119539033908990889088906004016124d2565b6020604051808303816000875af192505050801561198e575060408051601f3d908101601f1916820190925261198b9181019061250f565b60015b6119eb573d8080156119bc576040519150601f19603f3d011682016040523d82523d6000602084013e6119c1565b606091505b5080516000036119e35760405162461bcd60e51b815260040161044d90612480565b805181602001fd5b6001600160e01b031916630a85bd0160e11b14905061141f565b506001949350505050565b60008072184f03e93ff9f4daa797ed6e38ed64bf6a1f0160401b8310611a4f5772184f03e93ff9f4daa797ed6e38ed64bf6a1f0160401b830492506040015b6d04ee2d6d415b85acef81000000008310611a7b576d04ee2d6d415b85acef8100000000830492506020015b662386f26fc100008310611a9957662386f26fc10000830492506010015b6305f5e1008310611ab1576305f5e100830492506008015b6127108310611ac557612710830492506004015b60648310611ad7576064830492506002015b600a831061040f5760010192915050565b6001600160a01b038216611b3e5760405162461bcd60e51b815260206004820181905260248201527f4552433732313a206d696e7420746f20746865207a65726f2061646472657373604482015260640161044d565b6000818152600260205260409020546001600160a01b031615611ba35760405162461bcd60e51b815260206004820152601c60248201527f4552433732313a20746f6b656e20616c7265616479206d696e74656400000000604482015260640161044d565b611bb160008383600161185a565b6000818152600260205260409020546001600160a01b031615611c165760405162461bcd60e51b815260206004820152601c60248201527f4552433732313a20746f6b656e20616c7265616479206d696e74656400000000604482015260640161044d565b6001600160a01b038216600081815260036020908152604080832080546001019055848352600290915280822080546001600160a01b0319168417905551839291907fddf252ad1be2c89b69c2b068fc378daa952ba7f163c4a11628f55a4df523b3ef908290a45050565b6001600160e01b0319811681146112f857600080fd5b600060208284031215611ca957600080fd5b813561124d81611c81565b80356001600160a01b0381168114611ccb57600080fd5b919050565b600060208284031215611ce257600080fd5b61124d82611cb4565b60005b83811015611d06578181015183820152602001611cee565b50506000910152565b60008151808452611d27816020860160208601611ceb565b601f01601f19169290920160200192915050565b60208152600061124d6020830184611d0f565b600060208284031215611d6057600080fd5b5035919050565b60008060408385031215611d7a57600080fd5b611d8383611cb4565b946020939093013593505050565b6020815260008251610140806020850152611db0610160850183611d0f565b91506020850151601f1980868503016040870152611dce8483611d0f565b93506040870151915080868503016060870152611deb8483611d0f565b9350606087015191508086850301608087015250611e098382611d0f565b925050608085015160a085015260a0850151611e2960c086018215159052565b5060c085015160e0858101919091528501516101008086019190915285015161012080860191909152909401519390920192909252919050565b600080600060608486031215611e7857600080fd5b611e8184611cb4565b9250611e8f60208501611cb4565b9150604084013590509250925092565b634e487b7160e01b600052604160045260246000fd5b600067ffffffffffffffff80841115611ed057611ed0611e9f565b604051601f8501601f19908116603f01168101908282118183101715611ef857611ef8611e9f565b81604052809350858152868686011115611f1157600080fd5b858560208301376000602087830101525050509392505050565b600082601f830112611f3c57600080fd5b61124d83833560208501611eb5565b600080600060608486031215611f6057600080fd5b611f6984611cb4565b9250602084013567ffffffffffffffff80821115611f8657600080fd5b611f9287838801611f2b565b93506040860135915080821115611fa857600080fd5b50611fb586828701611f2b565b9150509250925092565b60008060408385031215611fd257600080fd5b611fdb83611cb4565b9150602083013567ffffffffffffffff811115611ff757600080fd5b61200385828601611f2b565b9150509250929050565b60006020828403121561201f57600080fd5b813567ffffffffffffffff81111561203657600080fd5b61141f84828501611f2b565b80358015158114611ccb57600080fd5b6000806040838503121561206557600080fd5b61206e83611cb4565b915061207c60208401612042565b90509250929050565b6000806040838503121561209857600080fd5b823567ffffffffffffffff8111156120af57600080fd5b6120bb85828601611f2b565b92505061207c60208401612042565b600080600080608085870312156120e057600080fd5b6120e985611cb4565b93506120f760208601611cb4565b925060408501359150606085013567ffffffffffffffff81111561211a57600080fd5b8501601f8101871361212b57600080fd5b61213a87823560208401611eb5565b91505092959194509250565b6000806040838503121561215957600080fd5b61216283611cb4565b915061207c60208401611cb4565b60208082526026908201527f506c6179657220646f6573206e6f742068617665204964656e7469747920477560408201526530b93234b0b760d11b606082015260800190565b600181811c908216806121ca57607f821691505b6020821081036121ea57634e487b7160e01b600052602260045260246000fd5b50919050565b6020808252602d908201527f4552433732313a2063616c6c6572206973206e6f7420746f6b656e206f776e6560408201526c1c881bdc88185c1c1c9bdd9959609a1b606082015260800190565b601f82111561063b57600081815260208120601f850160051c810160208610156122645750805b601f850160051c820191505b8181101561228357828155600101612270565b505050505050565b815167ffffffffffffffff8111156122a5576122a5611e9f565b6122b9816122b384546121b6565b8461223d565b602080601f8311600181146122ee57600084156122d65750858301515b600019600386901b1c1916600185901b178555612283565b600085815260208120601f198616915b8281101561231d578886015182559484019460019091019084016122fe565b508582101561233b5787850151600019600388901b60f8161c191681555b5050505050600190811b01905550565b6020808252601f908201527f4964656e7469747920477561726469616e206973206e6f742061637469766500604082015260600190565b634e487b7160e01b600052601160045260246000fd5b6000600182016123aa576123aa612382565b5060010190565b8082018082111561040f5761040f612382565b6001600160a01b038316815260406020820181905260009061141f90830184611d0f565b6040815260006123fb6040830185611d0f565b905082151560208301529392505050565b6000835161241e818460208801611ceb565b835190830190612432818360208801611ceb565b01949350505050565b60208082526025908201527f4552433732313a207472616e736665722066726f6d20696e636f72726563742060408201526437bbb732b960d91b606082015260800190565b60208082526032908201527f4552433732313a207472616e7366657220746f206e6f6e20455243373231526560408201527131b2b4bb32b91034b6b83632b6b2b73a32b960711b606082015260800190565b6001600160a01b038581168252841660208201526040810183905260806060820181905260009061250590830184611d0f565b9695505050505050565b60006020828403121561252157600080fd5b815161124d81611c8156fea26469706673582212209da6ef4f6c1a0157f5688e4acdc3a4fc487997d965354357b587b4b5e3557bca64736f6c63430008130033",
  "linkReferences": {},
  "deployedLinkReferences": {}
}