{
  "_format": "hh-sol-artifact-1",
  "contractName": "FlareOracleSeer",
  "sourceName": "contracts/FlareOracleSeer.sol",
  "abi": [
    {
      "inputs": [],
      "stateMutability": "nonpayable",
      "type": "constructor"
    },
    {
      "anonymous": false,
      "inputs": [
        {
          "indexed": true,
          "internalType": "address",
          "name": "owner",
          "type": "address"
        },
        {
          "indexed": true,
          "internalType": "address",
          "name": "approved",
          "type": "address"
        },
        {
          "indexed": true,
          "internalType": "uint256",
          "name": "tokenId",
          "type": "uint256"
        }
      ],
      "name": "Approval",
      "type": "event"
    },
    {
      "anonymous": false,
      "inputs": [
        {
          "indexed": true,
          "internalType": "address",
          "name": "owner",
          "type": "address"
        },
        {
          "indexed": true,
          "internalType": "address",
          "name": "operator",
          "type": "address"
        },
        {
          "indexed": false,
          "internalType": "bool",
          "name": "approved",
          "type": "bool"
        }
      ],
      "name": "ApprovalForAll",
      "type": "event"
    },
    {
      "anonymous": false,
      "inputs": [
        {
          "indexed": true,
          "internalType": "address",
          "name": "player",
          "type": "address"
        },
        {
          "indexed": true,
          "internalType": "uint256",
          "name": "tokenId",
          "type": "uint256"
        },
        {
          "indexed": false,
          "internalType": "string",
          "name": "dataType",
          "type": "string"
        },
        {
          "indexed": false,
          "internalType": "bool",
          "name": "accuracy",
          "type": "bool"
        }
      ],
      "name": "DataVerified",
      "type": "event"
    },
    {
      "anonymous": false,
      "inputs": [
        {
          "indexed": true,
          "internalType": "address",
          "name": "player",
          "type": "address"
        },
        {
          "indexed": true,
          "internalType": "uint256",
          "name": "tokenId",
          "type": "uint256"
        },
        {
          "indexed": false,
          "internalType": "uint256",
          "name": "newAccuracy",
          "type": "uint256"
        }
      ],
      "name": "OracleAccuracyUpdated",
      "type": "event"
    },
    {
      "anonymous": false,
      "inputs": [
        {
          "indexed": true,
          "internalType": "address",
          "name": "player",
          "type": "address"
        },
        {
          "indexed": true,
          "internalType": "uint256",
          "name": "tokenId",
          "type": "uint256"
        },
        {
          "indexed": false,
          "internalType": "string",
          "name": "name",
          "type": "string"
        }
      ],
      "name": "OracleSeerMinted",
      "type": "event"
    },
    {
      "anonymous": false,
      "inputs": [
        {
          "indexed": true,
          "internalType": "address",
          "name": "previousOwner",
          "type": "address"
        },
        {
          "indexed": true,
          "internalType": "address",
          "name": "newOwner",
          "type": "address"
        }
      ],
      "name": "OwnershipTransferred",
      "type": "event"
    },
    {
      "anonymous": false,
      "inputs": [
        {
          "indexed": true,
          "internalType": "address",
          "name": "player",
          "type": "address"
        },
        {
          "indexed": true,
          "internalType": "uint256",
          "name": "tokenId",
          "type": "uint256"
        },
        {
          "indexed": false,
          "internalType": "string",
          "name": "prediction",
          "type": "string"
        },
        {
          "indexed": false,
          "internalType": "uint256",
          "name": "confidence",
          "type": "uint256"
        }
      ],
      "name": "PredictionMade",
      "type": "event"
    },
    {
      "anonymous": false,
      "inputs": [
        {
          "indexed": true,
          "internalType": "address",
          "name": "from",
          "type": "address"
        },
        {
          "indexed": true,
          "internalType": "address",
          "name": "to",
          "type": "address"
        },
        {
          "indexed": true,
          "internalType": "uint256",
          "name": "tokenId",
          "type": "uint256"
        }
      ],
      "name": "Transfer",
      "type": "event"
    },
    {
      "inputs": [
        {
          "internalType": "address",
          "name": "to",
          "type": "address"
        },
        {
          "internalType": "uint256",
          "name": "tokenId",
          "type": "uint256"
        }
      ],
      "name": "approve",
      "outputs": [],
      "stateMutability": "nonpayable",
      "type": "function"
    },
    {
      "inputs": [
        {
          "internalType": "address",
          "name": "owner",
          "type": "address"
        }
      ],
      "name": "balanceOf",
      "outputs": [
        {
          "internalType": "uint256",
          "name": "",
          "type": "uint256"
        }
      ],
      "stateMutability": "view",
      "type": "function"
    },
    {
      "inputs": [
        {
          "internalType": "uint256",
          "name": "tokenId",
          "type": "uint256"
        }
      ],
      "name": "deactivateOracleSeer",
      "outputs": [],
      "stateMutability": "nonpayable",
      "type": "function"
    },
    {
      "inputs": [
        {
          "internalType": "uint256",
          "name": "tokenId",
          "type": "uint256"
        }
      ],
      "name": "getApproved",
      "outputs": [
        {
          "internalType": "address",
          "name": "",
          "type": "address"
        }
      ],
      "stateMutability": "view",
      "type": "function"
    },
    {
      "inputs": [
        {
          "internalType": "uint256",
          "name": "tokenId",
          "type": "uint256"
        }
      ],
      "name": "getOracleSeerData",
      "outputs": [
        {
          "components": [
            {
              "internalType": "string",
              "name": "name",
              "type": "string"
            },
            {
              "internalType": "string",
              "name": "title",
              "type": "string"
            },
            {
              "internalType": "string",
              "name": "realm",
              "type": "string"
            },
            {
              "internalType": "string",
              "name": "rarity",
              "type": "string"
            },
            {
              "internalType": "uint256",
              "name": "mintedAt",
              "type": "uint256"
            },
            {
              "internalType": "bool",
              "name": "isActive",
              "type": "bool"
            },
            {
              "internalType": "uint256",
              "name": "oracleAccuracy",
              "type": "uint256"
            },
            {
              "internalType": "uint256",
              "name": "dataVerified",
              "type": "uint256"
            },
            {
              "internalType": "uint256",
              "name": "predictionsMade",
              "type": "uint256"
            }
          ],
          "internalType": "struct FlareOracleSeer.OracleSeerData",
          "name": "",
          "type": "tuple"
        }
      ],
      "stateMutability": "view",
      "type": "function"
    },
    {
      "inputs": [
        {
          "internalType": "address",
          "name": "player",
          "type": "address"
        }
      ],
      "name": "getPlayerOracleSeer",
      "outputs": [
        {
          "internalType": "uint256",
          "name": "",
          "type": "uint256"
        }
      ],
      "stateMutability": "view",
      "type": "function"
    },
    {
      "inputs": [
        {
          "internalType": "address",
          "name": "player",
          "type": "address"
        }
      ],
      "name": "hasOracleSeer",
      "outputs": [
        {
          "internalType": "bool",
          "name": "",
          "type": "bool"
        }
      ],
      "stateMutability": "view",
      "type": "function"
    },
    {
      "inputs": [
        {
          "internalType": "address",
          "name": "owner",
          "type": "address"
        },
        {
          "internalType": "address",
          "name": "operator",
          "type": "address"
        }
      ],
      "name": "isApprovedForAll",
      "outputs": [
        {
          "internalType": "bool",
          "name": "",
          "type": "bool"
        }
      ],
      "stateMutability": "view",
      "type": "function"
    },
    {
      "inputs": [
        {
          "internalType": "string",
          "name": "prediction",
          "type": "string"
        },
        {
          "internalType": "uint256",
          "name": "confidence",
          "type": "uint256"
        }
      ],
      "name": "makePrediction",
      "outputs": [],
      "stateMutability": "nonpayable",
      "type": "function"
    },
    {
      "inputs": [
        {
          "internalType": "address",
          "name": "player",
          "type": "address"
        },
        {
          "internalType": "string",
          "name": "name",
          "type": "string"
        },
        {
          "internalType": "string",
          "name": "title",
          "type": "string"
        }
      ],
      "name": "mintOracleSeer",
      "outputs": [],
      "stateMutability": "nonpayable",
      "type": "function"
    },
    {
      "inputs": [],
      "name": "name",
      "outputs": [
        {
          "internalType": "string",
          "name": "",
          "type": "string"
        }
      ],
      "stateMutability": "view",
      "type": "function"
    },
    {
      "inputs": [],
      "name": "owner",
      "outputs": [
        {
          "internalType": "address",
          "name": "",
          "type": "address"
        }
      ],
      "stateMutability": "view",
      "type": "function"
    },
    {
      "inputs": [
        {
          "internalType": "uint256",
          "name": "tokenId",
          "type": "uint256"
        }
      ],
      "name": "ownerOf",
      "outputs": [
        {
          "internalType": "address",
          "name": "",
          "type": "address"
        }
      ],
      "stateMutability": "view",
      "type": "function"
    },
    {
      "inputs": [],
      "name": "renounceOwnership",
      "outputs": [],
      "stateMutability": "nonpayable",
      "type": "function"
    },
    {
      "inputs": [
        {
          "internalType": "address",
          "name": "from",
          "type": "address"
        },
        {
          "internalType": "address",
          "name": "to",
          "type": "address"
        },
        {
          "internalType": "uint256",
          "name": "tokenId",
          "type": "uint256"
        }
      ],
      "name": "safeTransferFrom",
      "outputs": [],
      "stateMutability": "nonpayable",
      "type": "function"
    },
    {
      "inputs": [
        {
          "internalType": "address",
          "name": "from",
          "type": "address"
        },
        {
          "internalType": "address",
          "name": "to",
          "type": "address"
        },
        {
          "internalType": "uint256",
          "name": "tokenId",
          "type": "uint256"
        },
        {
          "internalType": "bytes",
          "name": "data",
          "type": "bytes"
        }
      ],
      "name": "safeTransferFrom",
      "outputs": [],
      "stateMutability": "nonpayable",
      "type": "function"
    },
    {
      "inputs": [
        {
          "internalType": "address",
          "name": "operator",
          "type": "address"
        },
        {
          "internalType": "bool",
          "name": "approved",
          "type": "bool"
        }
      ],
      "name": "setApprovalForAll",
      "outputs": [],
      "stateMutability": "nonpayable",
      "type": "function"
    },
    {
      "inputs": [
        {
          "internalType": "string",
          "name": "baseURI",
          "type": "string"
        }
      ],
      "name": "setBaseURI",
      "outputs": [],
      "stateMutability": "nonpayable",
      "type": "function"
    },
    {
      "inputs": [
        {
          "internalType": "bytes4",
          "name": "interfaceId",
          "type": "bytes4"
        }
      ],
      "name": "supportsInterface",
      "outputs": [
        {
          "internalType": "bool",
          "name": "",
          "type": "bool"
        }
      ],
      "stateMutability": "view",
      "type": "function"
    },
    {
      "inputs": [],
      "name": "symbol",
      "outputs": [
        {
          "internalType": "string",
          "name": "",
          "type": "string"
        }
      ],
      "stateMutability": "view",
      "type": "function"
    },
    {
      "inputs": [
        {
          "internalType": "uint256",
          "name": "tokenId",
          "type": "uint256"
        }
      ],
      "name": "tokenURI",
      "outputs": [
        {
          "internalType": "string",
          "name": "",
          "type": "string"
        }
      ],
      "stateMutability": "view",
      "type": "function"
    },
    {
      "inputs": [],
      "name": "totalSupply",
      "outputs": [
        {
          "internalType": "uint256",
          "name": "",
          "type": "uint256"
        }
      ],
      "stateMutability": "view",
      "type": "function"
    },
    {
      "inputs": [
        {
          "internalType": "address",
          "name": "from",
          "type": "address"
        },
        {
          "internalType": "address",
          "name": "to",
          "type": "address"
        },
        {
          "internalType": "uint256",
          "name": "tokenId",
          "type": "uint256"
        }
      ],
      "name": "transferFrom",
      "outputs": [],
      "stateMutability": "nonpayable",
      "type": "function"
    },
    {
      "inputs": [
        {
          "internalType": "address",
          "name": "newOwner",
          "type": "address"
        }
      ],
      "name": "transferOwnership",
      "outputs": [],
      "stateMutability": "nonpayable",
      "type": "function"
    },
    {
      "inputs": [
        {
          "internalType": "string",
          "name": "dataType",
          "type": "string"
        },
        {
          "internalType": "bool",
          "name": "isAccurate",
          "type": "bool"
        }
      ],
      "name": "verifyData",
      "outputs": [],
      "stateMutability": "nonpayable",
      "type": "function"
    }
  ],
  "bytecode": "0x60806040523480156200001157600080fd5b5060405180604001604052806011815260200170233630b9329027b930b1b6329029b2b2b960791b815250604051806040016040528060068152602001654f5241434c4560d01b81525081600090816200006c9190620001e2565b5060016200007b8282620001e2565b5050506200009862000092620000e760201b60201c565b620000eb565b600160075560408051808201909152601581527f68747470733a2f2f697066732e696f2f697066732f00000000000000000000006020820152600c90620000e09082620001e2565b50620002ae565b3390565b600680546001600160a01b038381166001600160a01b0319831681179093556040519116919082907f8be0079c531659141344cd1fd0a4f28419497f9722a3daafe3b4186f6b6457e090600090a35050565b634e487b7160e01b600052604160045260246000fd5b600181811c908216806200016857607f821691505b6020821081036200018957634e487b7160e01b600052602260045260246000fd5b50919050565b601f821115620001dd57600081815260208120601f850160051c81016020861015620001b85750805b601f850160051c820191505b81811015620001d957828155600101620001c4565b5050505b505050565b81516001600160401b03811115620001fe57620001fe6200013d565b62000216816200020f845462000153565b846200018f565b602080601f8311600181146200024e5760008415620002355750858301515b600019600386901b1c1916600185901b178555620001d9565b600085815260208120601f198616915b828110156200027f578886015182559484019460019091019084016200025e565b50858210156200029e5787850151600019600388901b60f8161c191681555b5050505050600190811b01905550565b61245980620002be6000396000f3fe608060405234801561001057600080fd5b50600436106101735760003560e01c806385735c88116100de578063b88d4fde11610097578063d7845ab111610071578063d7845ab114610349578063d7d2e2c31461035c578063e985e9c51461036f578063f2fde38b1461038257600080fd5b8063b88d4fde14610310578063c87b56dd14610323578063d4d361b51461033657600080fd5b806385735c88146102855780638da5cb5b146102b15780638eccb158146102c257806395d89b41146102e25780639eae8ca7146102ea578063a22cb465146102fd57600080fd5b806323b872dd1161013057806323b872dd1461021e57806342842e0e1461023157806355f804b3146102445780636352211e1461025757806370a082311461026a578063715018a61461027d57600080fd5b806301ffc9a71461017857806306fdde03146101a0578063081812fc146101b5578063095ea7b3146101e057806318160ddd146101f55780632130d60a1461020b575b600080fd5b61018b610186366004611bb5565b610395565b60405190151581526020015b60405180910390f35b6101a86103e7565b6040516101979190611c22565b6101c86101c3366004611c35565b610479565b6040516001600160a01b039091168152602001610197565b6101f36101ee366004611c6a565b6104a0565b005b6101fd6105ba565b604051908152602001610197565b6101f3610219366004611d40565b6105ca565b6101f361022c366004611db4565b61084b565b6101f361023f366004611db4565b61087c565b6101f3610252366004611df0565b610897565b6101c8610265366004611c35565b6108af565b6101fd610278366004611e25565b61090f565b6101f3610995565b61018b610293366004611e25565b6001600160a01b03166000908152600b602052604090205460ff1690565b6006546001600160a01b03166101c8565b6102d56102d0366004611c35565b6109a9565b6040516101979190611e40565b6101a8610cf4565b6101f36102f8366004611c35565b610d03565b6101f361030b366004611f15565b610d81565b6101f361031e366004611f48565b610d8c565b6101a8610331366004611c35565b610dc4565b6101fd610344366004611e25565b610e2b565b6101f3610357366004611fc4565b610e7f565b6101f361036a366004612009565b610fda565b61018b61037d36600461204e565b611178565b6101f3610390366004611e25565b6111a6565b60006001600160e01b031982166380ac58cd60e01b14806103c657506001600160e01b03198216635b5e139f60e01b145b806103e157506301ffc9a760e01b6001600160e01b03198316145b92915050565b6060600080546103f690612078565b80601f016020809104026020016040519081016040528092919081815260200182805461042290612078565b801561046f5780601f106104445761010080835404028352916020019161046f565b820191906000526020600020905b81548152906001019060200180831161045257829003601f168201915b5050505050905090565b60006104848261121f565b506000908152600460205260409020546001600160a01b031690565b60006104ab826108af565b9050806001600160a01b0316836001600160a01b03160361051d5760405162461bcd60e51b815260206004820152602160248201527f4552433732313a20617070726f76616c20746f2063757272656e74206f776e656044820152603960f91b60648201526084015b60405180910390fd5b336001600160a01b038216148061053957506105398133611178565b6105ab5760405162461bcd60e51b815260206004820152603d60248201527f4552433732313a20617070726f76652063616c6c6572206973206e6f7420746f60448201527f6b656e206f776e6572206f7220617070726f76656420666f7220616c6c0000006064820152608401610514565b6105b5838361127e565b505050565b60006105c560085490565b905090565b6105d26112ec565b6105da611346565b6001600160a01b0383166000908152600b602052604090205460ff16156106435760405162461bcd60e51b815260206004820152601e60248201527f506c6179657220616c726561647920686173204f7261636c65205365657200006044820152606401610514565b6001600160a01b0383166106925760405162461bcd60e51b8152602060048201526016602482015275496e76616c696420706c61796572206164647265737360501b6044820152606401610514565b6106a0600880546001019055565b60006106ab60085490565b60408051610120810182528581526020808201869052825180840184526005815264466c61726560d81b8183015282840152825180840184526009808252684c6567656e6461727960b81b828401526060840191909152426080840152600160a0840152606460c0840152600060e0840181905261010084018190528581529152919091208151929350909181906107439082612100565b50602082015160018201906107589082612100565b506040820151600282019061076d9082612100565b50606082015160038201906107829082612100565b506080820151600482015560a082015160058201805491151560ff1992831617905560c0830151600683015560e08301516007830155610100909201516008909101556001600160a01b0385166000908152600a60209081526040808320859055600b9091529020805490911660011790556107fe848261139f565b80846001600160a01b03167fac4cb6a8607cbfd14332cc363e78f9c66c022245cda85584be3c662fb17812fb856040516108389190611c22565b60405180910390a3506105b56001600755565b61085533826113b9565b6108715760405162461bcd60e51b8152600401610514906121c0565b6105b5838383611418565b6105b583838360405180602001604052806000815250610d8c565b61089f6112ec565b600c6108ab8282612100565b5050565b6000818152600260205260408120546001600160a01b0316806103e15760405162461bcd60e51b8152602060048201526018602482015277115490cdcc8c4e881a5b9d985b1a59081d1bdad95b88125160421b6044820152606401610514565b60006001600160a01b0382166109795760405162461bcd60e51b815260206004820152602960248201527f4552433732313a2061646472657373207a65726f206973206e6f7420612076616044820152683634b21037bbb732b960b91b6064820152608401610514565b506001600160a01b031660009081526003602052604090205490565b61099d6112ec565b6109a76000611589565b565b6109fa60405180610120016040528060608152602001606081526020016060815260200160608152602001600081526020016000151581526020016000815260200160008152602001600081525090565b6000828152600260205260409020546001600160a01b0316610a555760405162461bcd60e51b8152602060048201526014602482015273151bdad95b88191bd95cc81b9bdd08195e1a5cdd60621b6044820152606401610514565b6000828152600960205260409081902081516101208101909252805482908290610a7e90612078565b80601f0160208091040260200160405190810160405280929190818152602001828054610aaa90612078565b8015610af75780601f10610acc57610100808354040283529160200191610af7565b820191906000526020600020905b815481529060010190602001808311610ada57829003601f168201915b50505050508152602001600182018054610b1090612078565b80601f0160208091040260200160405190810160405280929190818152602001828054610b3c90612078565b8015610b895780601f10610b5e57610100808354040283529160200191610b89565b820191906000526020600020905b815481529060010190602001808311610b6c57829003601f168201915b50505050508152602001600282018054610ba290612078565b80601f0160208091040260200160405190810160405280929190818152602001828054610bce90612078565b8015610c1b5780601f10610bf057610100808354040283529160200191610c1b565b820191906000526020600020905b815481529060010190602001808311610bfe57829003601f168201915b50505050508152602001600382018054610c3490612078565b80601f0160208091040260200160405190810160405280929190818152602001828054610c6090612078565b8015610cad5780601f10610c8257610100808354040283529160200191610cad565b820191906000526020600020905b815481529060010190602001808311610c9057829003601f168201915b505050918352505060048201546020820152600582015460ff1615156040820152600682015460608201526007820154608082015260089091015460a09091015292915050565b6060600180546103f690612078565b610d0b6112ec565b6000818152600260205260409020546001600160a01b0316610d665760405162461bcd60e51b8152602060048201526014602482015273151bdad95b88191bd95cc81b9bdd08195e1a5cdd60621b6044820152606401610514565b6000908152600960205260409020600501805460ff19169055565b6108ab3383836115db565b610d9633836113b9565b610db25760405162461bcd60e51b8152600401610514906121c0565b610dbe848484846116a9565b50505050565b6060610dcf8261121f565b6000610dd96116dc565b90506000815111610df95760405180602001604052806000815250610e24565b80610e03846116eb565b604051602001610e1492919061220d565b6040516020818303038152906040525b9392505050565b6001600160a01b0381166000908152600b602052604081205460ff16610e635760405162461bcd60e51b81526004016105149061223c565b506001600160a01b03166000908152600a602052604090205490565b336000908152600b602052604090205460ff16610eae5760405162461bcd60e51b81526004016105149061223c565b6064811115610f0b5760405162461bcd60e51b8152602060048201526024808201527f436f6e666964656e6365206d757374206265206265747765656e203020616e646044820152630203130360e41b6064820152608401610514565b336000908152600a60209081526040808320548084526009909252909120600581015460ff16610f795760405162461bcd60e51b81526020600482015260196024820152784f7261636c652053656572206973206e6f742061637469766560381b6044820152606401610514565b600881018054906000610f8b83612287565b919050555081336001600160a01b03167f066a5d9d32576630a59e063811190c63ed4799b040e2a559c5d5283ec90c2d2b8686604051610fcc9291906122a0565b60405180910390a350505050565b336000908152600b602052604090205460ff166110095760405162461bcd60e51b81526004016105149061223c565b336000908152600a60209081526040808320548084526009909252909120600581015460ff166110775760405162461bcd60e51b81526020600482015260196024820152784f7261636c652053656572206973206e6f742061637469766560381b6044820152606401610514565b60078101805490600061108983612287565b919050555082156110c657600a816006015460096110a791906122c2565b6110b29060646122d9565b6110bc91906122ec565b60068201556110f4565b600a816006015460096110d991906122c2565b6110e49060006122d9565b6110ee91906122ec565b60068201555b81336001600160a01b03167fe25aaebbc6bf5adfe4b6b79cf1ab64a43e81a881e8d1abba58c4ab84333f141e868660405161113092919061230e565b60405180910390a381336001600160a01b03167fe4c67eb835d7de891eabc22df648a53e0ffff0828cb4b339640154867da012038360060154604051610fcc91815260200190565b6001600160a01b03918216600090815260056020908152604080832093909416825291909152205460ff1690565b6111ae6112ec565b6001600160a01b0381166112135760405162461bcd60e51b815260206004820152602660248201527f4f776e61626c653a206e6577206f776e657220697320746865207a65726f206160448201526564647265737360d01b6064820152608401610514565b61121c81611589565b50565b6000818152600260205260409020546001600160a01b031661121c5760405162461bcd60e51b8152602060048201526018602482015277115490cdcc8c4e881a5b9d985b1a59081d1bdad95b88125160421b6044820152606401610514565b600081815260046020526040902080546001600160a01b0319166001600160a01b03841690811790915581906112b3826108af565b6001600160a01b03167f8c5be1e5ebec7d5bd14f71427d1e84f3dd0314c0f7b2291e5b200ac8c7c3b92560405160405180910390a45050565b6006546001600160a01b031633146109a75760405162461bcd60e51b815260206004820181905260248201527f4f776e61626c653a2063616c6c6572206973206e6f7420746865206f776e65726044820152606401610514565b6002600754036113985760405162461bcd60e51b815260206004820152601f60248201527f5265656e7472616e637947756172643a207265656e7472616e742063616c6c006044820152606401610514565b6002600755565b6108ab82826040518060200160405280600081525061177e565b6000806113c5836108af565b9050806001600160a01b0316846001600160a01b031614806113ec57506113ec8185611178565b806114105750836001600160a01b031661140584610479565b6001600160a01b0316145b949350505050565b826001600160a01b031661142b826108af565b6001600160a01b0316146114515760405162461bcd60e51b815260040161051490612332565b6001600160a01b0382166114b35760405162461bcd60e51b8152602060048201526024808201527f4552433732313a207472616e7366657220746f20746865207a65726f206164646044820152637265737360e01b6064820152608401610514565b6114c083838360016117b1565b826001600160a01b03166114d3826108af565b6001600160a01b0316146114f95760405162461bcd60e51b815260040161051490612332565b600081815260046020908152604080832080546001600160a01b03199081169091556001600160a01b0387811680865260038552838620805460001901905590871680865283862080546001019055868652600290945282852080549092168417909155905184937fddf252ad1be2c89b69c2b068fc378daa952ba7f163c4a11628f55a4df523b3ef91a4505050565b600680546001600160a01b038381166001600160a01b0319831681179093556040519116919082907f8be0079c531659141344cd1fd0a4f28419497f9722a3daafe3b4186f6b6457e090600090a35050565b816001600160a01b0316836001600160a01b03160361163c5760405162461bcd60e51b815260206004820152601960248201527f4552433732313a20617070726f766520746f2063616c6c6572000000000000006044820152606401610514565b6001600160a01b03838116600081815260056020908152604080832094871680845294825291829020805460ff191686151590811790915591519182527f17307eab39ab6107e8899845ad3d59bd9653f200f220920489ca2b5937696c31910160405180910390a3505050565b6116b4848484611418565b6116c08484848461182d565b610dbe5760405162461bcd60e51b815260040161051490612377565b6060600c80546103f690612078565b606060006116f88361192e565b600101905060008167ffffffffffffffff81111561171857611718611c94565b6040519080825280601f01601f191660200182016040528015611742576020820181803683370190505b5090508181016020015b600019016f181899199a1a9b1b9c1cb0b131b232b360811b600a86061a8153600a850494508461174c57509392505050565b6117888383611a06565b611795600084848461182d565b6105b55760405162461bcd60e51b815260040161051490612377565b6001600160a01b03841615806117ce57506001600160a01b038316155b6118285760405162461bcd60e51b815260206004820152602560248201527f4f7261636c652053656572204e46547320617265206e6f6e2d7472616e7366656044820152647261626c6560d81b6064820152608401610514565b610dbe565b60006001600160a01b0384163b1561192357604051630a85bd0160e11b81526001600160a01b0385169063150b7a02906118719033908990889088906004016123c9565b6020604051808303816000875af19250505080156118ac575060408051601f3d908101601f191682019092526118a991810190612406565b60015b611909573d8080156118da576040519150601f19603f3d011682016040523d82523d6000602084013e6118df565b606091505b5080516000036119015760405162461bcd60e51b815260040161051490612377565b805181602001fd5b6001600160e01b031916630a85bd0160e11b149050611410565b506001949350505050565b60008072184f03e93ff9f4daa797ed6e38ed64bf6a1f0160401b831061196d5772184f03e93ff9f4daa797ed6e38ed64bf6a1f0160401b830492506040015b6d04ee2d6d415b85acef81000000008310611999576d04ee2d6d415b85acef8100000000830492506020015b662386f26fc1000083106119b757662386f26fc10000830492506010015b6305f5e10083106119cf576305f5e100830492506008015b61271083106119e357612710830492506004015b606483106119f5576064830492506002015b600a83106103e15760010192915050565b6001600160a01b038216611a5c5760405162461bcd60e51b815260206004820181905260248201527f4552433732313a206d696e7420746f20746865207a65726f20616464726573736044820152606401610514565b6000818152600260205260409020546001600160a01b031615611ac15760405162461bcd60e51b815260206004820152601c60248201527f4552433732313a20746f6b656e20616c7265616479206d696e746564000000006044820152606401610514565b611acf6000838360016117b1565b6000818152600260205260409020546001600160a01b031615611b345760405162461bcd60e51b815260206004820152601c60248201527f4552433732313a20746f6b656e20616c7265616479206d696e746564000000006044820152606401610514565b6001600160a01b038216600081815260036020908152604080832080546001019055848352600290915280822080546001600160a01b0319168417905551839291907fddf252ad1be2c89b69c2b068fc378daa952ba7f163c4a11628f55a4df523b3ef908290a45050565b6001600160e01b03198116811461121c57600080fd5b600060208284031215611bc757600080fd5b8135610e2481611b9f565b60005b83811015611bed578181015183820152602001611bd5565b50506000910152565b60008151808452611c0e816020860160208601611bd2565b601f01601f19169290920160200192915050565b602081526000610e246020830184611bf6565b600060208284031215611c4757600080fd5b5035919050565b80356001600160a01b0381168114611c6557600080fd5b919050565b60008060408385031215611c7d57600080fd5b611c8683611c4e565b946020939093013593505050565b634e487b7160e01b600052604160045260246000fd5b600067ffffffffffffffff80841115611cc557611cc5611c94565b604051601f8501601f19908116603f01168101908282118183101715611ced57611ced611c94565b81604052809350858152868686011115611d0657600080fd5b858560208301376000602087830101525050509392505050565b600082601f830112611d3157600080fd5b610e2483833560208501611caa565b600080600060608486031215611d5557600080fd5b611d5e84611c4e565b9250602084013567ffffffffffffffff80821115611d7b57600080fd5b611d8787838801611d20565b93506040860135915080821115611d9d57600080fd5b50611daa86828701611d20565b9150509250925092565b600080600060608486031215611dc957600080fd5b611dd284611c4e565b9250611de060208501611c4e565b9150604084013590509250925092565b600060208284031215611e0257600080fd5b813567ffffffffffffffff811115611e1957600080fd5b61141084828501611d20565b600060208284031215611e3757600080fd5b610e2482611c4e565b6020815260008251610120806020850152611e5f610140850183611bf6565b91506020850151601f1980868503016040870152611e7d8483611bf6565b93506040870151915080868503016060870152611e9a8483611bf6565b9350606087015191508086850301608087015250611eb88382611bf6565b925050608085015160a085015260a0850151611ed860c086018215159052565b5060c085015160e085015260e0850151610100818187015280870151838701525050508091505092915050565b80358015158114611c6557600080fd5b60008060408385031215611f2857600080fd5b611f3183611c4e565b9150611f3f60208401611f05565b90509250929050565b60008060008060808587031215611f5e57600080fd5b611f6785611c4e565b9350611f7560208601611c4e565b925060408501359150606085013567ffffffffffffffff811115611f9857600080fd5b8501601f81018713611fa957600080fd5b611fb887823560208401611caa565b91505092959194509250565b60008060408385031215611fd757600080fd5b823567ffffffffffffffff811115611fee57600080fd5b611ffa85828601611d20565b95602094909401359450505050565b6000806040838503121561201c57600080fd5b823567ffffffffffffffff81111561203357600080fd5b61203f85828601611d20565b925050611f3f60208401611f05565b6000806040838503121561206157600080fd5b61206a83611c4e565b9150611f3f60208401611c4e565b600181811c9082168061208c57607f821691505b6020821081036120ac57634e487b7160e01b600052602260045260246000fd5b50919050565b601f8211156105b557600081815260208120601f850160051c810160208610156120d95750805b601f850160051c820191505b818110156120f8578281556001016120e5565b505050505050565b815167ffffffffffffffff81111561211a5761211a611c94565b61212e816121288454612078565b846120b2565b602080601f831160018114612163576000841561214b5750858301515b600019600386901b1c1916600185901b1785556120f8565b600085815260208120601f198616915b8281101561219257888601518255948401946001909101908401612173565b50858210156121b05787850151600019600388901b60f8161c191681555b5050505050600190811b01905550565b6020808252602d908201527f4552433732313a2063616c6c6572206973206e6f7420746f6b656e206f776e6560408201526c1c881bdc88185c1c1c9bdd9959609a1b606082015260800190565b6000835161221f818460208801611bd2565b835190830190612233818360208801611bd2565b01949350505050565b6020808252818101527f506c6179657220646f6573206e6f742068617665204f7261636c652053656572604082015260600190565b634e487b7160e01b600052601160045260246000fd5b60006001820161229957612299612271565b5060010190565b6040815260006122b36040830185611bf6565b90508260208301529392505050565b80820281158282048414176103e1576103e1612271565b808201808211156103e1576103e1612271565b60008261230957634e487b7160e01b600052601260045260246000fd5b500490565b6040815260006123216040830185611bf6565b905082151560208301529392505050565b60208082526025908201527f4552433732313a207472616e736665722066726f6d20696e636f72726563742060408201526437bbb732b960d91b606082015260800190565b60208082526032908201527f4552433732313a207472616e7366657220746f206e6f6e20455243373231526560408201527131b2b4bb32b91034b6b83632b6b2b73a32b960711b606082015260800190565b6001600160a01b03858116825284166020820152604081018390526080606082018190526000906123fc90830184611bf6565b9695505050505050565b60006020828403121561241857600080fd5b8151610e2481611b9f56fea264697066735822122062279ff22b1788e91c39d11193dd8df2e4b46ba307bc810e3a79facb31d70eb664736f6c63430008130033",
  "linkReferences": {},
  "deployedLinkReferences": {}
}