{
  "_format": "hh-sol-artifact-1",
  "contractName": "EnsIdentityGuardianSimple",
  "sourceName": "contracts/EnsIdentityGuardianSimple.sol",
  "abi": [
    {
      "inputs": [],
      "stateMutability": "nonpayable",
      "type": "constructor"
    },
    {
      "anonymous": false,
      "inputs": [
        {
          "indexed": true,
          "internalType": "address",
          "name": "owner",
          "type": "address"
        },
        {
          "indexed": true,
          "internalType": "address",
          "name": "approved",
          "type": "address"
        },
        {
          "indexed": true,
          "internalType": "uint256",
          "name": "tokenId",
          "type": "uint256"
        }
      ],
      "name": "Approval",
      "type": "event"
    },
    {
      "anonymous": false,
      "inputs": [
        {
          "indexed": true,
          "internalType": "address",
          "name": "owner",
          "type": "address"
        },
        {
          "indexed": true,
          "internalType": "address",
          "name": "operator",
          "type": "address"
        },
        {
          "indexed": false,
          "internalType": "bool",
          "name": "approved",
          "type": "bool"
        }
      ],
      "name": "ApprovalForAll",
      "type": "event"
    },
    {
      "anonymous": false,
      "inputs": [
        {
          "indexed": true,
          "internalType": "address",
          "name": "previousOwner",
          "type": "address"
        },
        {
          "indexed": true,
          "internalType": "address",
          "name": "newOwner",
          "type": "address"
        }
      ],
      "name": "OwnershipTransferred",
      "type": "event"
    },
    {
      "anonymous": false,
      "inputs": [
        {
          "indexed": true,
          "internalType": "address",
          "name": "player",
          "type": "address"
        },
        {
          "indexed": false,
          "internalType": "uint256",
          "name": "tokenId",
          "type": "uint256"
        },
        {
          "indexed": false,
          "internalType": "uint256",
          "name": "pioneerType",
          "type": "uint256"
        }
      ],
      "name": "PioneerMinted",
      "type": "event"
    },
    {
      "anonymous": false,
      "inputs": [
        {
          "indexed": true,
          "internalType": "address",
          "name": "from",
          "type": "address"
        },
        {
          "indexed": true,
          "internalType": "address",
          "name": "to",
          "type": "address"
        },
        {
          "indexed": true,
          "internalType": "uint256",
          "name": "tokenId",
          "type": "uint256"
        }
      ],
      "name": "Transfer",
      "type": "event"
    },
    {
      "inputs": [],
      "name": "ENS_PIONEER_TYPE",
      "outputs": [
        {
          "internalType": "uint256",
          "name": "",
          "type": "uint256"
        }
      ],
      "stateMutability": "view",
      "type": "function"
    },
    {
      "inputs": [],
      "name": "ENS_REGISTRY",
      "outputs": [
        {
          "internalType": "address",
          "name": "",
          "type": "address"
        }
      ],
      "stateMutability": "view",
      "type": "function"
    },
    {
      "inputs": [
        {
          "internalType": "address",
          "name": "to",
          "type": "address"
        },
        {
          "internalType": "uint256",
          "name": "tokenId",
          "type": "uint256"
        }
      ],
      "name": "approve",
      "outputs": [],
      "stateMutability": "nonpayable",
      "type": "function"
    },
    {
      "inputs": [
        {
          "internalType": "address",
          "name": "owner",
          "type": "address"
        }
      ],
      "name": "balanceOf",
      "outputs": [
        {
          "internalType": "uint256",
          "name": "",
          "type": "uint256"
        }
      ],
      "stateMutability": "view",
      "type": "function"
    },
    {
      "inputs": [
        {
          "internalType": "uint256",
          "name": "tokenId",
          "type": "uint256"
        }
      ],
      "name": "getApproved",
      "outputs": [
        {
          "internalType": "address",
          "name": "",
          "type": "address"
        }
      ],
      "stateMutability": "view",
      "type": "function"
    },
    {
      "inputs": [
        {
          "internalType": "address",
          "name": "player",
          "type": "address"
        }
      ],
      "name": "getPlayerPioneer",
      "outputs": [
        {
          "internalType": "uint256",
          "name": "",
          "type": "uint256"
        }
      ],
      "stateMutability": "view",
      "type": "function"
    },
    {
      "inputs": [
        {
          "internalType": "address",
          "name": "player",
          "type": "address"
        }
      ],
      "name": "hasPioneer",
      "outputs": [
        {
          "internalType": "bool",
          "name": "",
          "type": "bool"
        }
      ],
      "stateMutability": "view",
      "type": "function"
    },
    {
      "inputs": [
        {
          "internalType": "address",
          "name": "",
          "type": "address"
        }
      ],
      "name": "hasPioneerMapping",
      "outputs": [
        {
          "internalType": "bool",
          "name": "",
          "type": "bool"
        }
      ],
      "stateMutability": "view",
      "type": "function"
    },
    {
      "inputs": [
        {
          "internalType": "address",
          "name": "owner",
          "type": "address"
        },
        {
          "internalType": "address",
          "name": "operator",
          "type": "address"
        }
      ],
      "name": "isApprovedForAll",
      "outputs": [
        {
          "internalType": "bool",
          "name": "",
          "type": "bool"
        }
      ],
      "stateMutability": "view",
      "type": "function"
    },
    {
      "inputs": [],
      "name": "isMintingAvailable",
      "outputs": [
        {
          "internalType": "bool",
          "name": "",
          "type": "bool"
        }
      ],
      "stateMutability": "pure",
      "type": "function"
    },
    {
      "inputs": [
        {
          "internalType": "uint256",
          "name": "pioneerType",
          "type": "uint256"
        },
        {
          "internalType": "address",
          "name": "playerAddress",
          "type": "address"
        }
      ],
      "name": "mintPioneer",
      "outputs": [],
      "stateMutability": "nonpayable",
      "type": "function"
    },
    {
      "inputs": [],
      "name": "name",
      "outputs": [
        {
          "internalType": "string",
          "name": "",
          "type": "string"
        }
      ],
      "stateMutability": "view",
      "type": "function"
    },
    {
      "inputs": [],
      "name": "owner",
      "outputs": [
        {
          "internalType": "address",
          "name": "",
          "type": "address"
        }
      ],
      "stateMutability": "view",
      "type": "function"
    },
    {
      "inputs": [
        {
          "internalType": "uint256",
          "name": "tokenId",
          "type": "uint256"
        }
      ],
      "name": "ownerOf",
      "outputs": [
        {
          "internalType": "address",
          "name": "",
          "type": "address"
        }
      ],
      "stateMutability": "view",
      "type": "function"
    },
    {
      "inputs": [
        {
          "internalType": "address",
          "name": "",
          "type": "address"
        }
      ],
      "name": "playerPioneer",
      "outputs": [
        {
          "internalType": "uint256",
          "name": "",
          "type": "uint256"
        }
      ],
      "stateMutability": "view",
      "type": "function"
    },
    {
      "inputs": [],
      "name": "renounceOwnership",
      "outputs": [],
      "stateMutability": "nonpayable",
      "type": "function"
    },
    {
      "inputs": [
        {
          "internalType": "address",
          "name": "from",
          "type": "address"
        },
        {
          "internalType": "address",
          "name": "to",
          "type": "address"
        },
        {
          "internalType": "uint256",
          "name": "tokenId",
          "type": "uint256"
        }
      ],
      "name": "safeTransferFrom",
      "outputs": [],
      "stateMutability": "nonpayable",
      "type": "function"
    },
    {
      "inputs": [
        {
          "internalType": "address",
          "name": "from",
          "type": "address"
        },
        {
          "internalType": "address",
          "name": "to",
          "type": "address"
        },
        {
          "internalType": "uint256",
          "name": "tokenId",
          "type": "uint256"
        },
        {
          "internalType": "bytes",
          "name": "data",
          "type": "bytes"
        }
      ],
      "name": "safeTransferFrom",
      "outputs": [],
      "stateMutability": "nonpayable",
      "type": "function"
    },
    {
      "inputs": [
        {
          "internalType": "address",
          "name": "operator",
          "type": "address"
        },
        {
          "internalType": "bool",
          "name": "approved",
          "type": "bool"
        }
      ],
      "name": "setApprovalForAll",
      "outputs": [],
      "stateMutability": "nonpayable",
      "type": "function"
    },
    {
      "inputs": [
        {
          "internalType": "bytes4",
          "name": "interfaceId",
          "type": "bytes4"
        }
      ],
      "name": "supportsInterface",
      "outputs": [
        {
          "internalType": "bool",
          "name": "",
          "type": "bool"
        }
      ],
      "stateMutability": "view",
      "type": "function"
    },
    {
      "inputs": [],
      "name": "symbol",
      "outputs": [
        {
          "internalType": "string",
          "name": "",
          "type": "string"
        }
      ],
      "stateMutability": "view",
      "type": "function"
    },
    {
      "inputs": [
        {
          "internalType": "uint256",
          "name": "tokenId",
          "type": "uint256"
        }
      ],
      "name": "tokenURI",
      "outputs": [
        {
          "internalType": "string",
          "name": "",
          "type": "string"
        }
      ],
      "stateMutability": "view",
      "type": "function"
    },
    {
      "inputs": [],
      "name": "totalSupply",
      "outputs": [
        {
          "internalType": "uint256",
          "name": "",
          "type": "uint256"
        }
      ],
      "stateMutability": "view",
      "type": "function"
    },
    {
      "inputs": [
        {
          "internalType": "address",
          "name": "from",
          "type": "address"
        },
        {
          "internalType": "address",
          "name": "to",
          "type": "address"
        },
        {
          "internalType": "uint256",
          "name": "tokenId",
          "type": "uint256"
        }
      ],
      "name": "transferFrom",
      "outputs": [],
      "stateMutability": "nonpayable",
      "type": "function"
    },
    {
      "inputs": [
        {
          "internalType": "address",
          "name": "newOwner",
          "type": "address"
        }
      ],
      "name": "transferOwnership",
      "outputs": [],
      "stateMutability": "nonpayable",
      "type": "function"
    }
  ],
  "bytecode": "0x60806040523480156200001157600080fd5b506040518060400160405280601581526020017f454e53204964656e7469747920477561726469616e000000000000000000000081525060405180604001604052806005815260200164454e53494760d81b8152508160009081620000779190620001a9565b506001620000868282620001a9565b505050620000a36200009d620000ae60201b60201c565b620000b2565b600160075562000275565b3390565b600680546001600160a01b038381166001600160a01b0319831681179093556040519116919082907f8be0079c531659141344cd1fd0a4f28419497f9722a3daafe3b4186f6b6457e090600090a35050565b634e487b7160e01b600052604160045260246000fd5b600181811c908216806200012f57607f821691505b6020821081036200015057634e487b7160e01b600052602260045260246000fd5b50919050565b601f821115620001a457600081815260208120601f850160051c810160208610156200017f5750805b601f850160051c820191505b81811015620001a0578281556001016200018b565b5050505b505050565b81516001600160401b03811115620001c557620001c562000104565b620001dd81620001d684546200011a565b8462000156565b602080601f831160018114620002155760008415620001fc5750858301515b600019600386901b1c1916600185901b178555620001a0565b600085815260208120601f198616915b82811015620002465788860151825594840194600190910190840162000225565b5085821015620002655787850151600019600388901b60f8161c191681555b5050505050600190811b01905550565b61174380620002856000396000f3fe608060405234801561001057600080fd5b50600436106101735760003560e01c80636352211e116100de5780638da5cb5b11610097578063b88d4fde11610071578063b88d4fde14610399578063c87b56dd146103ac578063e985e9c5146103bf578063f2fde38b146103fb57600080fd5b80638da5cb5b1461035457806395d89b4114610365578063a22cb4651461038657600080fd5b80636352211e146102da57806370a08231146102ed578063715018a614610300578063788f6d40146103085780637a4f37de1461031b57806385e969171461033e57600080fd5b806323b872dd1161013057806323b872dd1461025957806327f4c6971461026c5780632c10c7791461029857806342842e0e1461029f5780634fc8202d146102b257806359361fc4146102d257600080fd5b806301ffc9a71461017857806306fdde03146101a0578063081812fc146101da578063095ea7b31461020557806318160ddd1461021a578063229125c814610230575b600080fd5b61018b6101863660046112e6565b61040e565b60405190151581526020015b60405180910390f35b60408051808201909152601581527422a7299024b232b73a34ba3c9023bab0b93234b0b760591b60208201525b6040516101979190611353565b6101ed6101e8366004611366565b610460565b6040516001600160a01b039091168152602001610197565b61021861021336600461139b565b610487565b005b6102226105a1565b604051908152602001610197565b61022261023e3660046113c5565b6001600160a01b03166000908152600a602052604090205490565b6102186102673660046113e0565b6105b1565b61018b61027a3660046113c5565b6001600160a01b031660009081526009602052604090205460ff1690565b600161018b565b6102186102ad3660046113e0565b6105e2565b6102226102c03660046113c5565b600a6020526000908152604090205481565b610222600181565b6101ed6102e8366004611366565b6105fd565b6102226102fb3660046113c5565b61065d565b6102186106e3565b61021861031636600461141c565b6106f7565b61018b6103293660046113c5565b60096020526000908152604090205460ff1681565b6101ed6e0c2e074ec69a0dfb2997ba6c7d2e1e81565b6006546001600160a01b03166101ed565b604080518082019091526005815264454e53494760d81b60208201526101cd565b610218610394366004611448565b6108a6565b6102186103a736600461149a565b6108b1565b6101cd6103ba366004611366565b6108e9565b61018b6103cd366004611576565b6001600160a01b03918216600090815260056020908152604080832093909416825291909152205460ff1690565b6102186104093660046113c5565b61095d565b60006001600160e01b031982166380ac58cd60e01b148061043f57506001600160e01b03198216635b5e139f60e01b145b8061045a57506301ffc9a760e01b6001600160e01b03198316145b92915050565b600061046b826109d6565b506000908152600460205260409020546001600160a01b031690565b6000610492826105fd565b9050806001600160a01b0316836001600160a01b0316036105045760405162461bcd60e51b815260206004820152602160248201527f4552433732313a20617070726f76616c20746f2063757272656e74206f776e656044820152603960f91b60648201526084015b60405180910390fd5b336001600160a01b0382161480610520575061052081336103cd565b6105925760405162461bcd60e51b815260206004820152603d60248201527f4552433732313a20617070726f76652063616c6c6572206973206e6f7420746f60448201527f6b656e206f776e6572206f7220617070726f76656420666f7220616c6c00000060648201526084016104fb565b61059c8383610a35565b505050565b60006105ac60085490565b905090565b6105bb3382610aa3565b6105d75760405162461bcd60e51b81526004016104fb906115a0565b61059c838383610b22565b61059c838383604051806020016040528060008152506108b1565b6000818152600260205260408120546001600160a01b03168061045a5760405162461bcd60e51b8152602060048201526018602482015277115490cdcc8c4e881a5b9d985b1a59081d1bdad95b88125160421b60448201526064016104fb565b60006001600160a01b0382166106c75760405162461bcd60e51b815260206004820152602960248201527f4552433732313a2061646472657373207a65726f206973206e6f7420612076616044820152683634b21037bbb732b960b91b60648201526084016104fb565b506001600160a01b031660009081526003602052604090205490565b6106eb610c86565b6106f56000610ce0565b565b6106ff610d32565b600182146107465760405162461bcd60e51b8152602060048201526014602482015273496e76616c69642070696f6e656572207479706560601b60448201526064016104fb565b6001600160a01b03811660009081526009602052604090205460ff16156107af5760405162461bcd60e51b815260206004820152601f60248201527f506c6179657220616c72656164792068617320454e5320477561726469616e0060448201526064016104fb565b6001600160a01b0381166107fe5760405162461bcd60e51b8152602060048201526016602482015275496e76616c696420706c61796572206164647265737360501b60448201526064016104fb565b61080c600880546001019055565b600061081760085490565b6001600160a01b0383166000908152600960209081526040808320805460ff19166001179055600a909152902081905590506108538282610d8b565b60408051828152602081018590526001600160a01b038416917fba88cbb7a0ec8522a1039cdfe89aa45ba0b86d93f6140c9d174e6c3cab4cb405910160405180910390a2506108a26001600755565b5050565b6108a2338383610da5565b6108bb3383610aa3565b6108d75760405162461bcd60e51b81526004016104fb906115a0565b6108e384848484610e73565b50505050565b60606108f4826109d6565b600061090b60408051602081019091526000815290565b9050600081511161092b5760405180602001604052806000815250610956565b8061093584610ea6565b6040516020016109469291906115ed565b6040516020818303038152906040525b9392505050565b610965610c86565b6001600160a01b0381166109ca5760405162461bcd60e51b815260206004820152602660248201527f4f776e61626c653a206e6577206f776e657220697320746865207a65726f206160448201526564647265737360d01b60648201526084016104fb565b6109d381610ce0565b50565b6000818152600260205260409020546001600160a01b03166109d35760405162461bcd60e51b8152602060048201526018602482015277115490cdcc8c4e881a5b9d985b1a59081d1bdad95b88125160421b60448201526064016104fb565b600081815260046020526040902080546001600160a01b0319166001600160a01b0384169081179091558190610a6a826105fd565b6001600160a01b03167f8c5be1e5ebec7d5bd14f71427d1e84f3dd0314c0f7b2291e5b200ac8c7c3b92560405160405180910390a45050565b600080610aaf836105fd565b9050806001600160a01b0316846001600160a01b03161480610af657506001600160a01b0380821660009081526005602090815260408083209388168352929052205460ff165b80610b1a5750836001600160a01b0316610b0f84610460565b6001600160a01b0316145b949350505050565b826001600160a01b0316610b35826105fd565b6001600160a01b031614610b5b5760405162461bcd60e51b81526004016104fb9061161c565b6001600160a01b038216610bbd5760405162461bcd60e51b8152602060048201526024808201527f4552433732313a207472616e7366657220746f20746865207a65726f206164646044820152637265737360e01b60648201526084016104fb565b826001600160a01b0316610bd0826105fd565b6001600160a01b031614610bf65760405162461bcd60e51b81526004016104fb9061161c565b600081815260046020908152604080832080546001600160a01b03199081169091556001600160a01b0387811680865260038552838620805460001901905590871680865283862080546001019055868652600290945282852080549092168417909155905184937fddf252ad1be2c89b69c2b068fc378daa952ba7f163c4a11628f55a4df523b3ef91a4505050565b6006546001600160a01b031633146106f55760405162461bcd60e51b815260206004820181905260248201527f4f776e61626c653a2063616c6c6572206973206e6f7420746865206f776e657260448201526064016104fb565b600680546001600160a01b038381166001600160a01b0319831681179093556040519116919082907f8be0079c531659141344cd1fd0a4f28419497f9722a3daafe3b4186f6b6457e090600090a35050565b600260075403610d845760405162461bcd60e51b815260206004820152601f60248201527f5265656e7472616e637947756172643a207265656e7472616e742063616c6c0060448201526064016104fb565b6002600755565b6108a2828260405180602001604052806000815250610f39565b816001600160a01b0316836001600160a01b031603610e065760405162461bcd60e51b815260206004820152601960248201527f4552433732313a20617070726f766520746f2063616c6c65720000000000000060448201526064016104fb565b6001600160a01b03838116600081815260056020908152604080832094871680845294825291829020805460ff191686151590811790915591519182527f17307eab39ab6107e8899845ad3d59bd9653f200f220920489ca2b5937696c31910160405180910390a3505050565b610e7e848484610b22565b610e8a84848484610f6c565b6108e35760405162461bcd60e51b81526004016104fb90611661565b60606000610eb38361106d565b600101905060008167ffffffffffffffff811115610ed357610ed3611484565b6040519080825280601f01601f191660200182016040528015610efd576020820181803683370190505b5090508181016020015b600019016f181899199a1a9b1b9c1cb0b131b232b360811b600a86061a8153600a8504945084610f0757509392505050565b610f438383611145565b610f506000848484610f6c565b61059c5760405162461bcd60e51b81526004016104fb90611661565b60006001600160a01b0384163b1561106257604051630a85bd0160e11b81526001600160a01b0385169063150b7a0290610fb09033908990889088906004016116b3565b6020604051808303816000875af1925050508015610feb575060408051601f3d908101601f19168201909252610fe8918101906116f0565b60015b611048573d808015611019576040519150601f19603f3d011682016040523d82523d6000602084013e61101e565b606091505b5080516000036110405760405162461bcd60e51b81526004016104fb90611661565b805181602001fd5b6001600160e01b031916630a85bd0160e11b149050610b1a565b506001949350505050565b60008072184f03e93ff9f4daa797ed6e38ed64bf6a1f0160401b83106110ac5772184f03e93ff9f4daa797ed6e38ed64bf6a1f0160401b830492506040015b6d04ee2d6d415b85acef810000000083106110d8576d04ee2d6d415b85acef8100000000830492506020015b662386f26fc1000083106110f657662386f26fc10000830492506010015b6305f5e100831061110e576305f5e100830492506008015b612710831061112257612710830492506004015b60648310611134576064830492506002015b600a831061045a5760010192915050565b6001600160a01b03821661119b5760405162461bcd60e51b815260206004820181905260248201527f4552433732313a206d696e7420746f20746865207a65726f206164647265737360448201526064016104fb565b6000818152600260205260409020546001600160a01b0316156112005760405162461bcd60e51b815260206004820152601c60248201527f4552433732313a20746f6b656e20616c7265616479206d696e7465640000000060448201526064016104fb565b6000818152600260205260409020546001600160a01b0316156112655760405162461bcd60e51b815260206004820152601c60248201527f4552433732313a20746f6b656e20616c7265616479206d696e7465640000000060448201526064016104fb565b6001600160a01b038216600081815260036020908152604080832080546001019055848352600290915280822080546001600160a01b0319168417905551839291907fddf252ad1be2c89b69c2b068fc378daa952ba7f163c4a11628f55a4df523b3ef908290a45050565b6001600160e01b0319811681146109d357600080fd5b6000602082840312156112f857600080fd5b8135610956816112d0565b60005b8381101561131e578181015183820152602001611306565b50506000910152565b6000815180845261133f816020860160208601611303565b601f01601f19169290920160200192915050565b6020815260006109566020830184611327565b60006020828403121561137857600080fd5b5035919050565b80356001600160a01b038116811461139657600080fd5b919050565b600080604083850312156113ae57600080fd5b6113b78361137f565b946020939093013593505050565b6000602082840312156113d757600080fd5b6109568261137f565b6000806000606084860312156113f557600080fd5b6113fe8461137f565b925061140c6020850161137f565b9150604084013590509250925092565b6000806040838503121561142f57600080fd5b8235915061143f6020840161137f565b90509250929050565b6000806040838503121561145b57600080fd5b6114648361137f565b91506020830135801515811461147957600080fd5b809150509250929050565b634e487b7160e01b600052604160045260246000fd5b600080600080608085870312156114b057600080fd5b6114b98561137f565b93506114c76020860161137f565b925060408501359150606085013567ffffffffffffffff808211156114eb57600080fd5b818701915087601f8301126114ff57600080fd5b81358181111561151157611511611484565b604051601f8201601f19908116603f0116810190838211818310171561153957611539611484565b816040528281528a602084870101111561155257600080fd5b82602086016020830137600060208483010152809550505050505092959194509250565b6000806040838503121561158957600080fd5b6115928361137f565b915061143f6020840161137f565b6020808252602d908201527f4552433732313a2063616c6c6572206973206e6f7420746f6b656e206f776e6560408201526c1c881bdc88185c1c1c9bdd9959609a1b606082015260800190565b600083516115ff818460208801611303565b835190830190611613818360208801611303565b01949350505050565b60208082526025908201527f4552433732313a207472616e736665722066726f6d20696e636f72726563742060408201526437bbb732b960d91b606082015260800190565b60208082526032908201527f4552433732313a207472616e7366657220746f206e6f6e20455243373231526560408201527131b2b4bb32b91034b6b83632b6b2b73a32b960711b606082015260800190565b6001600160a01b03858116825284166020820152604081018390526080606082018190526000906116e690830184611327565b9695505050505050565b60006020828403121561170257600080fd5b8151610956816112d056fea26469706673582212204379753d75b1ee905f06fc6368d0392bb83632ddfc32d1a5d6b90497d446d7eb64736f6c63430008130033",
  "linkReferences": {},
  "deployedLinkReferences": {}
}