{
  "_format": "hh-sol-artifact-1",
  "contractName": "Pioneer",
  "sourceName": "contracts/Pioneer.sol",
  "abi": [
    {
      "inputs": [],
      "stateMutability": "nonpayable",
      "type": "constructor"
    },
    {
      "anonymous": false,
      "inputs": [
        {
          "indexed": true,
          "internalType": "address",
          "name": "owner",
          "type": "address"
        },
        {
          "indexed": true,
          "internalType": "address",
          "name": "approved",
          "type": "address"
        },
        {
          "indexed": true,
          "internalType": "uint256",
          "name": "tokenId",
          "type": "uint256"
        }
      ],
      "name": "Approval",
      "type": "event"
    },
    {
      "anonymous": false,
      "inputs": [
        {
          "indexed": true,
          "internalType": "address",
          "name": "owner",
          "type": "address"
        },
        {
          "indexed": true,
          "internalType": "address",
          "name": "operator",
          "type": "address"
        },
        {
          "indexed": false,
          "internalType": "bool",
          "name": "approved",
          "type": "bool"
        }
      ],
      "name": "ApprovalForAll",
      "type": "event"
    },
    {
      "anonymous": false,
      "inputs": [
        {
          "indexed": true,
          "internalType": "address",
          "name": "previousOwner",
          "type": "address"
        },
        {
          "indexed": true,
          "internalType": "address",
          "name": "newOwner",
          "type": "address"
        }
      ],
      "name": "OwnershipTransferred",
      "type": "event"
    },
    {
      "anonymous": false,
      "inputs": [
        {
          "indexed": true,
          "internalType": "uint256",
          "name": "tokenId",
          "type": "uint256"
        },
        {
          "indexed": true,
          "internalType": "address",
          "name": "player",
          "type": "address"
        }
      ],
      "name": "PioneerActivated",
      "type": "event"
    },
    {
      "anonymous": false,
      "inputs": [
        {
          "indexed": true,
          "internalType": "address",
          "name": "player",
          "type": "address"
        },
        {
          "indexed": true,
          "internalType": "uint256",
          "name": "tokenId",
          "type": "uint256"
        },
        {
          "indexed": false,
          "internalType": "enum Pioneer.PioneerType",
          "name": "pioneerType",
          "type": "uint8"
        },
        {
          "indexed": false,
          "internalType": "string",
          "name": "name",
          "type": "string"
        }
      ],
      "name": "PioneerMinted",
      "type": "event"
    },
    {
      "anonymous": false,
      "inputs": [
        {
          "indexed": true,
          "internalType": "address",
          "name": "from",
          "type": "address"
        },
        {
          "indexed": true,
          "internalType": "address",
          "name": "to",
          "type": "address"
        },
        {
          "indexed": true,
          "internalType": "uint256",
          "name": "tokenId",
          "type": "uint256"
        }
      ],
      "name": "Transfer",
      "type": "event"
    },
    {
      "inputs": [
        {
          "internalType": "address",
          "name": "to",
          "type": "address"
        },
        {
          "internalType": "uint256",
          "name": "tokenId",
          "type": "uint256"
        }
      ],
      "name": "approve",
      "outputs": [],
      "stateMutability": "nonpayable",
      "type": "function"
    },
    {
      "inputs": [
        {
          "internalType": "address",
          "name": "owner",
          "type": "address"
        }
      ],
      "name": "balanceOf",
      "outputs": [
        {
          "internalType": "uint256",
          "name": "",
          "type": "uint256"
        }
      ],
      "stateMutability": "view",
      "type": "function"
    },
    {
      "inputs": [
        {
          "internalType": "uint256",
          "name": "tokenId",
          "type": "uint256"
        }
      ],
      "name": "deactivatePioneer",
      "outputs": [],
      "stateMutability": "nonpayable",
      "type": "function"
    },
    {
      "inputs": [
        {
          "internalType": "uint256",
          "name": "tokenId",
          "type": "uint256"
        }
      ],
      "name": "getApproved",
      "outputs": [
        {
          "internalType": "address",
          "name": "",
          "type": "address"
        }
      ],
      "stateMutability": "view",
      "type": "function"
    },
    {
      "inputs": [
        {
          "internalType": "uint256",
          "name": "tokenId",
          "type": "uint256"
        }
      ],
      "name": "getPioneerData",
      "outputs": [
        {
          "components": [
            {
              "internalType": "enum Pioneer.PioneerType",
              "name": "pioneerType",
              "type": "uint8"
            },
            {
              "internalType": "string",
              "name": "name",
              "type": "string"
            },
            {
              "internalType": "string",
              "name": "title",
              "type": "string"
            },
            {
              "internalType": "string",
              "name": "realm",
              "type": "string"
            },
            {
              "internalType": "string",
              "name": "rarity",
              "type": "string"
            },
            {
              "internalType": "uint256",
              "name": "mintedAt",
              "type": "uint256"
            },
            {
              "internalType": "bool",
              "name": "isActive",
              "type": "bool"
            }
          ],
          "internalType": "struct Pioneer.PioneerData",
          "name": "",
          "type": "tuple"
        }
      ],
      "stateMutability": "view",
      "type": "function"
    },
    {
      "inputs": [
        {
          "internalType": "address",
          "name": "player",
          "type": "address"
        }
      ],
      "name": "getPlayerPioneer",
      "outputs": [
        {
          "internalType": "uint256",
          "name": "",
          "type": "uint256"
        }
      ],
      "stateMutability": "view",
      "type": "function"
    },
    {
      "inputs": [
        {
          "internalType": "address",
          "name": "player",
          "type": "address"
        }
      ],
      "name": "hasPioneer",
      "outputs": [
        {
          "internalType": "bool",
          "name": "",
          "type": "bool"
        }
      ],
      "stateMutability": "view",
      "type": "function"
    },
    {
      "inputs": [
        {
          "internalType": "address",
          "name": "owner",
          "type": "address"
        },
        {
          "internalType": "address",
          "name": "operator",
          "type": "address"
        }
      ],
      "name": "isApprovedForAll",
      "outputs": [
        {
          "internalType": "bool",
          "name": "",
          "type": "bool"
        }
      ],
      "stateMutability": "view",
      "type": "function"
    },
    {
      "inputs": [
        {
          "internalType": "enum Pioneer.PioneerType",
          "name": "pioneerType",
          "type": "uint8"
        },
        {
          "internalType": "address",
          "name": "player",
          "type": "address"
        }
      ],
      "name": "mintPioneer",
      "outputs": [],
      "stateMutability": "nonpayable",
      "type": "function"
    },
    {
      "inputs": [],
      "name": "name",
      "outputs": [
        {
          "internalType": "string",
          "name": "",
          "type": "string"
        }
      ],
      "stateMutability": "view",
      "type": "function"
    },
    {
      "inputs": [],
      "name": "owner",
      "outputs": [
        {
          "internalType": "address",
          "name": "",
          "type": "address"
        }
      ],
      "stateMutability": "view",
      "type": "function"
    },
    {
      "inputs": [
        {
          "internalType": "uint256",
          "name": "tokenId",
          "type": "uint256"
        }
      ],
      "name": "ownerOf",
      "outputs": [
        {
          "internalType": "address",
          "name": "",
          "type": "address"
        }
      ],
      "stateMutability": "view",
      "type": "function"
    },
    {
      "inputs": [
        {
          "internalType": "enum Pioneer.PioneerType",
          "name": "",
          "type": "uint8"
        }
      ],
      "name": "pioneerNames",
      "outputs": [
        {
          "internalType": "string",
          "name": "",
          "type": "string"
        }
      ],
      "stateMutability": "view",
      "type": "function"
    },
    {
      "inputs": [
        {
          "internalType": "enum Pioneer.PioneerType",
          "name": "",
          "type": "uint8"
        }
      ],
      "name": "pioneerRarities",
      "outputs": [
        {
          "internalType": "string",
          "name": "",
          "type": "string"
        }
      ],
      "stateMutability": "view",
      "type": "function"
    },
    {
      "inputs": [
        {
          "internalType": "enum Pioneer.PioneerType",
          "name": "",
          "type": "uint8"
        }
      ],
      "name": "pioneerRealms",
      "outputs": [
        {
          "internalType": "string",
          "name": "",
          "type": "string"
        }
      ],
      "stateMutability": "view",
      "type": "function"
    },
    {
      "inputs": [
        {
          "internalType": "enum Pioneer.PioneerType",
          "name": "",
          "type": "uint8"
        }
      ],
      "name": "pioneerTitles",
      "outputs": [
        {
          "internalType": "string",
          "name": "",
          "type": "string"
        }
      ],
      "stateMutability": "view",
      "type": "function"
    },
    {
      "inputs": [
        {
          "internalType": "uint256",
          "name": "",
          "type": "uint256"
        }
      ],
      "name": "pioneers",
      "outputs": [
        {
          "internalType": "enum Pioneer.PioneerType",
          "name": "pioneerType",
          "type": "uint8"
        },
        {
          "internalType": "string",
          "name": "name",
          "type": "string"
        },
        {
          "internalType": "string",
          "name": "title",
          "type": "string"
        },
        {
          "internalType": "string",
          "name": "realm",
          "type": "string"
        },
        {
          "internalType": "string",
          "name": "rarity",
          "type": "string"
        },
        {
          "internalType": "uint256",
          "name": "mintedAt",
          "type": "uint256"
        },
        {
          "internalType": "bool",
          "name": "isActive",
          "type": "bool"
        }
      ],
      "stateMutability": "view",
      "type": "function"
    },
    {
      "inputs": [
        {
          "internalType": "address",
          "name": "",
          "type": "address"
        }
      ],
      "name": "playerPioneers",
      "outputs": [
        {
          "internalType": "uint256",
          "name": "",
          "type": "uint256"
        }
      ],
      "stateMutability": "view",
      "type": "function"
    },
    {
      "inputs": [],
      "name": "renounceOwnership",
      "outputs": [],
      "stateMutability": "nonpayable",
      "type": "function"
    },
    {
      "inputs": [
        {
          "internalType": "address",
          "name": "from",
          "type": "address"
        },
        {
          "internalType": "address",
          "name": "to",
          "type": "address"
        },
        {
          "internalType": "uint256",
          "name": "tokenId",
          "type": "uint256"
        }
      ],
      "name": "safeTransferFrom",
      "outputs": [],
      "stateMutability": "nonpayable",
      "type": "function"
    },
    {
      "inputs": [
        {
          "internalType": "address",
          "name": "from",
          "type": "address"
        },
        {
          "internalType": "address",
          "name": "to",
          "type": "address"
        },
        {
          "internalType": "uint256",
          "name": "tokenId",
          "type": "uint256"
        },
        {
          "internalType": "bytes",
          "name": "data",
          "type": "bytes"
        }
      ],
      "name": "safeTransferFrom",
      "outputs": [],
      "stateMutability": "nonpayable",
      "type": "function"
    },
    {
      "inputs": [
        {
          "internalType": "address",
          "name": "operator",
          "type": "address"
        },
        {
          "internalType": "bool",
          "name": "approved",
          "type": "bool"
        }
      ],
      "name": "setApprovalForAll",
      "outputs": [],
      "stateMutability": "nonpayable",
      "type": "function"
    },
    {
      "inputs": [
        {
          "internalType": "string",
          "name": "baseURI",
          "type": "string"
        }
      ],
      "name": "setBaseURI",
      "outputs": [],
      "stateMutability": "nonpayable",
      "type": "function"
    },
    {
      "inputs": [
        {
          "internalType": "bytes4",
          "name": "interfaceId",
          "type": "bytes4"
        }
      ],
      "name": "supportsInterface",
      "outputs": [
        {
          "internalType": "bool",
          "name": "",
          "type": "bool"
        }
      ],
      "stateMutability": "view",
      "type": "function"
    },
    {
      "inputs": [],
      "name": "symbol",
      "outputs": [
        {
          "internalType": "string",
          "name": "",
          "type": "string"
        }
      ],
      "stateMutability": "view",
      "type": "function"
    },
    {
      "inputs": [
        {
          "internalType": "uint256",
          "name": "tokenId",
          "type": "uint256"
        }
      ],
      "name": "tokenURI",
      "outputs": [
        {
          "internalType": "string",
          "name": "",
          "type": "string"
        }
      ],
      "stateMutability": "view",
      "type": "function"
    },
    {
      "inputs": [],
      "name": "totalSupply",
      "outputs": [
        {
          "internalType": "uint256",
          "name": "",
          "type": "uint256"
        }
      ],
      "stateMutability": "view",
      "type": "function"
    },
    {
      "inputs": [
        {
          "internalType": "address",
          "name": "from",
          "type": "address"
        },
        {
          "internalType": "address",
          "name": "to",
          "type": "address"
        },
        {
          "internalType": "uint256",
          "name": "tokenId",
          "type": "uint256"
        }
      ],
      "name": "transferFrom",
      "outputs": [],
      "stateMutability": "nonpayable",
      "type": "function"
    },
    {
      "inputs": [
        {
          "internalType": "address",
          "name": "newOwner",
          "type": "address"
        }
      ],
      "name": "transferOwnership",
      "outputs": [],
      "stateMutability": "nonpayable",
      "type": "function"
    }
  ],
  "bytecode": "0x60806040523480156200001157600080fd5b506040518060400160405280601981526020017f496e746572636861696e204e657875732050696f6e6565727300000000000000815250604051806040016040528060038152602001620494e560ec1b8152508160009081620000759190620007b5565b506001620000848282620007b5565b505050620000a16200009b620000b660201b60201c565b620000ba565b6001600755620000b06200010c565b62000881565b3390565b600680546001600160a01b038381166001600160a01b0319831681179093556040519116919082907f8be0079c531659141344cd1fd0a4f28419497f9722a3daafe3b4186f6b6457e090600090a35050565b60408051808201909152601481527f54686520536f6369616c2041726368697465637400000000000000000000000060208083019190915260008052600b90527fdf7de25b7f1fd6d0b5205f0e18f1f35bd7b8d84cce336588d184533ce43a6f76906200017a9082620007b5565b506040805180820190915260118152704275696c646572206f6620576f726c647360781b60208083019190915260008052600c90527f13649b2456f1b42fef0f0040b3aaeabcd21a76a0f3f5defd4f583839455116e890620001dd9082620007b5565b506040805180820190915260048152634261736560e01b60208083019190915260008052600d90527f81955a0a11e65eac625c29e8882660bae4e165a75d72780094acae8ece9a29ee90620002339082620007b5565b506040805180820190915260048152634570696360e01b60208083019190915260008052600e90527fe710864318d4a32f37d6ce54cb3fadbef648dd12d8dbdf53973564d56b7f881c90620002899082620007b5565b5060408051808201909152601581527f546865204964656e7469747920477561726469616e00000000000000000000006020808301919091526001600052600b90527f72c6bfb7988af3a1efa6568f02a999bc52252641c659d85961ca3d372b57d5cf90620002f99082620007b5565b5060408051808201909152600f81526e4b6565706572206f66204e616d657360881b6020808301919091526001600052600c90527fd421a5181c571bba3f01190c922c3b2a896fc1d84e86c9f17ac10e67ebef8b5c906200035b9082620007b5565b50604080518082019091526003815262454e5360e81b6020808301919091526001600052600d90527ffd54ff1ed53f34a900b24c5ba64f85761163b5d82d98a47b9bd80e45466993c590620003b19082620007b5565b506040805180820190915260048152634570696360e01b6020808301919091526001600052600e90527fa7c5ba7114a813b50159add3a36832908dc83db71d0b9a24c2ad0f83be95820790620004089082620007b5565b5060408051808201909152600f81526e2a3432902230ba30902bb2b0bb32b960891b6020808301919091526002600052600b90527fa50eece07c7db1631545c0069bd8f5f54d5935e215d59097edf258a44ba91634906200046a9082620007b5565b5060408051808201909152601681527f417263686976697374206f6620746865204e65787573000000000000000000006020808301919091526002600052600c90527f5d6016397a73f5e079297ac5a36fef17b4d9c3831618e63ab105738020ddd72090620004da9082620007b5565b506040805180820190915260088152672334b632b1b7b4b760c11b6020808301919091526002600052600d90527f10a81eed9d63d16face5e76357905348e6253d3394086026bb2bf2145d7cc24990620005359082620007b5565b506040805180820190915260048152634570696360e01b6020808301919091526002600052600e90527f9adb202b1492743bc00c81d33cdc6423fa8c79109027eb6a845391e8fc1f0481906200058c9082620007b5565b5060408051808201909152600f81526e2a34329027b930b1b6329029b2b2b960891b6020808301919091526003600052600b90527f64c15cc42be7899b001f818cf4433057002112c418d1d3a67cd5cb453051d33e90620005ee9082620007b5565b5060408051808201909152601a81527f5472757468205365656b6572206f662074686520436f736d6f730000000000006020808301919091526003600052600c90527fc0da782485e77ae272268ae0a3ff44c1552ecb60b3743924de17a815e0a3cfd7906200065e9082620007b5565b50604080518082019091526005815264466c61726560d81b6020808301919091526003600052600d90527f26b4a10d0f0b04925c23bd4480ee147c916e5e87a7d68206a533dad160ac81e290620006b69082620007b5565b506040805180820190915260048152634570696360e01b6020808301919091526003600052600e90527fe0283e559c29e31ee7f56467acc9dd307779c843a883aeeb3bf5c6128c908144906200070d9082620007b5565b50565b634e487b7160e01b600052604160045260246000fd5b600181811c908216806200073b57607f821691505b6020821081036200075c57634e487b7160e01b600052602260045260246000fd5b50919050565b601f821115620007b057600081815260208120601f850160051c810160208610156200078b5750805b601f850160051c820191505b81811015620007ac5782815560010162000797565b5050505b505050565b81516001600160401b03811115620007d157620007d162000710565b620007e981620007e2845462000726565b8462000762565b602080601f831160018114620008215760008415620008085750858301515b600019600386901b1c1916600185901b178555620007ac565b600085815260208120601f198616915b82811015620008525788860151825594840194600190910190840162000831565b5085821015620008715787850151600019600388901b60f8161c191681555b5050505050600190811b01905550565b61271680620008916000396000f3fe608060405234801561001057600080fd5b50600436106101cf5760003560e01c806370a0823111610104578063b88d4fde116100a2578063e985e9c511610071578063e985e9c514610413578063ee30f38b1461044f578063f2fde38b14610462578063f98775fe1461047557600080fd5b8063b88d4fde146103ba578063bddada3c146103cd578063c87b56dd146103e0578063e4c7d2a7146103f357600080fd5b80638da5cb5b116100de5780638da5cb5b1461037b57806395d89b411461038c578063a22cb46514610394578063ac90af5a146103a757600080fd5b806370a082311461034d578063715018a6146103605780638cafb6431461036857600080fd5b8063229125c8116101715780632c366aad1161014b5780632c366aad1461030157806342842e0e1461031457806355f804b3146103275780636352211e1461033a57600080fd5b8063229125c81461029a57806323b872dd146102c357806327f4c697146102d657600080fd5b8063095ea7b3116101ad578063095ea7b31461023c5780630c41aa901461025157806318160ddd146102645780631ab2b5f81461027a57600080fd5b806301ffc9a7146101d457806306fdde03146101fc578063081812fc14610211575b600080fd5b6101e76101e2366004611f77565b61049b565b60405190151581526020015b60405180910390f35b6102046104ed565b6040516101f39190611fe4565b61022461021f366004611ff7565b61057f565b6040516001600160a01b0390911681526020016101f3565b61024f61024a36600461202c565b6105a6565b005b61020461025f366004612065565b6106c0565b61026c61075a565b6040519081526020016101f3565b61028d610288366004611ff7565b61076a565b6040516101f391906120b8565b61026c6102a8366004612162565b6001600160a01b03166000908152600a602052604090205490565b61024f6102d136600461217d565b610ab6565b6101e76102e4366004612162565b6001600160a01b03166000908152600a6020526040902054151590565b61020461030f366004612065565b610ae7565b61024f61032236600461217d565b610b00565b61024f610335366004612245565b610b1b565b610224610348366004611ff7565b610b33565b61026c61035b366004612162565b610b93565b61024f610c19565b610204610376366004612065565b610c2d565b6006546001600160a01b0316610224565b610204610c46565b61024f6103a236600461228e565b610c55565b6102046103b5366004612065565b610c60565b61024f6103c83660046122ca565b610c79565b61024f6103db366004611ff7565b610cb1565b6102046103ee366004611ff7565b610d2f565b61026c610401366004612162565b600a6020526000908152604090205481565b6101e7610421366004612346565b6001600160a01b03918216600090815260056020908152604080832093909416825291909152205460ff1690565b61024f61045d366004612379565b610d96565b61024f610470366004612162565b6112e9565b610488610483366004611ff7565b611362565b6040516101f39796959493929190612395565b60006001600160e01b031982166380ac58cd60e01b14806104cc57506001600160e01b03198216635b5e139f60e01b145b806104e757506301ffc9a760e01b6001600160e01b03198316145b92915050565b6060600080546104fc9061240b565b80601f01602080910402602001604051908101604052809291908181526020018280546105289061240b565b80156105755780601f1061054a57610100808354040283529160200191610575565b820191906000526020600020905b81548152906001019060200180831161055857829003601f168201915b5050505050905090565b600061058a826115c5565b506000908152600460205260409020546001600160a01b031690565b60006105b182610b33565b9050806001600160a01b0316836001600160a01b0316036106235760405162461bcd60e51b815260206004820152602160248201527f4552433732313a20617070726f76616c20746f2063757272656e74206f776e656044820152603960f91b60648201526084015b60405180910390fd5b336001600160a01b038216148061063f575061063f8133610421565b6106b15760405162461bcd60e51b815260206004820152603d60248201527f4552433732313a20617070726f76652063616c6c6572206973206e6f7420746f60448201527f6b656e206f776e6572206f7220617070726f76656420666f7220616c6c000000606482015260840161061a565b6106bb8383611624565b505050565b600e60205260009081526040902080546106d99061240b565b80601f01602080910402602001604051908101604052809291908181526020018280546107059061240b565b80156107525780601f1061072757610100808354040283529160200191610752565b820191906000526020600020905b81548152906001019060200180831161073557829003601f168201915b505050505081565b600061076560085490565b905090565b6107ad6040805160e08101909152806000815260200160608152602001606081526020016060815260200160608152602001600081526020016000151581525090565b6000828152600260205260409020546001600160a01b03166108085760405162461bcd60e51b8152602060048201526014602482015273151bdad95b88191bd95cc81b9bdd08195e1a5cdd60621b604482015260640161061a565b60008281526009602052604090819020815160e081019092528054829060ff16600381111561083957610839612080565b600381111561084a5761084a612080565b815260200160018201805461085e9061240b565b80601f016020809104026020016040519081016040528092919081815260200182805461088a9061240b565b80156108d75780601f106108ac576101008083540402835291602001916108d7565b820191906000526020600020905b8154815290600101906020018083116108ba57829003601f168201915b505050505081526020016002820180546108f09061240b565b80601f016020809104026020016040519081016040528092919081815260200182805461091c9061240b565b80156109695780601f1061093e57610100808354040283529160200191610969565b820191906000526020600020905b81548152906001019060200180831161094c57829003601f168201915b505050505081526020016003820180546109829061240b565b80601f01602080910402602001604051908101604052809291908181526020018280546109ae9061240b565b80156109fb5780601f106109d0576101008083540402835291602001916109fb565b820191906000526020600020905b8154815290600101906020018083116109de57829003601f168201915b50505050508152602001600482018054610a149061240b565b80601f0160208091040260200160405190810160405280929190818152602001828054610a409061240b565b8015610a8d5780601f10610a6257610100808354040283529160200191610a8d565b820191906000526020600020905b815481529060010190602001808311610a7057829003601f168201915b50505091835250506005820154602082015260069091015460ff16151560409091015292915050565b610ac03382611692565b610adc5760405162461bcd60e51b815260040161061a90612445565b6106bb838383611711565b600d60205260009081526040902080546106d99061240b565b6106bb83838360405180602001604052806000815250610c79565b610b23611882565b600f610b2f82826124e0565b5050565b6000818152600260205260408120546001600160a01b0316806104e75760405162461bcd60e51b8152602060048201526018602482015277115490cdcc8c4e881a5b9d985b1a59081d1bdad95b88125160421b604482015260640161061a565b60006001600160a01b038216610bfd5760405162461bcd60e51b815260206004820152602960248201527f4552433732313a2061646472657373207a65726f206973206e6f7420612076616044820152683634b21037bbb732b960b91b606482015260840161061a565b506001600160a01b031660009081526003602052604090205490565b610c21611882565b610c2b60006118dc565b565b600b60205260009081526040902080546106d99061240b565b6060600180546104fc9061240b565b610b2f33838361192e565b600c60205260009081526040902080546106d99061240b565b610c833383611692565b610c9f5760405162461bcd60e51b815260040161061a90612445565b610cab848484846119fc565b50505050565b610cb9611882565b6000818152600260205260409020546001600160a01b0316610d145760405162461bcd60e51b8152602060048201526014602482015273151bdad95b88191bd95cc81b9bdd08195e1a5cdd60621b604482015260640161061a565b6000908152600960205260409020600601805460ff19169055565b6060610d3a826115c5565b6000610d44611a2f565b90506000815111610d645760405180602001604052806000815250610d8f565b80610d6e84611a3e565b604051602001610d7f9291906125a0565b6040516020818303038152906040525b9392505050565b610d9e611882565b610da6611ad1565b6001600160a01b038116610df55760405162461bcd60e51b8152602060048201526016602482015275496e76616c696420706c61796572206164647265737360501b604482015260640161061a565b6001600160a01b0381166000908152600a602052604090205415610e5b5760405162461bcd60e51b815260206004820152601c60248201527f506c6179657220616c72656164792068617320612070696f6e65657200000000604482015260640161061a565b610e69600880546001019055565b6000610e7460085490565b905060006040518060e00160405280856003811115610e9557610e95612080565b8152602001600b6000876003811115610eb057610eb0612080565b6003811115610ec157610ec1612080565b81526020019081526020016000208054610eda9061240b565b80601f0160208091040260200160405190810160405280929190818152602001828054610f069061240b565b8015610f535780601f10610f2857610100808354040283529160200191610f53565b820191906000526020600020905b815481529060010190602001808311610f3657829003601f168201915b50505050508152602001600c6000876003811115610f7357610f73612080565b6003811115610f8457610f84612080565b81526020019081526020016000208054610f9d9061240b565b80601f0160208091040260200160405190810160405280929190818152602001828054610fc99061240b565b80156110165780601f10610feb57610100808354040283529160200191611016565b820191906000526020600020905b815481529060010190602001808311610ff957829003601f168201915b50505050508152602001600d600087600381111561103657611036612080565b600381111561104757611047612080565b815260200190815260200160002080546110609061240b565b80601f016020809104026020016040519081016040528092919081815260200182805461108c9061240b565b80156110d95780601f106110ae576101008083540402835291602001916110d9565b820191906000526020600020905b8154815290600101906020018083116110bc57829003601f168201915b50505050508152602001600e60008760038111156110f9576110f9612080565b600381111561110a5761110a612080565b815260200190815260200160002080546111239061240b565b80601f016020809104026020016040519081016040528092919081815260200182805461114f9061240b565b801561119c5780601f106111715761010080835404028352916020019161119c565b820191906000526020600020905b81548152906001019060200180831161117f57829003601f168201915b50505050508152602001428152602001600115158152509050806009600084815260200190815260200160002060008201518160000160006101000a81548160ff021916908360038111156111f3576111f3612080565b02179055506020820151600182019061120c90826124e0565b506040820151600282019061122190826124e0565b506060820151600382019061123690826124e0565b506080820151600482019061124b90826124e0565b5060a0820151600582015560c0909101516006909101805460ff19169115159190911790556001600160a01b0383166000908152600a602052604090208290556112958383611b2a565b81836001600160a01b03167fc9084233952234113add7b9398f0d8ecbc7cfbf458f1d0bb363d559d179fdc988684602001516040516112d59291906125cf565b60405180910390a35050610b2f6001600755565b6112f1611882565b6001600160a01b0381166113565760405162461bcd60e51b815260206004820152602660248201527f4f776e61626c653a206e6577206f776e657220697320746865207a65726f206160448201526564647265737360d01b606482015260840161061a565b61135f816118dc565b50565b6009602052600090815260409020805460018201805460ff90921692916113889061240b565b80601f01602080910402602001604051908101604052809291908181526020018280546113b49061240b565b80156114015780601f106113d657610100808354040283529160200191611401565b820191906000526020600020905b8154815290600101906020018083116113e457829003601f168201915b5050505050908060020180546114169061240b565b80601f01602080910402602001604051908101604052809291908181526020018280546114429061240b565b801561148f5780601f106114645761010080835404028352916020019161148f565b820191906000526020600020905b81548152906001019060200180831161147257829003601f168201915b5050505050908060030180546114a49061240b565b80601f01602080910402602001604051908101604052809291908181526020018280546114d09061240b565b801561151d5780601f106114f25761010080835404028352916020019161151d565b820191906000526020600020905b81548152906001019060200180831161150057829003601f168201915b5050505050908060040180546115329061240b565b80601f016020809104026020016040519081016040528092919081815260200182805461155e9061240b565b80156115ab5780601f10611580576101008083540402835291602001916115ab565b820191906000526020600020905b81548152906001019060200180831161158e57829003601f168201915b50505050600583015460069093015491929160ff16905087565b6000818152600260205260409020546001600160a01b031661135f5760405162461bcd60e51b8152602060048201526018602482015277115490cdcc8c4e881a5b9d985b1a59081d1bdad95b88125160421b604482015260640161061a565b600081815260046020526040902080546001600160a01b0319166001600160a01b038416908117909155819061165982610b33565b6001600160a01b03167f8c5be1e5ebec7d5bd14f71427d1e84f3dd0314c0f7b2291e5b200ac8c7c3b92560405160405180910390a45050565b60008061169e83610b33565b9050806001600160a01b0316846001600160a01b031614806116e557506001600160a01b0380821660009081526005602090815260408083209388168352929052205460ff165b806117095750836001600160a01b03166116fe8461057f565b6001600160a01b0316145b949350505050565b826001600160a01b031661172482610b33565b6001600160a01b03161461174a5760405162461bcd60e51b815260040161061a906125ef565b6001600160a01b0382166117ac5760405162461bcd60e51b8152602060048201526024808201527f4552433732313a207472616e7366657220746f20746865207a65726f206164646044820152637265737360e01b606482015260840161061a565b6117b98383836001611b44565b826001600160a01b03166117cc82610b33565b6001600160a01b0316146117f25760405162461bcd60e51b815260040161061a906125ef565b600081815260046020908152604080832080546001600160a01b03199081169091556001600160a01b0387811680865260038552838620805460001901905590871680865283862080546001019055868652600290945282852080549092168417909155905184937fddf252ad1be2c89b69c2b068fc378daa952ba7f163c4a11628f55a4df523b3ef91a4505050565b6006546001600160a01b03163314610c2b5760405162461bcd60e51b815260206004820181905260248201527f4f776e61626c653a2063616c6c6572206973206e6f7420746865206f776e6572604482015260640161061a565b600680546001600160a01b038381166001600160a01b0319831681179093556040519116919082907f8be0079c531659141344cd1fd0a4f28419497f9722a3daafe3b4186f6b6457e090600090a35050565b816001600160a01b0316836001600160a01b03160361198f5760405162461bcd60e51b815260206004820152601960248201527f4552433732313a20617070726f766520746f2063616c6c657200000000000000604482015260640161061a565b6001600160a01b03838116600081815260056020908152604080832094871680845294825291829020805460ff191686151590811790915591519182527f17307eab39ab6107e8899845ad3d59bd9653f200f220920489ca2b5937696c31910160405180910390a3505050565b611a07848484611711565b611a1384848484611bbc565b610cab5760405162461bcd60e51b815260040161061a90612634565b6060600f80546104fc9061240b565b60606000611a4b83611cbd565b600101905060008167ffffffffffffffff811115611a6b57611a6b6121b9565b6040519080825280601f01601f191660200182016040528015611a95576020820181803683370190505b5090508181016020015b600019016f181899199a1a9b1b9c1cb0b131b232b360811b600a86061a8153600a8504945084611a9f57509392505050565b600260075403611b235760405162461bcd60e51b815260206004820152601f60248201527f5265656e7472616e637947756172643a207265656e7472616e742063616c6c00604482015260640161061a565b6002600755565b610b2f828260405180602001604052806000815250611d95565b6001600160a01b0384161580611b6157506001600160a01b038316155b611bb75760405162461bcd60e51b815260206004820152602160248201527f50696f6e656572204e46547320617265206e6f74207472616e7366657261626c6044820152606560f81b606482015260840161061a565b610cab565b60006001600160a01b0384163b15611cb257604051630a85bd0160e11b81526001600160a01b0385169063150b7a0290611c00903390899088908890600401612686565b6020604051808303816000875af1925050508015611c3b575060408051601f3d908101601f19168201909252611c38918101906126c3565b60015b611c98573d808015611c69576040519150601f19603f3d011682016040523d82523d6000602084013e611c6e565b606091505b508051600003611c905760405162461bcd60e51b815260040161061a90612634565b805181602001fd5b6001600160e01b031916630a85bd0160e11b149050611709565b506001949350505050565b60008072184f03e93ff9f4daa797ed6e38ed64bf6a1f0160401b8310611cfc5772184f03e93ff9f4daa797ed6e38ed64bf6a1f0160401b830492506040015b6d04ee2d6d415b85acef81000000008310611d28576d04ee2d6d415b85acef8100000000830492506020015b662386f26fc100008310611d4657662386f26fc10000830492506010015b6305f5e1008310611d5e576305f5e100830492506008015b6127108310611d7257612710830492506004015b60648310611d84576064830492506002015b600a83106104e75760010192915050565b611d9f8383611dc8565b611dac6000848484611bbc565b6106bb5760405162461bcd60e51b815260040161061a90612634565b6001600160a01b038216611e1e5760405162461bcd60e51b815260206004820181905260248201527f4552433732313a206d696e7420746f20746865207a65726f2061646472657373604482015260640161061a565b6000818152600260205260409020546001600160a01b031615611e835760405162461bcd60e51b815260206004820152601c60248201527f4552433732313a20746f6b656e20616c7265616479206d696e74656400000000604482015260640161061a565b611e91600083836001611b44565b6000818152600260205260409020546001600160a01b031615611ef65760405162461bcd60e51b815260206004820152601c60248201527f4552433732313a20746f6b656e20616c7265616479206d696e74656400000000604482015260640161061a565b6001600160a01b038216600081815260036020908152604080832080546001019055848352600290915280822080546001600160a01b0319168417905551839291907fddf252ad1be2c89b69c2b068fc378daa952ba7f163c4a11628f55a4df523b3ef908290a45050565b6001600160e01b03198116811461135f57600080fd5b600060208284031215611f8957600080fd5b8135610d8f81611f61565b60005b83811015611faf578181015183820152602001611f97565b50506000910152565b60008151808452611fd0816020860160208601611f94565b601f01601f19169290920160200192915050565b602081526000610d8f6020830184611fb8565b60006020828403121561200957600080fd5b5035919050565b80356001600160a01b038116811461202757600080fd5b919050565b6000806040838503121561203f57600080fd5b61204883612010565b946020939093013593505050565b80356004811061202757600080fd5b60006020828403121561207757600080fd5b610d8f82612056565b634e487b7160e01b600052602160045260246000fd5b600481106120b457634e487b7160e01b600052602160045260246000fd5b9052565b602081526120ca602082018351612096565b6000602083015160e060408401526120e6610100840182611fb8565b90506040840151601f19808584030160608601526121048383611fb8565b925060608601519150808584030160808601526121218383611fb8565b925060808601519150808584030160a08601525061213f8282611fb8565b91505060a084015160c084015260c0840151151560e08401528091505092915050565b60006020828403121561217457600080fd5b610d8f82612010565b60008060006060848603121561219257600080fd5b61219b84612010565b92506121a960208501612010565b9150604084013590509250925092565b634e487b7160e01b600052604160045260246000fd5b600067ffffffffffffffff808411156121ea576121ea6121b9565b604051601f8501601f19908116603f01168101908282118183101715612212576122126121b9565b8160405280935085815286868601111561222b57600080fd5b858560208301376000602087830101525050509392505050565b60006020828403121561225757600080fd5b813567ffffffffffffffff81111561226e57600080fd5b8201601f8101841361227f57600080fd5b611709848235602084016121cf565b600080604083850312156122a157600080fd5b6122aa83612010565b9150602083013580151581146122bf57600080fd5b809150509250929050565b600080600080608085870312156122e057600080fd5b6122e985612010565b93506122f760208601612010565b925060408501359150606085013567ffffffffffffffff81111561231a57600080fd5b8501601f8101871361232b57600080fd5b61233a878235602084016121cf565b91505092959194509250565b6000806040838503121561235957600080fd5b61236283612010565b915061237060208401612010565b90509250929050565b6000806040838503121561238c57600080fd5b61236283612056565b61239f8189612096565b60e0602082015260006123b560e0830189611fb8565b82810360408401526123c78189611fb8565b905082810360608401526123db8188611fb8565b905082810360808401526123ef8187611fb8565b60a0840195909552505090151560c09091015295945050505050565b600181811c9082168061241f57607f821691505b60208210810361243f57634e487b7160e01b600052602260045260246000fd5b50919050565b6020808252602d908201527f4552433732313a2063616c6c6572206973206e6f7420746f6b656e206f776e6560408201526c1c881bdc88185c1c1c9bdd9959609a1b606082015260800190565b601f8211156106bb57600081815260208120601f850160051c810160208610156124b95750805b601f850160051c820191505b818110156124d8578281556001016124c5565b505050505050565b815167ffffffffffffffff8111156124fa576124fa6121b9565b61250e81612508845461240b565b84612492565b602080601f831160018114612543576000841561252b5750858301515b600019600386901b1c1916600185901b1785556124d8565b600085815260208120601f198616915b8281101561257257888601518255948401946001909101908401612553565b50858210156125905787850151600019600388901b60f8161c191681555b5050505050600190811b01905550565b600083516125b2818460208801611f94565b8351908301906125c6818360208801611f94565b01949350505050565b6125d98184612096565b6040602082015260006117096040830184611fb8565b60208082526025908201527f4552433732313a207472616e736665722066726f6d20696e636f72726563742060408201526437bbb732b960d91b606082015260800190565b60208082526032908201527f4552433732313a207472616e7366657220746f206e6f6e20455243373231526560408201527131b2b4bb32b91034b6b83632b6b2b73a32b960711b606082015260800190565b6001600160a01b03858116825284166020820152604081018390526080606082018190526000906126b990830184611fb8565b9695505050505050565b6000602082840312156126d557600080fd5b8151610d8f81611f6156fea2646970667358221220ec10eb3cd8db30fb3b04bd48f60a23debdaa3f54ae68ce7672b91b6f9c83b3c664736f6c63430008130033",
  "linkReferences": {},
  "deployedLinkReferences": {}
}