{
  "_format": "hh-sol-artifact-1",
  "contractName": "SimpleConfidentialEnsIdentityGuardian",
  "sourceName": "contracts/SimpleConfidentialEnsIdentityGuardian.sol",
  "abi": [
    {
      "inputs": [],
      "stateMutability": "nonpayable",
      "type": "constructor"
    },
    {
      "anonymous": false,
      "inputs": [
        {
          "indexed": true,
          "internalType": "address",
          "name": "owner",
          "type": "address"
        },
        {
          "indexed": true,
          "internalType": "address",
          "name": "approved",
          "type": "address"
        },
        {
          "indexed": true,
          "internalType": "uint256",
          "name": "tokenId",
          "type": "uint256"
        }
      ],
      "name": "Approval",
      "type": "event"
    },
    {
      "anonymous": false,
      "inputs": [
        {
          "indexed": true,
          "internalType": "address",
          "name": "owner",
          "type": "address"
        },
        {
          "indexed": true,
          "internalType": "address",
          "name": "operator",
          "type": "address"
        },
        {
          "indexed": false,
          "internalType": "bool",
          "name": "approved",
          "type": "bool"
        }
      ],
      "name": "ApprovalForAll",
      "type": "event"
    },
    {
      "anonymous": false,
      "inputs": [
        {
          "indexed": true,
          "internalType": "address",
          "name": "voter",
          "type": "address"
        },
        {
          "indexed": false,
          "internalType": "string",
          "name": "encryptedVote",
          "type": "string"
        }
      ],
      "name": "ConfidentialVoteCast",
      "type": "event"
    },
    {
      "anonymous": false,
      "inputs": [
        {
          "indexed": true,
          "internalType": "address",
          "name": "player",
          "type": "address"
        },
        {
          "indexed": false,
          "internalType": "string",
          "name": "encryptedScore",
          "type": "string"
        }
      ],
      "name": "IdentityScoreUpdated",
      "type": "event"
    },
    {
      "anonymous": false,
      "inputs": [
        {
          "indexed": true,
          "internalType": "address",
          "name": "previousOwner",
          "type": "address"
        },
        {
          "indexed": true,
          "internalType": "address",
          "name": "newOwner",
          "type": "address"
        }
      ],
      "name": "OwnershipTransferred",
      "type": "event"
    },
    {
      "anonymous": false,
      "inputs": [
        {
          "indexed": true,
          "internalType": "address",
          "name": "player",
          "type": "address"
        },
        {
          "indexed": false,
          "internalType": "uint256",
          "name": "tokenId",
          "type": "uint256"
        }
      ],
      "name": "PioneerMinted",
      "type": "event"
    },
    {
      "anonymous": false,
      "inputs": [
        {
          "indexed": true,
          "internalType": "address",
          "name": "from",
          "type": "address"
        },
        {
          "indexed": true,
          "internalType": "address",
          "name": "to",
          "type": "address"
        },
        {
          "indexed": true,
          "internalType": "uint256",
          "name": "tokenId",
          "type": "uint256"
        }
      ],
      "name": "Transfer",
      "type": "event"
    },
    {
      "inputs": [],
      "name": "ENS_PIONEER_TYPE",
      "outputs": [
        {
          "internalType": "uint256",
          "name": "",
          "type": "uint256"
        }
      ],
      "stateMutability": "view",
      "type": "function"
    },
    {
      "inputs": [],
      "name": "ENS_REGISTRY",
      "outputs": [
        {
          "internalType": "address",
          "name": "",
          "type": "address"
        }
      ],
      "stateMutability": "view",
      "type": "function"
    },
    {
      "inputs": [
        {
          "internalType": "address",
          "name": "to",
          "type": "address"
        },
        {
          "internalType": "uint256",
          "name": "tokenId",
          "type": "uint256"
        }
      ],
      "name": "approve",
      "outputs": [],
      "stateMutability": "nonpayable",
      "type": "function"
    },
    {
      "inputs": [
        {
          "internalType": "address",
          "name": "owner",
          "type": "address"
        }
      ],
      "name": "balanceOf",
      "outputs": [
        {
          "internalType": "uint256",
          "name": "",
          "type": "uint256"
        }
      ],
      "stateMutability": "view",
      "type": "function"
    },
    {
      "inputs": [
        {
          "internalType": "string",
          "name": "encryptedVote",
          "type": "string"
        }
      ],
      "name": "castConfidentialVote",
      "outputs": [],
      "stateMutability": "nonpayable",
      "type": "function"
    },
    {
      "inputs": [
        {
          "internalType": "uint256",
          "name": "tokenId",
          "type": "uint256"
        }
      ],
      "name": "getApproved",
      "outputs": [
        {
          "internalType": "address",
          "name": "",
          "type": "address"
        }
      ],
      "stateMutability": "view",
      "type": "function"
    },
    {
      "inputs": [
        {
          "internalType": "address",
          "name": "player",
          "type": "address"
        }
      ],
      "name": "getEncryptedIdentityScore",
      "outputs": [
        {
          "internalType": "string",
          "name": "",
          "type": "string"
        }
      ],
      "stateMutability": "view",
      "type": "function"
    },
    {
      "inputs": [],
      "name": "getEncryptedTotalVotes",
      "outputs": [
        {
          "internalType": "string",
          "name": "",
          "type": "string"
        }
      ],
      "stateMutability": "view",
      "type": "function"
    },
    {
      "inputs": [
        {
          "internalType": "address",
          "name": "player",
          "type": "address"
        }
      ],
      "name": "getPlayerPioneer",
      "outputs": [
        {
          "internalType": "uint256",
          "name": "",
          "type": "uint256"
        }
      ],
      "stateMutability": "view",
      "type": "function"
    },
    {
      "inputs": [
        {
          "internalType": "address",
          "name": "player",
          "type": "address"
        }
      ],
      "name": "hasPioneer",
      "outputs": [
        {
          "internalType": "bool",
          "name": "",
          "type": "bool"
        }
      ],
      "stateMutability": "view",
      "type": "function"
    },
    {
      "inputs": [
        {
          "internalType": "address",
          "name": "",
          "type": "address"
        }
      ],
      "name": "hasPioneerMapping",
      "outputs": [
        {
          "internalType": "bool",
          "name": "",
          "type": "bool"
        }
      ],
      "stateMutability": "view",
      "type": "function"
    },
    {
      "inputs": [
        {
          "internalType": "address",
          "name": "owner",
          "type": "address"
        },
        {
          "internalType": "address",
          "name": "operator",
          "type": "address"
        }
      ],
      "name": "isApprovedForAll",
      "outputs": [
        {
          "internalType": "bool",
          "name": "",
          "type": "bool"
        }
      ],
      "stateMutability": "view",
      "type": "function"
    },
    {
      "inputs": [],
      "name": "isMintingAvailable",
      "outputs": [
        {
          "internalType": "bool",
          "name": "",
          "type": "bool"
        }
      ],
      "stateMutability": "pure",
      "type": "function"
    },
    {
      "inputs": [
        {
          "internalType": "uint256",
          "name": "pioneerType",
          "type": "uint256"
        },
        {
          "internalType": "address",
          "name": "playerAddress",
          "type": "address"
        }
      ],
      "name": "mintPioneer",
      "outputs": [],
      "stateMutability": "nonpayable",
      "type": "function"
    },
    {
      "inputs": [],
      "name": "name",
      "outputs": [
        {
          "internalType": "string",
          "name": "",
          "type": "string"
        }
      ],
      "stateMutability": "view",
      "type": "function"
    },
    {
      "inputs": [],
      "name": "owner",
      "outputs": [
        {
          "internalType": "address",
          "name": "",
          "type": "address"
        }
      ],
      "stateMutability": "view",
      "type": "function"
    },
    {
      "inputs": [
        {
          "internalType": "uint256",
          "name": "tokenId",
          "type": "uint256"
        }
      ],
      "name": "ownerOf",
      "outputs": [
        {
          "internalType": "address",
          "name": "",
          "type": "address"
        }
      ],
      "stateMutability": "view",
      "type": "function"
    },
    {
      "inputs": [],
      "name": "renounceOwnership",
      "outputs": [],
      "stateMutability": "nonpayable",
      "type": "function"
    },
    {
      "inputs": [
        {
          "internalType": "address",
          "name": "from",
          "type": "address"
        },
        {
          "internalType": "address",
          "name": "to",
          "type": "address"
        },
        {
          "internalType": "uint256",
          "name": "tokenId",
          "type": "uint256"
        }
      ],
      "name": "safeTransferFrom",
      "outputs": [],
      "stateMutability": "nonpayable",
      "type": "function"
    },
    {
      "inputs": [
        {
          "internalType": "address",
          "name": "from",
          "type": "address"
        },
        {
          "internalType": "address",
          "name": "to",
          "type": "address"
        },
        {
          "internalType": "uint256",
          "name": "tokenId",
          "type": "uint256"
        },
        {
          "internalType": "bytes",
          "name": "data",
          "type": "bytes"
        }
      ],
      "name": "safeTransferFrom",
      "outputs": [],
      "stateMutability": "nonpayable",
      "type": "function"
    },
    {
      "inputs": [
        {
          "internalType": "address",
          "name": "operator",
          "type": "address"
        },
        {
          "internalType": "bool",
          "name": "approved",
          "type": "bool"
        }
      ],
      "name": "setApprovalForAll",
      "outputs": [],
      "stateMutability": "nonpayable",
      "type": "function"
    },
    {
      "inputs": [
        {
          "internalType": "bytes4",
          "name": "interfaceId",
          "type": "bytes4"
        }
      ],
      "name": "supportsInterface",
      "outputs": [
        {
          "internalType": "bool",
          "name": "",
          "type": "bool"
        }
      ],
      "stateMutability": "view",
      "type": "function"
    },
    {
      "inputs": [],
      "name": "symbol",
      "outputs": [
        {
          "internalType": "string",
          "name": "",
          "type": "string"
        }
      ],
      "stateMutability": "view",
      "type": "function"
    },
    {
      "inputs": [
        {
          "internalType": "uint256",
          "name": "tokenId",
          "type": "uint256"
        }
      ],
      "name": "tokenURI",
      "outputs": [
        {
          "internalType": "string",
          "name": "",
          "type": "string"
        }
      ],
      "stateMutability": "view",
      "type": "function"
    },
    {
      "inputs": [],
      "name": "totalSupply",
      "outputs": [
        {
          "internalType": "uint256",
          "name": "",
          "type": "uint256"
        }
      ],
      "stateMutability": "view",
      "type": "function"
    },
    {
      "inputs": [
        {
          "internalType": "address",
          "name": "from",
          "type": "address"
        },
        {
          "internalType": "address",
          "name": "to",
          "type": "address"
        },
        {
          "internalType": "uint256",
          "name": "tokenId",
          "type": "uint256"
        }
      ],
      "name": "transferFrom",
      "outputs": [],
      "stateMutability": "nonpayable",
      "type": "function"
    },
    {
      "inputs": [
        {
          "internalType": "address",
          "name": "newOwner",
          "type": "address"
        }
      ],
      "name": "transferOwnership",
      "outputs": [],
      "stateMutability": "nonpayable",
      "type": "function"
    },
    {
      "inputs": [
        {
          "internalType": "address",
          "name": "player",
          "type": "address"
        },
        {
          "internalType": "string",
          "name": "newScore",
          "type": "string"
        }
      ],
      "name": "updateIdentityScore",
      "outputs": [],
      "stateMutability": "nonpayable",
      "type": "function"
    }
  ],
  "bytecode": "0x60806040523480156200001157600080fd5b50604051806060016040528060298152602001620022d0602991396040805180820190915260058152645343454e5360d81b6020820152600062000056838262000188565b50600162000065828262000188565b505050620000826200007c6200008d60201b60201c565b62000091565b600160075562000254565b3390565b600680546001600160a01b038381166001600160a01b0319831681179093556040519116919082907f8be0079c531659141344cd1fd0a4f28419497f9722a3daafe3b4186f6b6457e090600090a35050565b634e487b7160e01b600052604160045260246000fd5b600181811c908216806200010e57607f821691505b6020821081036200012f57634e487b7160e01b600052602260045260246000fd5b50919050565b601f8211156200018357600081815260208120601f850160051c810160208610156200015e5750805b601f850160051c820191505b818110156200017f578281556001016200016a565b5050505b505050565b81516001600160401b03811115620001a457620001a4620000e3565b620001bc81620001b58454620000f9565b8462000135565b602080601f831160018114620001f45760008415620001db5750858301515b600019600386901b1c1916600185901b1785556200017f565b600085815260208120601f198616915b82811015620002255788860151825594840194600190910190840162000204565b5085821015620002445787850151600019600388901b60f8161c191681555b5050505050600190811b01905550565b61206c80620002646000396000f3fe608060405234801561001057600080fd5b50600436106101c45760003560e01c806370a08231116100f957806395d89b4111610097578063c87b56dd11610071578063c87b56dd146103b7578063ce276e98146103ca578063e985e9c5146103dd578063f2fde38b146103f057600080fd5b806395d89b4114610389578063a22cb46514610391578063b88d4fde146103a457600080fd5b80637a4f37de116100d35780637a4f37de1461032c57806385e969171461034f578063873f9df3146103655780638da5cb5b1461037857600080fd5b806370a08231146102fe578063715018a614610311578063788f6d401461031957600080fd5b8063278daa931161016657806342842e0e1161014057806342842e0e146102c857806359361fc4146102db5780635ece4ce6146102e35780636352211e146102eb57600080fd5b8063278daa931461028257806327f4c697146102955780632c10c779146102c157600080fd5b8063095ea7b3116101a2578063095ea7b31461023157806318160ddd14610246578063229125c81461025c57806323b872dd1461026f57600080fd5b806301ffc9a7146101c957806306fdde03146101f1578063081812fc14610206575b600080fd5b6101dc6101d736600461174d565b610403565b60405190151581526020015b60405180910390f35b6101f9610455565b6040516101e891906117ba565b6102196102143660046117cd565b6104e7565b6040516001600160a01b0390911681526020016101e8565b61024461023f366004611802565b61050e565b005b61024e610628565b6040519081526020016101e8565b61024e61026a36600461182c565b610638565b61024461027d366004611847565b610678565b6101f961029036600461182c565b6106a9565b6101dc6102a336600461182c565b6001600160a01b031660009081526009602052604090205460ff1690565b60016101dc565b6102446102d6366004611847565b61078c565b61024e600481565b6101f96107a7565b6102196102f93660046117cd565b6107b6565b61024e61030c36600461182c565b610816565b61024461089c565b610244610327366004611883565b6108b0565b6101dc61033a36600461182c565b60096020526000908152604090205460ff1681565b6102196e0c2e074ec69a0dfb2997ba6c7d2e1e81565b6102446103733660046118f8565b610a9b565b6006546001600160a01b0316610219565b6101f9610b47565b61024461039f36600461194b565b610b56565b6102446103b236600461199d565b610b61565b6101f96103c53660046117cd565b610b99565b6102446103d8366004611a79565b610c0d565b6101dc6103eb366004611abb565b610d02565b6102446103fe36600461182c565b610d30565b60006001600160e01b031982166380ac58cd60e01b148061043457506001600160e01b03198216635b5e139f60e01b145b8061044f57506301ffc9a760e01b6001600160e01b03198316145b92915050565b60606000805461046490611ae5565b80601f016020809104026020016040519081016040528092919081815260200182805461049090611ae5565b80156104dd5780601f106104b2576101008083540402835291602001916104dd565b820191906000526020600020905b8154815290600101906020018083116104c057829003601f168201915b5050505050905090565b60006104f282610da9565b506000908152600460205260409020546001600160a01b031690565b6000610519826107b6565b9050806001600160a01b0316836001600160a01b03160361058b5760405162461bcd60e51b815260206004820152602160248201527f4552433732313a20617070726f76616c20746f2063757272656e74206f776e656044820152603960f91b60648201526084015b60405180910390fd5b336001600160a01b03821614806105a757506105a78133610d02565b6106195760405162461bcd60e51b815260206004820152603d60248201527f4552433732313a20617070726f76652063616c6c6572206973206e6f7420746f60448201527f6b656e206f776e6572206f7220617070726f76656420666f7220616c6c0000006064820152608401610582565b6106238383610e08565b505050565b600061063360085490565b905090565b6001600160a01b03811660009081526009602052604081205460ff166106705760405162461bcd60e51b815260040161058290611b1f565b506001919050565b6106823382610e76565b61069e5760405162461bcd60e51b815260040161058290611b4e565b610623838383610ed5565b6001600160a01b03811660009081526009602052604090205460609060ff166106e45760405162461bcd60e51b815260040161058290611b1f565b6001600160a01b0382166000908152600a60205260409020805461070790611ae5565b80601f016020809104026020016040519081016040528092919081815260200182805461073390611ae5565b80156107805780601f1061075557610100808354040283529160200191610780565b820191906000526020600020905b81548152906001019060200180831161076357829003601f168201915b50505050509050919050565b61062383838360405180602001604052806000815250610b61565b6060600c805461046490611ae5565b6000818152600260205260408120546001600160a01b03168061044f5760405162461bcd60e51b8152602060048201526018602482015277115490cdcc8c4e881a5b9d985b1a59081d1bdad95b88125160421b6044820152606401610582565b60006001600160a01b0382166108805760405162461bcd60e51b815260206004820152602960248201527f4552433732313a2061646472657373207a65726f206973206e6f7420612076616044820152683634b21037bbb732b960b91b6064820152608401610582565b506001600160a01b031660009081526003602052604090205490565b6108a4611039565b6108ae6000611093565b565b6108b86110e5565b600482146108ff5760405162461bcd60e51b8152602060048201526014602482015273496e76616c69642070696f6e656572207479706560601b6044820152606401610582565b6001600160a01b03811660009081526009602052604090205460ff16156109685760405162461bcd60e51b815260206004820152601f60248201527f506c6179657220616c72656164792068617320454e5320477561726469616e006044820152606401610582565b6001600160a01b0381166109b75760405162461bcd60e51b8152602060048201526016602482015275496e76616c696420706c61796572206164647265737360501b6044820152606401610582565b6109c5600880546001019055565b60006109d060085490565b90506109dc828261113e565b6001600160a01b0382166000908152600960205260409020805460ff19166001179055610a08816112c9565b604051602001610a189190611b9b565b60408051601f198184030181529181526001600160a01b0384166000908152600a6020522090610a489082611c2f565b50816001600160a01b03167fa1438544a2d9e184188c046e58941d4c5d8aba45b6a29c5c5011d72e2b94f21182604051610a8491815260200190565b60405180910390a250610a976001600755565b5050565b610aa3611039565b6001600160a01b03831660009081526009602052604090205460ff16610adb5760405162461bcd60e51b815260040161058290611b1f565b6001600160a01b0383166000908152600a60205260409020610afe828483611cef565b50826001600160a01b03167f8bfd78c77e4d4292dd8d927738aaf9326cc9efdc71f2bf344bb104344673b2df8383604051610b3a929190611db0565b60405180910390a2505050565b60606001805461046490611ae5565b610a973383836113ca565b610b6b3383610e76565b610b875760405162461bcd60e51b815260040161058290611b4e565b610b9384848484611498565b50505050565b6060610ba482610da9565b6000610bbb60408051602081019091526000815290565b90506000815111610bdb5760405180602001604052806000815250610c06565b80610be5846114cb565b604051602001610bf6929190611ddf565b6040516020818303038152906040525b9392505050565b3360009081526009602052604090205460ff16610c6c5760405162461bcd60e51b815260206004820152601e60248201527f4d757374206861766520454e5320477561726469616e20746f20766f746500006044820152606401610582565b336000908152600b60205260409020610c86828483611cef565b50600c8282604051602001610c9d93929190611e0e565b604051602081830303815290604052600c9081610cba9190611c2f565b50336001600160a01b03167fe062abe472f38248ae14d59e7a4e7774610679bd2076cad46a3af1dc3b7dc5d68383604051610cf6929190611db0565b60405180910390a25050565b6001600160a01b03918216600090815260056020908152604080832093909416825291909152205460ff1690565b610d38611039565b6001600160a01b038116610d9d5760405162461bcd60e51b815260206004820152602660248201527f4f776e61626c653a206e6577206f776e657220697320746865207a65726f206160448201526564647265737360d01b6064820152608401610582565b610da681611093565b50565b6000818152600260205260409020546001600160a01b0316610da65760405162461bcd60e51b8152602060048201526018602482015277115490cdcc8c4e881a5b9d985b1a59081d1bdad95b88125160421b6044820152606401610582565b600081815260046020526040902080546001600160a01b0319166001600160a01b0384169081179091558190610e3d826107b6565b6001600160a01b03167f8c5be1e5ebec7d5bd14f71427d1e84f3dd0314c0f7b2291e5b200ac8c7c3b92560405160405180910390a45050565b600080610e82836107b6565b9050806001600160a01b0316846001600160a01b03161480610ea95750610ea98185610d02565b80610ecd5750836001600160a01b0316610ec2846104e7565b6001600160a01b0316145b949350505050565b826001600160a01b0316610ee8826107b6565b6001600160a01b031614610f0e5760405162461bcd60e51b815260040161058290611e9c565b6001600160a01b038216610f705760405162461bcd60e51b8152602060048201526024808201527f4552433732313a207472616e7366657220746f20746865207a65726f206164646044820152637265737360e01b6064820152608401610582565b826001600160a01b0316610f83826107b6565b6001600160a01b031614610fa95760405162461bcd60e51b815260040161058290611e9c565b600081815260046020908152604080832080546001600160a01b03199081169091556001600160a01b0387811680865260038552838620805460001901905590871680865283862080546001019055868652600290945282852080549092168417909155905184937fddf252ad1be2c89b69c2b068fc378daa952ba7f163c4a11628f55a4df523b3ef91a4505050565b6006546001600160a01b031633146108ae5760405162461bcd60e51b815260206004820181905260248201527f4f776e61626c653a2063616c6c6572206973206e6f7420746865206f776e65726044820152606401610582565b600680546001600160a01b038381166001600160a01b0319831681179093556040519116919082907f8be0079c531659141344cd1fd0a4f28419497f9722a3daafe3b4186f6b6457e090600090a35050565b6002600754036111375760405162461bcd60e51b815260206004820152601f60248201527f5265656e7472616e637947756172643a207265656e7472616e742063616c6c006044820152606401610582565b6002600755565b6001600160a01b0382166111945760405162461bcd60e51b815260206004820181905260248201527f4552433732313a206d696e7420746f20746865207a65726f20616464726573736044820152606401610582565b6000818152600260205260409020546001600160a01b0316156111f95760405162461bcd60e51b815260206004820152601c60248201527f4552433732313a20746f6b656e20616c7265616479206d696e746564000000006044820152606401610582565b6000818152600260205260409020546001600160a01b03161561125e5760405162461bcd60e51b815260206004820152601c60248201527f4552433732313a20746f6b656e20616c7265616479206d696e746564000000006044820152606401610582565b6001600160a01b038216600081815260036020908152604080832080546001019055848352600290915280822080546001600160a01b0319168417905551839291907fddf252ad1be2c89b69c2b068fc378daa952ba7f163c4a11628f55a4df523b3ef908290a45050565b6060816000036112f05750506040805180820190915260018152600360fc1b602082015290565b8160005b811561131a578061130481611ef7565b91506113139050600a83611f26565b91506112f4565b60008167ffffffffffffffff81111561133557611335611987565b6040519080825280601f01601f19166020018201604052801561135f576020820181803683370190505b5090505b8415610ecd57611374600183611f3a565b9150611381600a86611f4d565b61138c906030611f61565b60f81b8183815181106113a1576113a1611f74565b60200101906001600160f81b031916908160001a9053506113c3600a86611f26565b9450611363565b816001600160a01b0316836001600160a01b03160361142b5760405162461bcd60e51b815260206004820152601960248201527f4552433732313a20617070726f766520746f2063616c6c6572000000000000006044820152606401610582565b6001600160a01b03838116600081815260056020908152604080832094871680845294825291829020805460ff191686151590811790915591519182527f17307eab39ab6107e8899845ad3d59bd9653f200f220920489ca2b5937696c31910160405180910390a3505050565b6114a3848484610ed5565b6114af8484848461155e565b610b935760405162461bcd60e51b815260040161058290611f8a565b606060006114d88361165f565b600101905060008167ffffffffffffffff8111156114f8576114f8611987565b6040519080825280601f01601f191660200182016040528015611522576020820181803683370190505b5090508181016020015b600019016f181899199a1a9b1b9c1cb0b131b232b360811b600a86061a8153600a850494508461152c57509392505050565b60006001600160a01b0384163b1561165457604051630a85bd0160e11b81526001600160a01b0385169063150b7a02906115a2903390899088908890600401611fdc565b6020604051808303816000875af19250505080156115dd575060408051601f3d908101601f191682019092526115da91810190612019565b60015b61163a573d80801561160b576040519150601f19603f3d011682016040523d82523d6000602084013e611610565b606091505b5080516000036116325760405162461bcd60e51b815260040161058290611f8a565b805181602001fd5b6001600160e01b031916630a85bd0160e11b149050610ecd565b506001949350505050565b60008072184f03e93ff9f4daa797ed6e38ed64bf6a1f0160401b831061169e5772184f03e93ff9f4daa797ed6e38ed64bf6a1f0160401b830492506040015b6d04ee2d6d415b85acef810000000083106116ca576d04ee2d6d415b85acef8100000000830492506020015b662386f26fc1000083106116e857662386f26fc10000830492506010015b6305f5e1008310611700576305f5e100830492506008015b612710831061171457612710830492506004015b60648310611726576064830492506002015b600a831061044f5760010192915050565b6001600160e01b031981168114610da657600080fd5b60006020828403121561175f57600080fd5b8135610c0681611737565b60005b8381101561178557818101518382015260200161176d565b50506000910152565b600081518084526117a681602086016020860161176a565b601f01601f19169290920160200192915050565b602081526000610c06602083018461178e565b6000602082840312156117df57600080fd5b5035919050565b80356001600160a01b03811681146117fd57600080fd5b919050565b6000806040838503121561181557600080fd5b61181e836117e6565b946020939093013593505050565b60006020828403121561183e57600080fd5b610c06826117e6565b60008060006060848603121561185c57600080fd5b611865846117e6565b9250611873602085016117e6565b9150604084013590509250925092565b6000806040838503121561189657600080fd5b823591506118a6602084016117e6565b90509250929050565b60008083601f8401126118c157600080fd5b50813567ffffffffffffffff8111156118d957600080fd5b6020830191508360208285010111156118f157600080fd5b9250929050565b60008060006040848603121561190d57600080fd5b611916846117e6565b9250602084013567ffffffffffffffff81111561193257600080fd5b61193e868287016118af565b9497909650939450505050565b6000806040838503121561195e57600080fd5b611967836117e6565b91506020830135801515811461197c57600080fd5b809150509250929050565b634e487b7160e01b600052604160045260246000fd5b600080600080608085870312156119b357600080fd5b6119bc856117e6565b93506119ca602086016117e6565b925060408501359150606085013567ffffffffffffffff808211156119ee57600080fd5b818701915087601f830112611a0257600080fd5b813581811115611a1457611a14611987565b604051601f8201601f19908116603f01168101908382118183101715611a3c57611a3c611987565b816040528281528a6020848701011115611a5557600080fd5b82602086016020830137600060208483010152809550505050505092959194509250565b60008060208385031215611a8c57600080fd5b823567ffffffffffffffff811115611aa357600080fd5b611aaf858286016118af565b90969095509350505050565b60008060408385031215611ace57600080fd5b611ad7836117e6565b91506118a6602084016117e6565b600181811c90821680611af957607f821691505b602082108103611b1957634e487b7160e01b600052602260045260246000fd5b50919050565b602080825260159082015274283630bcb2b9103430b9903737903834b7b732b2b960591b604082015260600190565b6020808252602d908201527f4552433732313a2063616c6c6572206973206e6f7420746f6b656e206f776e6560408201526c1c881bdc88185c1c1c9bdd9959609a1b606082015260800190565b6f656e637279707465645f73636f72655f60801b815260008251611bc681601085016020870161176a565b6305f3130360e41b6010939091019283015250601401919050565b601f82111561062357600081815260208120601f850160051c81016020861015611c085750805b601f850160051c820191505b81811015611c2757828155600101611c14565b505050505050565b815167ffffffffffffffff811115611c4957611c49611987565b611c5d81611c578454611ae5565b84611be1565b602080601f831160018114611c925760008415611c7a5750858301515b600019600386901b1c1916600185901b178555611c27565b600085815260208120601f198616915b82811015611cc157888601518255948401946001909101908401611ca2565b5085821015611cdf5787850151600019600388901b60f8161c191681555b5050505050600190811b01905550565b67ffffffffffffffff831115611d0757611d07611987565b611d1b83611d158354611ae5565b83611be1565b6000601f841160018114611d4f5760008515611d375750838201355b600019600387901b1c1916600186901b178355611da9565b600083815260209020601f19861690835b82811015611d805786850135825560209485019460019092019101611d60565b5086821015611d9d5760001960f88860031b161c19848701351681555b505060018560011b0183555b5050505050565b60208152816020820152818360408301376000818301604090810191909152601f909201601f19160101919050565b60008351611df181846020880161176a565b835190830190611e0581836020880161176a565b01949350505050565b6000808554611e1c81611ae5565b60018281168015611e345760018114611e4957611e78565b60ff1984168752821515830287019450611e78565b8960005260208060002060005b85811015611e6f5781548a820152908401908201611e56565b50505082870194505b50605f60f81b84528688828601376000939096019095019182525095945050505050565b60208082526025908201527f4552433732313a207472616e736665722066726f6d20696e636f72726563742060408201526437bbb732b960d91b606082015260800190565b634e487b7160e01b600052601160045260246000fd5b600060018201611f0957611f09611ee1565b5060010190565b634e487b7160e01b600052601260045260246000fd5b600082611f3557611f35611f10565b500490565b8181038181111561044f5761044f611ee1565b600082611f5c57611f5c611f10565b500690565b8082018082111561044f5761044f611ee1565b634e487b7160e01b600052603260045260246000fd5b60208082526032908201527f4552433732313a207472616e7366657220746f206e6f6e20455243373231526560408201527131b2b4bb32b91034b6b83632b6b2b73a32b960711b606082015260800190565b6001600160a01b038581168252841660208201526040810183905260806060820181905260009061200f9083018461178e565b9695505050505050565b60006020828403121561202b57600080fd5b8151610c068161173756fea264697066735822122015942cb6cf13083a5d381914f9baad614e3f58a8371f08b5702be8721b5c9dbb64736f6c6343000813003353696d706c6520436f6e666964656e7469616c20454e53204964656e7469747920477561726469616e",
  "linkReferences": {},
  "deployedLinkReferences": {}
}